{
	"compilerInput": "{\"language\":\"Solidity\",\"sources\":{\"contracts/InvestmentSmartContract.sol\":{\"content\":\"// SPDX-License-Identifier: MIT\\npragma solidity ^0.8.0;\\n\\ncontract InvestmentSmartContract {\\n    struct Investor {\\n        uint256 balance;\\n        uint256 percentage;\\n    }\\n\\n    address immutable contractOwner = 0x5E4B7C08D32810282E1cB539e8b15173Fb5E38c4;\\n    address private startupOwner;\\n    mapping(address => uint256) private investorsBalances;\\n    mapping(address => uint256) private investorsPercentages;\\n    uint256 private startTime;\\n    uint256 private endTime;\\n    uint256 private tokensCollected;\\n    uint256 private investmentGoal;\\n    uint256 private sharePercentage;\\n    address[] private investorsList;\\n\\n    constructor(uint256 _investmentGoal, uint256 _sharePercentage, uint256 _endTime) {\\n        startupOwner = msg.sender;\\n        investmentGoal = _investmentGoal;\\n        sharePercentage = _sharePercentage;\\n        startTime = block.timestamp;\\n        endTime = _endTime;\\n    }\\n\\n    function invest() external payable {\\n        uint256 investmentAmount = msg.value;\\n        if (investmentAmount == 0) {\\n            revert(\\\"NO FUNDS ATTACHED\\\");\\n        } else {\\n            address investor = msg.sender;\\n            investorsList.push(investor);\\n            investorsBalances[investor] += investmentAmount;\\n            tokensCollected += investmentAmount;\\n        }\\n    }\\n\\n    function withdrawStartupper(uint256 finalAmount) internal {\\n        address caller = msg.sender;\\n        if (tokensCollected >= investmentGoal && startupOwner == caller) {\\n            payable(caller).transfer(finalAmount);\\n        } else {\\n            revert(\\\"NOT ENOUGH FUNDS TO WITHDRAW\\\");\\n        }\\n    }\\n\\n    function withdrawTest() external {\\n        payable(msg.sender).transfer(tokensCollected);\\n    }\\n\\n    function withdrawInvestor() external {\\n        address caller = msg.sender;\\n        if (tokensCollected >= investmentGoal) {\\n            uint256 amount = investorsBalances[caller];\\n            investorsBalances[caller] = 0;\\n            payable(caller).transfer(amount);\\n        } else {\\n            revert(\\\"NOT ENOUGH FUNDS TO WITHDRAW\\\");\\n        }\\n    }\\n\\n    function withdrawTokenvest(uint256 commission) internal {\\n        payable(contractOwner).transfer(commission);\\n    }\\n\\n    function showAmount() external view returns (uint256) {\\n        return tokensCollected;\\n    }\\n\\n    function showTime() external view returns (uint256) {\\n        return block.timestamp;\\n    }\\n\\n    function finishStartup(uint256 commission, uint256 finalAmount) external {\\n        if (endTime > block.timestamp) {\\n            revert(\\\"CAMPAIGN STILL RUNNING\\\");\\n        } else {\\n            if (tokensCollected < investmentGoal) {\\n                for (uint256 investorIndex = 0; investorIndex < investorsList.length; investorIndex++) {\\n                    uint256 refundAmount = investorsBalances[investorsList[investorIndex]];\\n                    payable(investorsList[investorIndex]).transfer(refundAmount);\\n                }   \\n                revert(\\\"CAMPAIGN FAILED\\\");    \\n            } else {\\n                withdrawStartupper(finalAmount);\\n                withdrawTokenvest(commission);\\n            }\\n        }\\n    }\\n\\n    function showInvestors() external view returns (address[] memory, uint256[] memory) {\\n        uint256[] memory balances = new uint256[](investorsList.length);\\n        for (uint256 i = 0; i < investorsList.length; i++) {\\n            balances[i] = investorsBalances[investorsList[i]];\\n        }\\n        return (investorsList, balances);\\n    }\\n}\\n\"}},\"settings\":{\"optimizer\":{\"enabled\":false,\"runs\":200},\"outputSelection\":{\"*\":{\"\":[\"ast\"],\"*\":[\"abi\",\"metadata\",\"devdoc\",\"userdoc\",\"storageLayout\",\"evm.legacyAssembly\",\"evm.bytecode\",\"evm.deployedBytecode\",\"evm.methodIdentifiers\",\"evm.gasEstimates\",\"evm.assembly\"]}}}}",
	"name": "InvestmentSmartContract",
	"bytecode": {
		"linkReferences": {},
		"object": "60a0604052735e4b7c08d32810282e1cb539e8b15173fb5e38c473ffffffffffffffffffffffffffffffffffffffff1660809073ffffffffffffffffffffffffffffffffffffffff168152503480156200005857600080fd5b5060405162000ff738038062000ff783398181016040528101906200007e919062000123565b336000806101000a81548173ffffffffffffffffffffffffffffffffffffffff021916908373ffffffffffffffffffffffffffffffffffffffff160217905550826006819055508160078190555042600381905550806004819055505050506200017f565b600080fd5b6000819050919050565b620000fd81620000e8565b81146200010957600080fd5b50565b6000815190506200011d81620000f2565b92915050565b6000806000606084860312156200013f576200013e620000e3565b5b60006200014f868287016200010c565b935050602062000162868287016200010c565b925050604062000175868287016200010c565b9150509250925092565b608051610e5c6200019b600039600061086a0152610e5c6000f3fe6080604052600436106100705760003560e01c8063b9ecb28a1161004e578063b9ecb28a146100f7578063c228460c14610120578063e8b5e51f14610137578063ead0c0191461014157610070565b80635cfb5ff51461007557806364d58439146100a05780638a6b607a146100cc575b600080fd5b34801561008157600080fd5b5061008a610158565b60405161009791906108eb565b60405180910390f35b3480156100ac57600080fd5b506100b5610162565b6040516100c3929190610ab4565b60405180910390f35b3480156100d857600080fd5b506100e161030c565b6040516100ee91906108eb565b60405180910390f35b34801561010357600080fd5b5061011e60048036038101906101199190610b1c565b610314565b005b34801561012c57600080fd5b506101356104e2565b005b61013f610606565b005b34801561014d57600080fd5b50610156610729565b005b6000600554905090565b606080600060088054905067ffffffffffffffff81111561018657610185610b5c565b5b6040519080825280602002602001820160405280156101b45781602001602082028036833780820191505090505b50905060005b6008805490508110156102775760016000600883815481106101df576101de610b8b565b5b9060005260206000200160009054906101000a900473ffffffffffffffffffffffffffffffffffffffff1673ffffffffffffffffffffffffffffffffffffffff1673ffffffffffffffffffffffffffffffffffffffff1681526020019081526020016000205482828151811061025857610257610b8b565b5b602002602001018181525050808061026f90610be9565b9150506101ba565b50600881818054806020026020016040519081016040528092919081815260200182805480156102fc57602002820191906000526020600020905b8160009054906101000a900473ffffffffffffffffffffffffffffffffffffffff1673ffffffffffffffffffffffffffffffffffffffff16815260200190600101908083116102b2575b5050505050915092509250509091565b600042905090565b426004541115610359576040517f08c379a000000000000000000000000000000000000000000000000000000000815260040161035090610c8e565b60405180910390fd5b60065460055410156104cc5760005b600880549050811015610490576000600160006008848154811061038f5761038e610b8b565b5b9060005260206000200160009054906101000a900473ffffffffffffffffffffffffffffffffffffffff1673ffffffffffffffffffffffffffffffffffffffff1673ffffffffffffffffffffffffffffffffffffffff1681526020019081526020016000205490506008828154811061040b5761040a610b8b565b5b9060005260206000200160009054906101000a900473ffffffffffffffffffffffffffffffffffffffff1673ffffffffffffffffffffffffffffffffffffffff166108fc829081150290604051600060405180830381858888f1935050505015801561047b573d6000803e3d6000fd5b5050808061048890610be9565b915050610368565b506040517f08c379a00000000000000000000000000000000000000000000000000000000081526004016104c390610cfa565b60405180910390fd5b6104d581610774565b6104de82610868565b5050565b6000339050600654600554106105c8576000600160008373ffffffffffffffffffffffffffffffffffffffff1673ffffffffffffffffffffffffffffffffffffffff1681526020019081526020016000205490506000600160008473ffffffffffffffffffffffffffffffffffffffff1673ffffffffffffffffffffffffffffffffffffffff168152602001908152602001600020819055508173ffffffffffffffffffffffffffffffffffffffff166108fc829081150290604051600060405180830381858888f193505050501580156105c1573d6000803e3d6000fd5b5050610603565b6040517f08c379a00000000000000000000000000000000000000000000000000000000081526004016105fa90610d66565b60405180910390fd5b50565b60003490506000810361064e576040517f08c379a000000000000000000000000000000000000000000000000000000000815260040161064590610dd2565b60405180910390fd5b60003390506008819080600181540180825580915050600190039060005260206000200160009091909190916101000a81548173ffffffffffffffffffffffffffffffffffffffff021916908373ffffffffffffffffffffffffffffffffffffffff16021790555081600160008373ffffffffffffffffffffffffffffffffffffffff1673ffffffffffffffffffffffffffffffffffffffff16815260200190815260200160002060008282546107059190610df2565b92505081905550816005600082825461071e9190610df2565b925050819055505050565b3373ffffffffffffffffffffffffffffffffffffffff166108fc6005549081150290604051600060405180830381858888f19350505050158015610771573d6000803e3d6000fd5b50565b6000339050600654600554101580156107d857508073ffffffffffffffffffffffffffffffffffffffff1660008054906101000a900473ffffffffffffffffffffffffffffffffffffffff1673ffffffffffffffffffffffffffffffffffffffff16145b15610829578073ffffffffffffffffffffffffffffffffffffffff166108fc839081150290604051600060405180830381858888f19350505050158015610823573d6000803e3d6000fd5b50610864565b6040517f08c379a000000000000000000000000000000000000000000000000000000000815260040161085b90610d66565b60405180910390fd5b5050565b7f000000000000000000000000000000000000000000000000000000000000000073ffffffffffffffffffffffffffffffffffffffff166108fc829081150290604051600060405180830381858888f193505050501580156108ce573d6000803e3d6000fd5b5050565b6000819050919050565b6108e5816108d2565b82525050565b600060208201905061090060008301846108dc565b92915050565b600081519050919050565b600082825260208201905092915050565b6000819050602082019050919050565b600073ffffffffffffffffffffffffffffffffffffffff82169050919050565b600061095d82610932565b9050919050565b61096d81610952565b82525050565b600061097f8383610964565b60208301905092915050565b6000602082019050919050565b60006109a382610906565b6109ad8185610911565b93506109b883610922565b8060005b838110156109e95781516109d08882610973565b97506109db8361098b565b9250506001810190506109bc565b5085935050505092915050565b600081519050919050565b600082825260208201905092915050565b6000819050602082019050919050565b610a2b816108d2565b82525050565b6000610a3d8383610a22565b60208301905092915050565b6000602082019050919050565b6000610a61826109f6565b610a6b8185610a01565b9350610a7683610a12565b8060005b83811015610aa7578151610a8e8882610a31565b9750610a9983610a49565b925050600181019050610a7a565b5085935050505092915050565b60006040820190508181036000830152610ace8185610998565b90508181036020830152610ae28184610a56565b90509392505050565b600080fd5b610af9816108d2565b8114610b0457600080fd5b50565b600081359050610b1681610af0565b92915050565b60008060408385031215610b3357610b32610aeb565b5b6000610b4185828601610b07565b9250506020610b5285828601610b07565b9150509250929050565b7f4e487b7100000000000000000000000000000000000000000000000000000000600052604160045260246000fd5b7f4e487b7100000000000000000000000000000000000000000000000000000000600052603260045260246000fd5b7f4e487b7100000000000000000000000000000000000000000000000000000000600052601160045260246000fd5b6000610bf4826108d2565b91507fffffffffffffffffffffffffffffffffffffffffffffffffffffffffffffffff8203610c2657610c25610bba565b5b600182019050919050565b600082825260208201905092915050565b7f43414d504149474e205354494c4c2052554e4e494e4700000000000000000000600082015250565b6000610c78601683610c31565b9150610c8382610c42565b602082019050919050565b60006020820190508181036000830152610ca781610c6b565b9050919050565b7f43414d504149474e204641494c45440000000000000000000000000000000000600082015250565b6000610ce4600f83610c31565b9150610cef82610cae565b602082019050919050565b60006020820190508181036000830152610d1381610cd7565b9050919050565b7f4e4f5420454e4f5547482046554e445320544f20574954484452415700000000600082015250565b6000610d50601c83610c31565b9150610d5b82610d1a565b602082019050919050565b60006020820190508181036000830152610d7f81610d43565b9050919050565b7f4e4f2046554e4453204154544143484544000000000000000000000000000000600082015250565b6000610dbc601183610c31565b9150610dc782610d86565b602082019050919050565b60006020820190508181036000830152610deb81610daf565b9050919050565b6000610dfd826108d2565b9150610e08836108d2565b9250828201905080821115610e2057610e1f610bba565b5b9291505056fea264697066735822122069553bd79f44910f31ac7558a1811c51639235808c7deda2ead5d4e5e470bc8164736f6c63430008120033",
		"opcodes": "PUSH1 0xA0 PUSH1 0x40 MSTORE PUSH20 0x5E4B7C08D32810282E1CB539E8B15173FB5E38C4 PUSH20 0xFFFFFFFFFFFFFFFFFFFFFFFFFFFFFFFFFFFFFFFF AND PUSH1 0x80 SWAP1 PUSH20 0xFFFFFFFFFFFFFFFFFFFFFFFFFFFFFFFFFFFFFFFF AND DUP2 MSTORE POP CALLVALUE DUP1 ISZERO PUSH3 0x58 JUMPI PUSH1 0x0 DUP1 REVERT JUMPDEST POP PUSH1 0x40 MLOAD PUSH3 0xFF7 CODESIZE SUB DUP1 PUSH3 0xFF7 DUP4 CODECOPY DUP2 DUP2 ADD PUSH1 0x40 MSTORE DUP2 ADD SWAP1 PUSH3 0x7E SWAP2 SWAP1 PUSH3 0x123 JUMP JUMPDEST CALLER PUSH1 0x0 DUP1 PUSH2 0x100 EXP DUP2 SLOAD DUP2 PUSH20 0xFFFFFFFFFFFFFFFFFFFFFFFFFFFFFFFFFFFFFFFF MUL NOT AND SWAP1 DUP4 PUSH20 0xFFFFFFFFFFFFFFFFFFFFFFFFFFFFFFFFFFFFFFFF AND MUL OR SWAP1 SSTORE POP DUP3 PUSH1 0x6 DUP2 SWAP1 SSTORE POP DUP2 PUSH1 0x7 DUP2 SWAP1 SSTORE POP TIMESTAMP PUSH1 0x3 DUP2 SWAP1 SSTORE POP DUP1 PUSH1 0x4 DUP2 SWAP1 SSTORE POP POP POP POP PUSH3 0x17F JUMP JUMPDEST PUSH1 0x0 DUP1 REVERT JUMPDEST PUSH1 0x0 DUP2 SWAP1 POP SWAP2 SWAP1 POP JUMP JUMPDEST PUSH3 0xFD DUP2 PUSH3 0xE8 JUMP JUMPDEST DUP2 EQ PUSH3 0x109 JUMPI PUSH1 0x0 DUP1 REVERT JUMPDEST POP JUMP JUMPDEST PUSH1 0x0 DUP2 MLOAD SWAP1 POP PUSH3 0x11D DUP2 PUSH3 0xF2 JUMP JUMPDEST SWAP3 SWAP2 POP POP JUMP JUMPDEST PUSH1 0x0 DUP1 PUSH1 0x0 PUSH1 0x60 DUP5 DUP7 SUB SLT ISZERO PUSH3 0x13F JUMPI PUSH3 0x13E PUSH3 0xE3 JUMP JUMPDEST JUMPDEST PUSH1 0x0 PUSH3 0x14F DUP7 DUP3 DUP8 ADD PUSH3 0x10C JUMP JUMPDEST SWAP4 POP POP PUSH1 0x20 PUSH3 0x162 DUP7 DUP3 DUP8 ADD PUSH3 0x10C JUMP JUMPDEST SWAP3 POP POP PUSH1 0x40 PUSH3 0x175 DUP7 DUP3 DUP8 ADD PUSH3 0x10C JUMP JUMPDEST SWAP2 POP POP SWAP3 POP SWAP3 POP SWAP3 JUMP JUMPDEST PUSH1 0x80 MLOAD PUSH2 0xE5C PUSH3 0x19B PUSH1 0x0 CODECOPY PUSH1 0x0 PUSH2 0x86A ADD MSTORE PUSH2 0xE5C PUSH1 0x0 RETURN INVALID PUSH1 0x80 PUSH1 0x40 MSTORE PUSH1 0x4 CALLDATASIZE LT PUSH2 0x70 JUMPI PUSH1 0x0 CALLDATALOAD PUSH1 0xE0 SHR DUP1 PUSH4 0xB9ECB28A GT PUSH2 0x4E JUMPI DUP1 PUSH4 0xB9ECB28A EQ PUSH2 0xF7 JUMPI DUP1 PUSH4 0xC228460C EQ PUSH2 0x120 JUMPI DUP1 PUSH4 0xE8B5E51F EQ PUSH2 0x137 JUMPI DUP1 PUSH4 0xEAD0C019 EQ PUSH2 0x141 JUMPI PUSH2 0x70 JUMP JUMPDEST DUP1 PUSH4 0x5CFB5FF5 EQ PUSH2 0x75 JUMPI DUP1 PUSH4 0x64D58439 EQ PUSH2 0xA0 JUMPI DUP1 PUSH4 0x8A6B607A EQ PUSH2 0xCC JUMPI JUMPDEST PUSH1 0x0 DUP1 REVERT JUMPDEST CALLVALUE DUP1 ISZERO PUSH2 0x81 JUMPI PUSH1 0x0 DUP1 REVERT JUMPDEST POP PUSH2 0x8A PUSH2 0x158 JUMP JUMPDEST PUSH1 0x40 MLOAD PUSH2 0x97 SWAP2 SWAP1 PUSH2 0x8EB JUMP JUMPDEST PUSH1 0x40 MLOAD DUP1 SWAP2 SUB SWAP1 RETURN JUMPDEST CALLVALUE DUP1 ISZERO PUSH2 0xAC JUMPI PUSH1 0x0 DUP1 REVERT JUMPDEST POP PUSH2 0xB5 PUSH2 0x162 JUMP JUMPDEST PUSH1 0x40 MLOAD PUSH2 0xC3 SWAP3 SWAP2 SWAP1 PUSH2 0xAB4 JUMP JUMPDEST PUSH1 0x40 MLOAD DUP1 SWAP2 SUB SWAP1 RETURN JUMPDEST CALLVALUE DUP1 ISZERO PUSH2 0xD8 JUMPI PUSH1 0x0 DUP1 REVERT JUMPDEST POP PUSH2 0xE1 PUSH2 0x30C JUMP JUMPDEST PUSH1 0x40 MLOAD PUSH2 0xEE SWAP2 SWAP1 PUSH2 0x8EB JUMP JUMPDEST PUSH1 0x40 MLOAD DUP1 SWAP2 SUB SWAP1 RETURN JUMPDEST CALLVALUE DUP1 ISZERO PUSH2 0x103 JUMPI PUSH1 0x0 DUP1 REVERT JUMPDEST POP PUSH2 0x11E PUSH1 0x4 DUP1 CALLDATASIZE SUB DUP2 ADD SWAP1 PUSH2 0x119 SWAP2 SWAP1 PUSH2 0xB1C JUMP JUMPDEST PUSH2 0x314 JUMP JUMPDEST STOP JUMPDEST CALLVALUE DUP1 ISZERO PUSH2 0x12C JUMPI PUSH1 0x0 DUP1 REVERT JUMPDEST POP PUSH2 0x135 PUSH2 0x4E2 JUMP JUMPDEST STOP JUMPDEST PUSH2 0x13F PUSH2 0x606 JUMP JUMPDEST STOP JUMPDEST CALLVALUE DUP1 ISZERO PUSH2 0x14D JUMPI PUSH1 0x0 DUP1 REVERT JUMPDEST POP PUSH2 0x156 PUSH2 0x729 JUMP JUMPDEST STOP JUMPDEST PUSH1 0x0 PUSH1 0x5 SLOAD SWAP1 POP SWAP1 JUMP JUMPDEST PUSH1 0x60 DUP1 PUSH1 0x0 PUSH1 0x8 DUP1 SLOAD SWAP1 POP PUSH8 0xFFFFFFFFFFFFFFFF DUP2 GT ISZERO PUSH2 0x186 JUMPI PUSH2 0x185 PUSH2 0xB5C JUMP JUMPDEST JUMPDEST PUSH1 0x40 MLOAD SWAP1 DUP1 DUP3 MSTORE DUP1 PUSH1 0x20 MUL PUSH1 0x20 ADD DUP3 ADD PUSH1 0x40 MSTORE DUP1 ISZERO PUSH2 0x1B4 JUMPI DUP2 PUSH1 0x20 ADD PUSH1 0x20 DUP3 MUL DUP1 CALLDATASIZE DUP4 CALLDATACOPY DUP1 DUP3 ADD SWAP2 POP POP SWAP1 POP JUMPDEST POP SWAP1 POP PUSH1 0x0 JUMPDEST PUSH1 0x8 DUP1 SLOAD SWAP1 POP DUP2 LT ISZERO PUSH2 0x277 JUMPI PUSH1 0x1 PUSH1 0x0 PUSH1 0x8 DUP4 DUP2 SLOAD DUP2 LT PUSH2 0x1DF JUMPI PUSH2 0x1DE PUSH2 0xB8B JUMP JUMPDEST JUMPDEST SWAP1 PUSH1 0x0 MSTORE PUSH1 0x20 PUSH1 0x0 KECCAK256 ADD PUSH1 0x0 SWAP1 SLOAD SWAP1 PUSH2 0x100 EXP SWAP1 DIV PUSH20 0xFFFFFFFFFFFFFFFFFFFFFFFFFFFFFFFFFFFFFFFF AND PUSH20 0xFFFFFFFFFFFFFFFFFFFFFFFFFFFFFFFFFFFFFFFF AND PUSH20 0xFFFFFFFFFFFFFFFFFFFFFFFFFFFFFFFFFFFFFFFF AND DUP2 MSTORE PUSH1 0x20 ADD SWAP1 DUP2 MSTORE PUSH1 0x20 ADD PUSH1 0x0 KECCAK256 SLOAD DUP3 DUP3 DUP2 MLOAD DUP2 LT PUSH2 0x258 JUMPI PUSH2 0x257 PUSH2 0xB8B JUMP JUMPDEST JUMPDEST PUSH1 0x20 MUL PUSH1 0x20 ADD ADD DUP2 DUP2 MSTORE POP POP DUP1 DUP1 PUSH2 0x26F SWAP1 PUSH2 0xBE9 JUMP JUMPDEST SWAP2 POP POP PUSH2 0x1BA JUMP JUMPDEST POP PUSH1 0x8 DUP2 DUP2 DUP1 SLOAD DUP1 PUSH1 0x20 MUL PUSH1 0x20 ADD PUSH1 0x40 MLOAD SWAP1 DUP2 ADD PUSH1 0x40 MSTORE DUP1 SWAP3 SWAP2 SWAP1 DUP2 DUP2 MSTORE PUSH1 0x20 ADD DUP3 DUP1 SLOAD DUP1 ISZERO PUSH2 0x2FC JUMPI PUSH1 0x20 MUL DUP3 ADD SWAP2 SWAP1 PUSH1 0x0 MSTORE PUSH1 0x20 PUSH1 0x0 KECCAK256 SWAP1 JUMPDEST DUP2 PUSH1 0x0 SWAP1 SLOAD SWAP1 PUSH2 0x100 EXP SWAP1 DIV PUSH20 0xFFFFFFFFFFFFFFFFFFFFFFFFFFFFFFFFFFFFFFFF AND PUSH20 0xFFFFFFFFFFFFFFFFFFFFFFFFFFFFFFFFFFFFFFFF AND DUP2 MSTORE PUSH1 0x20 ADD SWAP1 PUSH1 0x1 ADD SWAP1 DUP1 DUP4 GT PUSH2 0x2B2 JUMPI JUMPDEST POP POP POP POP POP SWAP2 POP SWAP3 POP SWAP3 POP POP SWAP1 SWAP2 JUMP JUMPDEST PUSH1 0x0 TIMESTAMP SWAP1 POP SWAP1 JUMP JUMPDEST TIMESTAMP PUSH1 0x4 SLOAD GT ISZERO PUSH2 0x359 JUMPI PUSH1 0x40 MLOAD PUSH32 0x8C379A000000000000000000000000000000000000000000000000000000000 DUP2 MSTORE PUSH1 0x4 ADD PUSH2 0x350 SWAP1 PUSH2 0xC8E JUMP JUMPDEST PUSH1 0x40 MLOAD DUP1 SWAP2 SUB SWAP1 REVERT JUMPDEST PUSH1 0x6 SLOAD PUSH1 0x5 SLOAD LT ISZERO PUSH2 0x4CC JUMPI PUSH1 0x0 JUMPDEST PUSH1 0x8 DUP1 SLOAD SWAP1 POP DUP2 LT ISZERO PUSH2 0x490 JUMPI PUSH1 0x0 PUSH1 0x1 PUSH1 0x0 PUSH1 0x8 DUP5 DUP2 SLOAD DUP2 LT PUSH2 0x38F JUMPI PUSH2 0x38E PUSH2 0xB8B JUMP JUMPDEST JUMPDEST SWAP1 PUSH1 0x0 MSTORE PUSH1 0x20 PUSH1 0x0 KECCAK256 ADD PUSH1 0x0 SWAP1 SLOAD SWAP1 PUSH2 0x100 EXP SWAP1 DIV PUSH20 0xFFFFFFFFFFFFFFFFFFFFFFFFFFFFFFFFFFFFFFFF AND PUSH20 0xFFFFFFFFFFFFFFFFFFFFFFFFFFFFFFFFFFFFFFFF AND PUSH20 0xFFFFFFFFFFFFFFFFFFFFFFFFFFFFFFFFFFFFFFFF AND DUP2 MSTORE PUSH1 0x20 ADD SWAP1 DUP2 MSTORE PUSH1 0x20 ADD PUSH1 0x0 KECCAK256 SLOAD SWAP1 POP PUSH1 0x8 DUP3 DUP2 SLOAD DUP2 LT PUSH2 0x40B JUMPI PUSH2 0x40A PUSH2 0xB8B JUMP JUMPDEST JUMPDEST SWAP1 PUSH1 0x0 MSTORE PUSH1 0x20 PUSH1 0x0 KECCAK256 ADD PUSH1 0x0 SWAP1 SLOAD SWAP1 PUSH2 0x100 EXP SWAP1 DIV PUSH20 0xFFFFFFFFFFFFFFFFFFFFFFFFFFFFFFFFFFFFFFFF AND PUSH20 0xFFFFFFFFFFFFFFFFFFFFFFFFFFFFFFFFFFFFFFFF AND PUSH2 0x8FC DUP3 SWAP1 DUP2 ISZERO MUL SWAP1 PUSH1 0x40 MLOAD PUSH1 0x0 PUSH1 0x40 MLOAD DUP1 DUP4 SUB DUP2 DUP6 DUP9 DUP9 CALL SWAP4 POP POP POP POP ISZERO DUP1 ISZERO PUSH2 0x47B JUMPI RETURNDATASIZE PUSH1 0x0 DUP1 RETURNDATACOPY RETURNDATASIZE PUSH1 0x0 REVERT JUMPDEST POP POP DUP1 DUP1 PUSH2 0x488 SWAP1 PUSH2 0xBE9 JUMP JUMPDEST SWAP2 POP POP PUSH2 0x368 JUMP JUMPDEST POP PUSH1 0x40 MLOAD PUSH32 0x8C379A000000000000000000000000000000000000000000000000000000000 DUP2 MSTORE PUSH1 0x4 ADD PUSH2 0x4C3 SWAP1 PUSH2 0xCFA JUMP JUMPDEST PUSH1 0x40 MLOAD DUP1 SWAP2 SUB SWAP1 REVERT JUMPDEST PUSH2 0x4D5 DUP2 PUSH2 0x774 JUMP JUMPDEST PUSH2 0x4DE DUP3 PUSH2 0x868 JUMP JUMPDEST POP POP JUMP JUMPDEST PUSH1 0x0 CALLER SWAP1 POP PUSH1 0x6 SLOAD PUSH1 0x5 SLOAD LT PUSH2 0x5C8 JUMPI PUSH1 0x0 PUSH1 0x1 PUSH1 0x0 DUP4 PUSH20 0xFFFFFFFFFFFFFFFFFFFFFFFFFFFFFFFFFFFFFFFF AND PUSH20 0xFFFFFFFFFFFFFFFFFFFFFFFFFFFFFFFFFFFFFFFF AND DUP2 MSTORE PUSH1 0x20 ADD SWAP1 DUP2 MSTORE PUSH1 0x20 ADD PUSH1 0x0 KECCAK256 SLOAD SWAP1 POP PUSH1 0x0 PUSH1 0x1 PUSH1 0x0 DUP5 PUSH20 0xFFFFFFFFFFFFFFFFFFFFFFFFFFFFFFFFFFFFFFFF AND PUSH20 0xFFFFFFFFFFFFFFFFFFFFFFFFFFFFFFFFFFFFFFFF AND DUP2 MSTORE PUSH1 0x20 ADD SWAP1 DUP2 MSTORE PUSH1 0x20 ADD PUSH1 0x0 KECCAK256 DUP2 SWAP1 SSTORE POP DUP2 PUSH20 0xFFFFFFFFFFFFFFFFFFFFFFFFFFFFFFFFFFFFFFFF AND PUSH2 0x8FC DUP3 SWAP1 DUP2 ISZERO MUL SWAP1 PUSH1 0x40 MLOAD PUSH1 0x0 PUSH1 0x40 MLOAD DUP1 DUP4 SUB DUP2 DUP6 DUP9 DUP9 CALL SWAP4 POP POP POP POP ISZERO DUP1 ISZERO PUSH2 0x5C1 JUMPI RETURNDATASIZE PUSH1 0x0 DUP1 RETURNDATACOPY RETURNDATASIZE PUSH1 0x0 REVERT JUMPDEST POP POP PUSH2 0x603 JUMP JUMPDEST PUSH1 0x40 MLOAD PUSH32 0x8C379A000000000000000000000000000000000000000000000000000000000 DUP2 MSTORE PUSH1 0x4 ADD PUSH2 0x5FA SWAP1 PUSH2 0xD66 JUMP JUMPDEST PUSH1 0x40 MLOAD DUP1 SWAP2 SUB SWAP1 REVERT JUMPDEST POP JUMP JUMPDEST PUSH1 0x0 CALLVALUE SWAP1 POP PUSH1 0x0 DUP2 SUB PUSH2 0x64E JUMPI PUSH1 0x40 MLOAD PUSH32 0x8C379A000000000000000000000000000000000000000000000000000000000 DUP2 MSTORE PUSH1 0x4 ADD PUSH2 0x645 SWAP1 PUSH2 0xDD2 JUMP JUMPDEST PUSH1 0x40 MLOAD DUP1 SWAP2 SUB SWAP1 REVERT JUMPDEST PUSH1 0x0 CALLER SWAP1 POP PUSH1 0x8 DUP2 SWAP1 DUP1 PUSH1 0x1 DUP2 SLOAD ADD DUP1 DUP3 SSTORE DUP1 SWAP2 POP POP PUSH1 0x1 SWAP1 SUB SWAP1 PUSH1 0x0 MSTORE PUSH1 0x20 PUSH1 0x0 KECCAK256 ADD PUSH1 0x0 SWAP1 SWAP2 SWAP1 SWAP2 SWAP1 SWAP2 PUSH2 0x100 EXP DUP2 SLOAD DUP2 PUSH20 0xFFFFFFFFFFFFFFFFFFFFFFFFFFFFFFFFFFFFFFFF MUL NOT AND SWAP1 DUP4 PUSH20 0xFFFFFFFFFFFFFFFFFFFFFFFFFFFFFFFFFFFFFFFF AND MUL OR SWAP1 SSTORE POP DUP2 PUSH1 0x1 PUSH1 0x0 DUP4 PUSH20 0xFFFFFFFFFFFFFFFFFFFFFFFFFFFFFFFFFFFFFFFF AND PUSH20 0xFFFFFFFFFFFFFFFFFFFFFFFFFFFFFFFFFFFFFFFF AND DUP2 MSTORE PUSH1 0x20 ADD SWAP1 DUP2 MSTORE PUSH1 0x20 ADD PUSH1 0x0 KECCAK256 PUSH1 0x0 DUP3 DUP3 SLOAD PUSH2 0x705 SWAP2 SWAP1 PUSH2 0xDF2 JUMP JUMPDEST SWAP3 POP POP DUP2 SWAP1 SSTORE POP DUP2 PUSH1 0x5 PUSH1 0x0 DUP3 DUP3 SLOAD PUSH2 0x71E SWAP2 SWAP1 PUSH2 0xDF2 JUMP JUMPDEST SWAP3 POP POP DUP2 SWAP1 SSTORE POP POP POP JUMP JUMPDEST CALLER PUSH20 0xFFFFFFFFFFFFFFFFFFFFFFFFFFFFFFFFFFFFFFFF AND PUSH2 0x8FC PUSH1 0x5 SLOAD SWAP1 DUP2 ISZERO MUL SWAP1 PUSH1 0x40 MLOAD PUSH1 0x0 PUSH1 0x40 MLOAD DUP1 DUP4 SUB DUP2 DUP6 DUP9 DUP9 CALL SWAP4 POP POP POP POP ISZERO DUP1 ISZERO PUSH2 0x771 JUMPI RETURNDATASIZE PUSH1 0x0 DUP1 RETURNDATACOPY RETURNDATASIZE PUSH1 0x0 REVERT JUMPDEST POP JUMP JUMPDEST PUSH1 0x0 CALLER SWAP1 POP PUSH1 0x6 SLOAD PUSH1 0x5 SLOAD LT ISZERO DUP1 ISZERO PUSH2 0x7D8 JUMPI POP DUP1 PUSH20 0xFFFFFFFFFFFFFFFFFFFFFFFFFFFFFFFFFFFFFFFF AND PUSH1 0x0 DUP1 SLOAD SWAP1 PUSH2 0x100 EXP SWAP1 DIV PUSH20 0xFFFFFFFFFFFFFFFFFFFFFFFFFFFFFFFFFFFFFFFF AND PUSH20 0xFFFFFFFFFFFFFFFFFFFFFFFFFFFFFFFFFFFFFFFF AND EQ JUMPDEST ISZERO PUSH2 0x829 JUMPI DUP1 PUSH20 0xFFFFFFFFFFFFFFFFFFFFFFFFFFFFFFFFFFFFFFFF AND PUSH2 0x8FC DUP4 SWAP1 DUP2 ISZERO MUL SWAP1 PUSH1 0x40 MLOAD PUSH1 0x0 PUSH1 0x40 MLOAD DUP1 DUP4 SUB DUP2 DUP6 DUP9 DUP9 CALL SWAP4 POP POP POP POP ISZERO DUP1 ISZERO PUSH2 0x823 JUMPI RETURNDATASIZE PUSH1 0x0 DUP1 RETURNDATACOPY RETURNDATASIZE PUSH1 0x0 REVERT JUMPDEST POP PUSH2 0x864 JUMP JUMPDEST PUSH1 0x40 MLOAD PUSH32 0x8C379A000000000000000000000000000000000000000000000000000000000 DUP2 MSTORE PUSH1 0x4 ADD PUSH2 0x85B SWAP1 PUSH2 0xD66 JUMP JUMPDEST PUSH1 0x40 MLOAD DUP1 SWAP2 SUB SWAP1 REVERT JUMPDEST POP POP JUMP JUMPDEST PUSH32 0x0 PUSH20 0xFFFFFFFFFFFFFFFFFFFFFFFFFFFFFFFFFFFFFFFF AND PUSH2 0x8FC DUP3 SWAP1 DUP2 ISZERO MUL SWAP1 PUSH1 0x40 MLOAD PUSH1 0x0 PUSH1 0x40 MLOAD DUP1 DUP4 SUB DUP2 DUP6 DUP9 DUP9 CALL SWAP4 POP POP POP POP ISZERO DUP1 ISZERO PUSH2 0x8CE JUMPI RETURNDATASIZE PUSH1 0x0 DUP1 RETURNDATACOPY RETURNDATASIZE PUSH1 0x0 REVERT JUMPDEST POP POP JUMP JUMPDEST PUSH1 0x0 DUP2 SWAP1 POP SWAP2 SWAP1 POP JUMP JUMPDEST PUSH2 0x8E5 DUP2 PUSH2 0x8D2 JUMP JUMPDEST DUP3 MSTORE POP POP JUMP JUMPDEST PUSH1 0x0 PUSH1 0x20 DUP3 ADD SWAP1 POP PUSH2 0x900 PUSH1 0x0 DUP4 ADD DUP5 PUSH2 0x8DC JUMP JUMPDEST SWAP3 SWAP2 POP POP JUMP JUMPDEST PUSH1 0x0 DUP2 MLOAD SWAP1 POP SWAP2 SWAP1 POP JUMP JUMPDEST PUSH1 0x0 DUP3 DUP3 MSTORE PUSH1 0x20 DUP3 ADD SWAP1 POP SWAP3 SWAP2 POP POP JUMP JUMPDEST PUSH1 0x0 DUP2 SWAP1 POP PUSH1 0x20 DUP3 ADD SWAP1 POP SWAP2 SWAP1 POP JUMP JUMPDEST PUSH1 0x0 PUSH20 0xFFFFFFFFFFFFFFFFFFFFFFFFFFFFFFFFFFFFFFFF DUP3 AND SWAP1 POP SWAP2 SWAP1 POP JUMP JUMPDEST PUSH1 0x0 PUSH2 0x95D DUP3 PUSH2 0x932 JUMP JUMPDEST SWAP1 POP SWAP2 SWAP1 POP JUMP JUMPDEST PUSH2 0x96D DUP2 PUSH2 0x952 JUMP JUMPDEST DUP3 MSTORE POP POP JUMP JUMPDEST PUSH1 0x0 PUSH2 0x97F DUP4 DUP4 PUSH2 0x964 JUMP JUMPDEST PUSH1 0x20 DUP4 ADD SWAP1 POP SWAP3 SWAP2 POP POP JUMP JUMPDEST PUSH1 0x0 PUSH1 0x20 DUP3 ADD SWAP1 POP SWAP2 SWAP1 POP JUMP JUMPDEST PUSH1 0x0 PUSH2 0x9A3 DUP3 PUSH2 0x906 JUMP JUMPDEST PUSH2 0x9AD DUP2 DUP6 PUSH2 0x911 JUMP JUMPDEST SWAP4 POP PUSH2 0x9B8 DUP4 PUSH2 0x922 JUMP JUMPDEST DUP1 PUSH1 0x0 JUMPDEST DUP4 DUP2 LT ISZERO PUSH2 0x9E9 JUMPI DUP2 MLOAD PUSH2 0x9D0 DUP9 DUP3 PUSH2 0x973 JUMP JUMPDEST SWAP8 POP PUSH2 0x9DB DUP4 PUSH2 0x98B JUMP JUMPDEST SWAP3 POP POP PUSH1 0x1 DUP2 ADD SWAP1 POP PUSH2 0x9BC JUMP JUMPDEST POP DUP6 SWAP4 POP POP POP POP SWAP3 SWAP2 POP POP JUMP JUMPDEST PUSH1 0x0 DUP2 MLOAD SWAP1 POP SWAP2 SWAP1 POP JUMP JUMPDEST PUSH1 0x0 DUP3 DUP3 MSTORE PUSH1 0x20 DUP3 ADD SWAP1 POP SWAP3 SWAP2 POP POP JUMP JUMPDEST PUSH1 0x0 DUP2 SWAP1 POP PUSH1 0x20 DUP3 ADD SWAP1 POP SWAP2 SWAP1 POP JUMP JUMPDEST PUSH2 0xA2B DUP2 PUSH2 0x8D2 JUMP JUMPDEST DUP3 MSTORE POP POP JUMP JUMPDEST PUSH1 0x0 PUSH2 0xA3D DUP4 DUP4 PUSH2 0xA22 JUMP JUMPDEST PUSH1 0x20 DUP4 ADD SWAP1 POP SWAP3 SWAP2 POP POP JUMP JUMPDEST PUSH1 0x0 PUSH1 0x20 DUP3 ADD SWAP1 POP SWAP2 SWAP1 POP JUMP JUMPDEST PUSH1 0x0 PUSH2 0xA61 DUP3 PUSH2 0x9F6 JUMP JUMPDEST PUSH2 0xA6B DUP2 DUP6 PUSH2 0xA01 JUMP JUMPDEST SWAP4 POP PUSH2 0xA76 DUP4 PUSH2 0xA12 JUMP JUMPDEST DUP1 PUSH1 0x0 JUMPDEST DUP4 DUP2 LT ISZERO PUSH2 0xAA7 JUMPI DUP2 MLOAD PUSH2 0xA8E DUP9 DUP3 PUSH2 0xA31 JUMP JUMPDEST SWAP8 POP PUSH2 0xA99 DUP4 PUSH2 0xA49 JUMP JUMPDEST SWAP3 POP POP PUSH1 0x1 DUP2 ADD SWAP1 POP PUSH2 0xA7A JUMP JUMPDEST POP DUP6 SWAP4 POP POP POP POP SWAP3 SWAP2 POP POP JUMP JUMPDEST PUSH1 0x0 PUSH1 0x40 DUP3 ADD SWAP1 POP DUP2 DUP2 SUB PUSH1 0x0 DUP4 ADD MSTORE PUSH2 0xACE DUP2 DUP6 PUSH2 0x998 JUMP JUMPDEST SWAP1 POP DUP2 DUP2 SUB PUSH1 0x20 DUP4 ADD MSTORE PUSH2 0xAE2 DUP2 DUP5 PUSH2 0xA56 JUMP JUMPDEST SWAP1 POP SWAP4 SWAP3 POP POP POP JUMP JUMPDEST PUSH1 0x0 DUP1 REVERT JUMPDEST PUSH2 0xAF9 DUP2 PUSH2 0x8D2 JUMP JUMPDEST DUP2 EQ PUSH2 0xB04 JUMPI PUSH1 0x0 DUP1 REVERT JUMPDEST POP JUMP JUMPDEST PUSH1 0x0 DUP2 CALLDATALOAD SWAP1 POP PUSH2 0xB16 DUP2 PUSH2 0xAF0 JUMP JUMPDEST SWAP3 SWAP2 POP POP JUMP JUMPDEST PUSH1 0x0 DUP1 PUSH1 0x40 DUP4 DUP6 SUB SLT ISZERO PUSH2 0xB33 JUMPI PUSH2 0xB32 PUSH2 0xAEB JUMP JUMPDEST JUMPDEST PUSH1 0x0 PUSH2 0xB41 DUP6 DUP3 DUP7 ADD PUSH2 0xB07 JUMP JUMPDEST SWAP3 POP POP PUSH1 0x20 PUSH2 0xB52 DUP6 DUP3 DUP7 ADD PUSH2 0xB07 JUMP JUMPDEST SWAP2 POP POP SWAP3 POP SWAP3 SWAP1 POP JUMP JUMPDEST PUSH32 0x4E487B7100000000000000000000000000000000000000000000000000000000 PUSH1 0x0 MSTORE PUSH1 0x41 PUSH1 0x4 MSTORE PUSH1 0x24 PUSH1 0x0 REVERT JUMPDEST PUSH32 0x4E487B7100000000000000000000000000000000000000000000000000000000 PUSH1 0x0 MSTORE PUSH1 0x32 PUSH1 0x4 MSTORE PUSH1 0x24 PUSH1 0x0 REVERT JUMPDEST PUSH32 0x4E487B7100000000000000000000000000000000000000000000000000000000 PUSH1 0x0 MSTORE PUSH1 0x11 PUSH1 0x4 MSTORE PUSH1 0x24 PUSH1 0x0 REVERT JUMPDEST PUSH1 0x0 PUSH2 0xBF4 DUP3 PUSH2 0x8D2 JUMP JUMPDEST SWAP2 POP PUSH32 0xFFFFFFFFFFFFFFFFFFFFFFFFFFFFFFFFFFFFFFFFFFFFFFFFFFFFFFFFFFFFFFFF DUP3 SUB PUSH2 0xC26 JUMPI PUSH2 0xC25 PUSH2 0xBBA JUMP JUMPDEST JUMPDEST PUSH1 0x1 DUP3 ADD SWAP1 POP SWAP2 SWAP1 POP JUMP JUMPDEST PUSH1 0x0 DUP3 DUP3 MSTORE PUSH1 0x20 DUP3 ADD SWAP1 POP SWAP3 SWAP2 POP POP JUMP JUMPDEST PUSH32 0x43414D504149474E205354494C4C2052554E4E494E4700000000000000000000 PUSH1 0x0 DUP3 ADD MSTORE POP JUMP JUMPDEST PUSH1 0x0 PUSH2 0xC78 PUSH1 0x16 DUP4 PUSH2 0xC31 JUMP JUMPDEST SWAP2 POP PUSH2 0xC83 DUP3 PUSH2 0xC42 JUMP JUMPDEST PUSH1 0x20 DUP3 ADD SWAP1 POP SWAP2 SWAP1 POP JUMP JUMPDEST PUSH1 0x0 PUSH1 0x20 DUP3 ADD SWAP1 POP DUP2 DUP2 SUB PUSH1 0x0 DUP4 ADD MSTORE PUSH2 0xCA7 DUP2 PUSH2 0xC6B JUMP JUMPDEST SWAP1 POP SWAP2 SWAP1 POP JUMP JUMPDEST PUSH32 0x43414D504149474E204641494C45440000000000000000000000000000000000 PUSH1 0x0 DUP3 ADD MSTORE POP JUMP JUMPDEST PUSH1 0x0 PUSH2 0xCE4 PUSH1 0xF DUP4 PUSH2 0xC31 JUMP JUMPDEST SWAP2 POP PUSH2 0xCEF DUP3 PUSH2 0xCAE JUMP JUMPDEST PUSH1 0x20 DUP3 ADD SWAP1 POP SWAP2 SWAP1 POP JUMP JUMPDEST PUSH1 0x0 PUSH1 0x20 DUP3 ADD SWAP1 POP DUP2 DUP2 SUB PUSH1 0x0 DUP4 ADD MSTORE PUSH2 0xD13 DUP2 PUSH2 0xCD7 JUMP JUMPDEST SWAP1 POP SWAP2 SWAP1 POP JUMP JUMPDEST PUSH32 0x4E4F5420454E4F5547482046554E445320544F20574954484452415700000000 PUSH1 0x0 DUP3 ADD MSTORE POP JUMP JUMPDEST PUSH1 0x0 PUSH2 0xD50 PUSH1 0x1C DUP4 PUSH2 0xC31 JUMP JUMPDEST SWAP2 POP PUSH2 0xD5B DUP3 PUSH2 0xD1A JUMP JUMPDEST PUSH1 0x20 DUP3 ADD SWAP1 POP SWAP2 SWAP1 POP JUMP JUMPDEST PUSH1 0x0 PUSH1 0x20 DUP3 ADD SWAP1 POP DUP2 DUP2 SUB PUSH1 0x0 DUP4 ADD MSTORE PUSH2 0xD7F DUP2 PUSH2 0xD43 JUMP JUMPDEST SWAP1 POP SWAP2 SWAP1 POP JUMP JUMPDEST PUSH32 0x4E4F2046554E4453204154544143484544000000000000000000000000000000 PUSH1 0x0 DUP3 ADD MSTORE POP JUMP JUMPDEST PUSH1 0x0 PUSH2 0xDBC PUSH1 0x11 DUP4 PUSH2 0xC31 JUMP JUMPDEST SWAP2 POP PUSH2 0xDC7 DUP3 PUSH2 0xD86 JUMP JUMPDEST PUSH1 0x20 DUP3 ADD SWAP1 POP SWAP2 SWAP1 POP JUMP JUMPDEST PUSH1 0x0 PUSH1 0x20 DUP3 ADD SWAP1 POP DUP2 DUP2 SUB PUSH1 0x0 DUP4 ADD MSTORE PUSH2 0xDEB DUP2 PUSH2 0xDAF JUMP JUMPDEST SWAP1 POP SWAP2 SWAP1 POP JUMP JUMPDEST PUSH1 0x0 PUSH2 0xDFD DUP3 PUSH2 0x8D2 JUMP JUMPDEST SWAP2 POP PUSH2 0xE08 DUP4 PUSH2 0x8D2 JUMP JUMPDEST SWAP3 POP DUP3 DUP3 ADD SWAP1 POP DUP1 DUP3 GT ISZERO PUSH2 0xE20 JUMPI PUSH2 0xE1F PUSH2 0xBBA JUMP JUMPDEST JUMPDEST SWAP3 SWAP2 POP POP JUMP INVALID LOG2 PUSH5 0x6970667358 0x22 SLT KECCAK256 PUSH10 0x553BD79F44910F31AC75 PC LOG1 DUP2 SHR MLOAD PUSH4 0x9235808C PUSH30 0xEDA2EAD5D4E5E470BC8164736F6C63430008120033000000000000000000 "
	},
	"abi": [
		{
			"inputs": [
				{
					"internalType": "uint256",
					"name": "_investmentGoal",
					"type": "uint256"
				},
				{
					"internalType": "uint256",
					"name": "_sharePercentage",
					"type": "uint256"
				},
				{
					"internalType": "uint256",
					"name": "_endTime",
					"type": "uint256"
				}
			],
			"stateMutability": "nonpayable",
			"type": "constructor"
		},
		{
			"inputs": [
				{
					"internalType": "uint256",
					"name": "commission",
					"type": "uint256"
				},
				{
					"internalType": "uint256",
					"name": "finalAmount",
					"type": "uint256"
				}
			],
			"name": "finishStartup",
			"outputs": [],
			"stateMutability": "nonpayable",
			"type": "function"
		},
		{
			"inputs": [],
			"name": "invest",
			"outputs": [],
			"stateMutability": "payable",
			"type": "function"
		},
		{
			"inputs": [],
			"name": "showAmount",
			"outputs": [
				{
					"internalType": "uint256",
					"name": "",
					"type": "uint256"
				}
			],
			"stateMutability": "view",
			"type": "function"
		},
		{
			"inputs": [],
			"name": "showInvestors",
			"outputs": [
				{
					"internalType": "address[]",
					"name": "",
					"type": "address[]"
				},
				{
					"internalType": "uint256[]",
					"name": "",
					"type": "uint256[]"
				}
			],
			"stateMutability": "view",
			"type": "function"
		},
		{
			"inputs": [],
			"name": "showTime",
			"outputs": [
				{
					"internalType": "uint256",
					"name": "",
					"type": "uint256"
				}
			],
			"stateMutability": "view",
			"type": "function"
		},
		{
			"inputs": [],
			"name": "withdrawInvestor",
			"outputs": [],
			"stateMutability": "nonpayable",
			"type": "function"
		},
		{
			"inputs": [],
			"name": "withdrawTest",
			"outputs": [],
			"stateMutability": "nonpayable",
			"type": "function"
		}
	],
	"storageLayout": {
		"storage": [
			{
				"astId": 11,
				"contract": "contracts/InvestmentSmartContract.sol:InvestmentSmartContract",
				"label": "startupOwner",
				"offset": 0,
				"slot": "0",
				"type": "t_address"
			},
			{
				"astId": 15,
				"contract": "contracts/InvestmentSmartContract.sol:InvestmentSmartContract",
				"label": "investorsBalances",
				"offset": 0,
				"slot": "1",
				"type": "t_mapping(t_address,t_uint256)"
			},
			{
				"astId": 19,
				"contract": "contracts/InvestmentSmartContract.sol:InvestmentSmartContract",
				"label": "investorsPercentages",
				"offset": 0,
				"slot": "2",
				"type": "t_mapping(t_address,t_uint256)"
			},
			{
				"astId": 21,
				"contract": "contracts/InvestmentSmartContract.sol:InvestmentSmartContract",
				"label": "startTime",
				"offset": 0,
				"slot": "3",
				"type": "t_uint256"
			},
			{
				"astId": 23,
				"contract": "contracts/InvestmentSmartContract.sol:InvestmentSmartContract",
				"label": "endTime",
				"offset": 0,
				"slot": "4",
				"type": "t_uint256"
			},
			{
				"astId": 25,
				"contract": "contracts/InvestmentSmartContract.sol:InvestmentSmartContract",
				"label": "tokensCollected",
				"offset": 0,
				"slot": "5",
				"type": "t_uint256"
			},
			{
				"astId": 27,
				"contract": "contracts/InvestmentSmartContract.sol:InvestmentSmartContract",
				"label": "investmentGoal",
				"offset": 0,
				"slot": "6",
				"type": "t_uint256"
			},
			{
				"astId": 29,
				"contract": "contracts/InvestmentSmartContract.sol:InvestmentSmartContract",
				"label": "sharePercentage",
				"offset": 0,
				"slot": "7",
				"type": "t_uint256"
			},
			{
				"astId": 32,
				"contract": "contracts/InvestmentSmartContract.sol:InvestmentSmartContract",
				"label": "investorsList",
				"offset": 0,
				"slot": "8",
				"type": "t_array(t_address)dyn_storage"
			}
		],
		"types": {
			"t_address": {
				"encoding": "inplace",
				"label": "address",
				"numberOfBytes": "20"
			},
			"t_array(t_address)dyn_storage": {
				"base": "t_address",
				"encoding": "dynamic_array",
				"label": "address[]",
				"numberOfBytes": "32"
			},
			"t_mapping(t_address,t_uint256)": {
				"encoding": "mapping",
				"key": "t_address",
				"label": "mapping(address => uint256)",
				"numberOfBytes": "32",
				"value": "t_uint256"
			},
			"t_uint256": {
				"encoding": "inplace",
				"label": "uint256",
				"numberOfBytes": "32"
			}
		}
	},
	"web3Deploy": "var _investmentGoal = /* var of type uint256 here */ ;\nvar _sharePercentage = /* var of type uint256 here */ ;\nvar _endTime = /* var of type uint256 here */ ;\nvar investmentsmartcontractContract = new web3.eth.Contract([{\"inputs\":[{\"internalType\":\"uint256\",\"name\":\"_investmentGoal\",\"type\":\"uint256\"},{\"internalType\":\"uint256\",\"name\":\"_sharePercentage\",\"type\":\"uint256\"},{\"internalType\":\"uint256\",\"name\":\"_endTime\",\"type\":\"uint256\"}],\"stateMutability\":\"nonpayable\",\"type\":\"constructor\"},{\"inputs\":[{\"internalType\":\"uint256\",\"name\":\"commission\",\"type\":\"uint256\"},{\"internalType\":\"uint256\",\"name\":\"finalAmount\",\"type\":\"uint256\"}],\"name\":\"finishStartup\",\"outputs\":[],\"stateMutability\":\"nonpayable\",\"type\":\"function\"},{\"inputs\":[],\"name\":\"invest\",\"outputs\":[],\"stateMutability\":\"payable\",\"type\":\"function\"},{\"inputs\":[],\"name\":\"showAmount\",\"outputs\":[{\"internalType\":\"uint256\",\"name\":\"\",\"type\":\"uint256\"}],\"stateMutability\":\"view\",\"type\":\"function\"},{\"inputs\":[],\"name\":\"showInvestors\",\"outputs\":[{\"internalType\":\"address[]\",\"name\":\"\",\"type\":\"address[]\"},{\"internalType\":\"uint256[]\",\"name\":\"\",\"type\":\"uint256[]\"}],\"stateMutability\":\"view\",\"type\":\"function\"},{\"inputs\":[],\"name\":\"showTime\",\"outputs\":[{\"internalType\":\"uint256\",\"name\":\"\",\"type\":\"uint256\"}],\"stateMutability\":\"view\",\"type\":\"function\"},{\"inputs\":[],\"name\":\"withdrawInvestor\",\"outputs\":[],\"stateMutability\":\"nonpayable\",\"type\":\"function\"},{\"inputs\":[],\"name\":\"withdrawTest\",\"outputs\":[],\"stateMutability\":\"nonpayable\",\"type\":\"function\"}]);\nvar investmentsmartcontract = investmentsmartcontractContract.deploy({\n     data: '0x60a0604052735e4b7c08d32810282e1cb539e8b15173fb5e38c473ffffffffffffffffffffffffffffffffffffffff1660809073ffffffffffffffffffffffffffffffffffffffff168152503480156200005857600080fd5b5060405162000ff738038062000ff783398181016040528101906200007e919062000123565b336000806101000a81548173ffffffffffffffffffffffffffffffffffffffff021916908373ffffffffffffffffffffffffffffffffffffffff160217905550826006819055508160078190555042600381905550806004819055505050506200017f565b600080fd5b6000819050919050565b620000fd81620000e8565b81146200010957600080fd5b50565b6000815190506200011d81620000f2565b92915050565b6000806000606084860312156200013f576200013e620000e3565b5b60006200014f868287016200010c565b935050602062000162868287016200010c565b925050604062000175868287016200010c565b9150509250925092565b608051610e5c6200019b600039600061086a0152610e5c6000f3fe6080604052600436106100705760003560e01c8063b9ecb28a1161004e578063b9ecb28a146100f7578063c228460c14610120578063e8b5e51f14610137578063ead0c0191461014157610070565b80635cfb5ff51461007557806364d58439146100a05780638a6b607a146100cc575b600080fd5b34801561008157600080fd5b5061008a610158565b60405161009791906108eb565b60405180910390f35b3480156100ac57600080fd5b506100b5610162565b6040516100c3929190610ab4565b60405180910390f35b3480156100d857600080fd5b506100e161030c565b6040516100ee91906108eb565b60405180910390f35b34801561010357600080fd5b5061011e60048036038101906101199190610b1c565b610314565b005b34801561012c57600080fd5b506101356104e2565b005b61013f610606565b005b34801561014d57600080fd5b50610156610729565b005b6000600554905090565b606080600060088054905067ffffffffffffffff81111561018657610185610b5c565b5b6040519080825280602002602001820160405280156101b45781602001602082028036833780820191505090505b50905060005b6008805490508110156102775760016000600883815481106101df576101de610b8b565b5b9060005260206000200160009054906101000a900473ffffffffffffffffffffffffffffffffffffffff1673ffffffffffffffffffffffffffffffffffffffff1673ffffffffffffffffffffffffffffffffffffffff1681526020019081526020016000205482828151811061025857610257610b8b565b5b602002602001018181525050808061026f90610be9565b9150506101ba565b50600881818054806020026020016040519081016040528092919081815260200182805480156102fc57602002820191906000526020600020905b8160009054906101000a900473ffffffffffffffffffffffffffffffffffffffff1673ffffffffffffffffffffffffffffffffffffffff16815260200190600101908083116102b2575b5050505050915092509250509091565b600042905090565b426004541115610359576040517f08c379a000000000000000000000000000000000000000000000000000000000815260040161035090610c8e565b60405180910390fd5b60065460055410156104cc5760005b600880549050811015610490576000600160006008848154811061038f5761038e610b8b565b5b9060005260206000200160009054906101000a900473ffffffffffffffffffffffffffffffffffffffff1673ffffffffffffffffffffffffffffffffffffffff1673ffffffffffffffffffffffffffffffffffffffff1681526020019081526020016000205490506008828154811061040b5761040a610b8b565b5b9060005260206000200160009054906101000a900473ffffffffffffffffffffffffffffffffffffffff1673ffffffffffffffffffffffffffffffffffffffff166108fc829081150290604051600060405180830381858888f1935050505015801561047b573d6000803e3d6000fd5b5050808061048890610be9565b915050610368565b506040517f08c379a00000000000000000000000000000000000000000000000000000000081526004016104c390610cfa565b60405180910390fd5b6104d581610774565b6104de82610868565b5050565b6000339050600654600554106105c8576000600160008373ffffffffffffffffffffffffffffffffffffffff1673ffffffffffffffffffffffffffffffffffffffff1681526020019081526020016000205490506000600160008473ffffffffffffffffffffffffffffffffffffffff1673ffffffffffffffffffffffffffffffffffffffff168152602001908152602001600020819055508173ffffffffffffffffffffffffffffffffffffffff166108fc829081150290604051600060405180830381858888f193505050501580156105c1573d6000803e3d6000fd5b5050610603565b6040517f08c379a00000000000000000000000000000000000000000000000000000000081526004016105fa90610d66565b60405180910390fd5b50565b60003490506000810361064e576040517f08c379a000000000000000000000000000000000000000000000000000000000815260040161064590610dd2565b60405180910390fd5b60003390506008819080600181540180825580915050600190039060005260206000200160009091909190916101000a81548173ffffffffffffffffffffffffffffffffffffffff021916908373ffffffffffffffffffffffffffffffffffffffff16021790555081600160008373ffffffffffffffffffffffffffffffffffffffff1673ffffffffffffffffffffffffffffffffffffffff16815260200190815260200160002060008282546107059190610df2565b92505081905550816005600082825461071e9190610df2565b925050819055505050565b3373ffffffffffffffffffffffffffffffffffffffff166108fc6005549081150290604051600060405180830381858888f19350505050158015610771573d6000803e3d6000fd5b50565b6000339050600654600554101580156107d857508073ffffffffffffffffffffffffffffffffffffffff1660008054906101000a900473ffffffffffffffffffffffffffffffffffffffff1673ffffffffffffffffffffffffffffffffffffffff16145b15610829578073ffffffffffffffffffffffffffffffffffffffff166108fc839081150290604051600060405180830381858888f19350505050158015610823573d6000803e3d6000fd5b50610864565b6040517f08c379a000000000000000000000000000000000000000000000000000000000815260040161085b90610d66565b60405180910390fd5b5050565b7f000000000000000000000000000000000000000000000000000000000000000073ffffffffffffffffffffffffffffffffffffffff166108fc829081150290604051600060405180830381858888f193505050501580156108ce573d6000803e3d6000fd5b5050565b6000819050919050565b6108e5816108d2565b82525050565b600060208201905061090060008301846108dc565b92915050565b600081519050919050565b600082825260208201905092915050565b6000819050602082019050919050565b600073ffffffffffffffffffffffffffffffffffffffff82169050919050565b600061095d82610932565b9050919050565b61096d81610952565b82525050565b600061097f8383610964565b60208301905092915050565b6000602082019050919050565b60006109a382610906565b6109ad8185610911565b93506109b883610922565b8060005b838110156109e95781516109d08882610973565b97506109db8361098b565b9250506001810190506109bc565b5085935050505092915050565b600081519050919050565b600082825260208201905092915050565b6000819050602082019050919050565b610a2b816108d2565b82525050565b6000610a3d8383610a22565b60208301905092915050565b6000602082019050919050565b6000610a61826109f6565b610a6b8185610a01565b9350610a7683610a12565b8060005b83811015610aa7578151610a8e8882610a31565b9750610a9983610a49565b925050600181019050610a7a565b5085935050505092915050565b60006040820190508181036000830152610ace8185610998565b90508181036020830152610ae28184610a56565b90509392505050565b600080fd5b610af9816108d2565b8114610b0457600080fd5b50565b600081359050610b1681610af0565b92915050565b60008060408385031215610b3357610b32610aeb565b5b6000610b4185828601610b07565b9250506020610b5285828601610b07565b9150509250929050565b7f4e487b7100000000000000000000000000000000000000000000000000000000600052604160045260246000fd5b7f4e487b7100000000000000000000000000000000000000000000000000000000600052603260045260246000fd5b7f4e487b7100000000000000000000000000000000000000000000000000000000600052601160045260246000fd5b6000610bf4826108d2565b91507fffffffffffffffffffffffffffffffffffffffffffffffffffffffffffffffff8203610c2657610c25610bba565b5b600182019050919050565b600082825260208201905092915050565b7f43414d504149474e205354494c4c2052554e4e494e4700000000000000000000600082015250565b6000610c78601683610c31565b9150610c8382610c42565b602082019050919050565b60006020820190508181036000830152610ca781610c6b565b9050919050565b7f43414d504149474e204641494c45440000000000000000000000000000000000600082015250565b6000610ce4600f83610c31565b9150610cef82610cae565b602082019050919050565b60006020820190508181036000830152610d1381610cd7565b9050919050565b7f4e4f5420454e4f5547482046554e445320544f20574954484452415700000000600082015250565b6000610d50601c83610c31565b9150610d5b82610d1a565b602082019050919050565b60006020820190508181036000830152610d7f81610d43565b9050919050565b7f4e4f2046554e4453204154544143484544000000000000000000000000000000600082015250565b6000610dbc601183610c31565b9150610dc782610d86565b602082019050919050565b60006020820190508181036000830152610deb81610daf565b9050919050565b6000610dfd826108d2565b9150610e08836108d2565b9250828201905080821115610e2057610e1f610bba565b5b9291505056fea264697066735822122069553bd79f44910f31ac7558a1811c51639235808c7deda2ead5d4e5e470bc8164736f6c63430008120033', \n     arguments: [\n          _investmentGoal,\n          _sharePercentage,\n          _endTime,\n     ]\n}).send({\n     from: web3.eth.accounts[0], \n     gas: '4700000'\n   }, function (e, contract){\n    console.log(e, contract);\n    if (typeof contract.address !== 'undefined') {\n         console.log('Contract mined! address: ' + contract.address + ' transactionHash: ' + contract.transactionHash);\n    }\n })",
	"metadataHash": "8f1d24f7564c6be4d5043d0a1af2d2fedc8f6b16f8c7e91c8cc952fa03711467",
	"functionHashes": {
		"b9ecb28a": "finishStartup(uint256,uint256)",
		"e8b5e51f": "invest()",
		"5cfb5ff5": "showAmount()",
		"64d58439": "showInvestors()",
		"8a6b607a": "showTime()",
		"c228460c": "withdrawInvestor()",
		"ead0c019": "withdrawTest()"
	},
	"gasEstimates": {
		"Creation": {
			"codeDepositCost": "735200",
			"executionCost": "infinite",
			"totalCost": "infinite"
		},
		"External": {
			"finishStartup(uint256,uint256)": "infinite",
			"invest()": "infinite",
			"showAmount()": "2438",
			"showInvestors()": "infinite",
			"showTime()": "381",
			"withdrawInvestor()": "infinite",
			"withdrawTest()": "infinite"
		},
		"Internal": {
			"withdrawStartupper(uint256)": "infinite",
			"withdrawTokenvest(uint256)": "infinite"
		}
	},
	"devdoc": {
		"kind": "dev",
		"methods": {},
		"version": 1
	},
	"userdoc": {
		"kind": "user",
		"methods": {},
		"version": 1
	},
	"Runtime Bytecode": {
		"immutableReferences": {
			"9": [
				{
					"length": 32,
					"start": 2154
				}
			]
		},
		"linkReferences": {},
		"object": "6080604052600436106100705760003560e01c8063b9ecb28a1161004e578063b9ecb28a146100f7578063c228460c14610120578063e8b5e51f14610137578063ead0c0191461014157610070565b80635cfb5ff51461007557806364d58439146100a05780638a6b607a146100cc575b600080fd5b34801561008157600080fd5b5061008a610158565b60405161009791906108eb565b60405180910390f35b3480156100ac57600080fd5b506100b5610162565b6040516100c3929190610ab4565b60405180910390f35b3480156100d857600080fd5b506100e161030c565b6040516100ee91906108eb565b60405180910390f35b34801561010357600080fd5b5061011e60048036038101906101199190610b1c565b610314565b005b34801561012c57600080fd5b506101356104e2565b005b61013f610606565b005b34801561014d57600080fd5b50610156610729565b005b6000600554905090565b606080600060088054905067ffffffffffffffff81111561018657610185610b5c565b5b6040519080825280602002602001820160405280156101b45781602001602082028036833780820191505090505b50905060005b6008805490508110156102775760016000600883815481106101df576101de610b8b565b5b9060005260206000200160009054906101000a900473ffffffffffffffffffffffffffffffffffffffff1673ffffffffffffffffffffffffffffffffffffffff1673ffffffffffffffffffffffffffffffffffffffff1681526020019081526020016000205482828151811061025857610257610b8b565b5b602002602001018181525050808061026f90610be9565b9150506101ba565b50600881818054806020026020016040519081016040528092919081815260200182805480156102fc57602002820191906000526020600020905b8160009054906101000a900473ffffffffffffffffffffffffffffffffffffffff1673ffffffffffffffffffffffffffffffffffffffff16815260200190600101908083116102b2575b5050505050915092509250509091565b600042905090565b426004541115610359576040517f08c379a000000000000000000000000000000000000000000000000000000000815260040161035090610c8e565b60405180910390fd5b60065460055410156104cc5760005b600880549050811015610490576000600160006008848154811061038f5761038e610b8b565b5b9060005260206000200160009054906101000a900473ffffffffffffffffffffffffffffffffffffffff1673ffffffffffffffffffffffffffffffffffffffff1673ffffffffffffffffffffffffffffffffffffffff1681526020019081526020016000205490506008828154811061040b5761040a610b8b565b5b9060005260206000200160009054906101000a900473ffffffffffffffffffffffffffffffffffffffff1673ffffffffffffffffffffffffffffffffffffffff166108fc829081150290604051600060405180830381858888f1935050505015801561047b573d6000803e3d6000fd5b5050808061048890610be9565b915050610368565b506040517f08c379a00000000000000000000000000000000000000000000000000000000081526004016104c390610cfa565b60405180910390fd5b6104d581610774565b6104de82610868565b5050565b6000339050600654600554106105c8576000600160008373ffffffffffffffffffffffffffffffffffffffff1673ffffffffffffffffffffffffffffffffffffffff1681526020019081526020016000205490506000600160008473ffffffffffffffffffffffffffffffffffffffff1673ffffffffffffffffffffffffffffffffffffffff168152602001908152602001600020819055508173ffffffffffffffffffffffffffffffffffffffff166108fc829081150290604051600060405180830381858888f193505050501580156105c1573d6000803e3d6000fd5b5050610603565b6040517f08c379a00000000000000000000000000000000000000000000000000000000081526004016105fa90610d66565b60405180910390fd5b50565b60003490506000810361064e576040517f08c379a000000000000000000000000000000000000000000000000000000000815260040161064590610dd2565b60405180910390fd5b60003390506008819080600181540180825580915050600190039060005260206000200160009091909190916101000a81548173ffffffffffffffffffffffffffffffffffffffff021916908373ffffffffffffffffffffffffffffffffffffffff16021790555081600160008373ffffffffffffffffffffffffffffffffffffffff1673ffffffffffffffffffffffffffffffffffffffff16815260200190815260200160002060008282546107059190610df2565b92505081905550816005600082825461071e9190610df2565b925050819055505050565b3373ffffffffffffffffffffffffffffffffffffffff166108fc6005549081150290604051600060405180830381858888f19350505050158015610771573d6000803e3d6000fd5b50565b6000339050600654600554101580156107d857508073ffffffffffffffffffffffffffffffffffffffff1660008054906101000a900473ffffffffffffffffffffffffffffffffffffffff1673ffffffffffffffffffffffffffffffffffffffff16145b15610829578073ffffffffffffffffffffffffffffffffffffffff166108fc839081150290604051600060405180830381858888f19350505050158015610823573d6000803e3d6000fd5b50610864565b6040517f08c379a000000000000000000000000000000000000000000000000000000000815260040161085b90610d66565b60405180910390fd5b5050565b7f000000000000000000000000000000000000000000000000000000000000000073ffffffffffffffffffffffffffffffffffffffff166108fc829081150290604051600060405180830381858888f193505050501580156108ce573d6000803e3d6000fd5b5050565b6000819050919050565b6108e5816108d2565b82525050565b600060208201905061090060008301846108dc565b92915050565b600081519050919050565b600082825260208201905092915050565b6000819050602082019050919050565b600073ffffffffffffffffffffffffffffffffffffffff82169050919050565b600061095d82610932565b9050919050565b61096d81610952565b82525050565b600061097f8383610964565b60208301905092915050565b6000602082019050919050565b60006109a382610906565b6109ad8185610911565b93506109b883610922565b8060005b838110156109e95781516109d08882610973565b97506109db8361098b565b9250506001810190506109bc565b5085935050505092915050565b600081519050919050565b600082825260208201905092915050565b6000819050602082019050919050565b610a2b816108d2565b82525050565b6000610a3d8383610a22565b60208301905092915050565b6000602082019050919050565b6000610a61826109f6565b610a6b8185610a01565b9350610a7683610a12565b8060005b83811015610aa7578151610a8e8882610a31565b9750610a9983610a49565b925050600181019050610a7a565b5085935050505092915050565b60006040820190508181036000830152610ace8185610998565b90508181036020830152610ae28184610a56565b90509392505050565b600080fd5b610af9816108d2565b8114610b0457600080fd5b50565b600081359050610b1681610af0565b92915050565b60008060408385031215610b3357610b32610aeb565b5b6000610b4185828601610b07565b9250506020610b5285828601610b07565b9150509250929050565b7f4e487b7100000000000000000000000000000000000000000000000000000000600052604160045260246000fd5b7f4e487b7100000000000000000000000000000000000000000000000000000000600052603260045260246000fd5b7f4e487b7100000000000000000000000000000000000000000000000000000000600052601160045260246000fd5b6000610bf4826108d2565b91507fffffffffffffffffffffffffffffffffffffffffffffffffffffffffffffffff8203610c2657610c25610bba565b5b600182019050919050565b600082825260208201905092915050565b7f43414d504149474e205354494c4c2052554e4e494e4700000000000000000000600082015250565b6000610c78601683610c31565b9150610c8382610c42565b602082019050919050565b60006020820190508181036000830152610ca781610c6b565b9050919050565b7f43414d504149474e204641494c45440000000000000000000000000000000000600082015250565b6000610ce4600f83610c31565b9150610cef82610cae565b602082019050919050565b60006020820190508181036000830152610d1381610cd7565b9050919050565b7f4e4f5420454e4f5547482046554e445320544f20574954484452415700000000600082015250565b6000610d50601c83610c31565b9150610d5b82610d1a565b602082019050919050565b60006020820190508181036000830152610d7f81610d43565b9050919050565b7f4e4f2046554e4453204154544143484544000000000000000000000000000000600082015250565b6000610dbc601183610c31565b9150610dc782610d86565b602082019050919050565b60006020820190508181036000830152610deb81610daf565b9050919050565b6000610dfd826108d2565b9150610e08836108d2565b9250828201905080821115610e2057610e1f610bba565b5b9291505056fea264697066735822122069553bd79f44910f31ac7558a1811c51639235808c7deda2ead5d4e5e470bc8164736f6c63430008120033",
		"opcodes": "PUSH1 0x80 PUSH1 0x40 MSTORE PUSH1 0x4 CALLDATASIZE LT PUSH2 0x70 JUMPI PUSH1 0x0 CALLDATALOAD PUSH1 0xE0 SHR DUP1 PUSH4 0xB9ECB28A GT PUSH2 0x4E JUMPI DUP1 PUSH4 0xB9ECB28A EQ PUSH2 0xF7 JUMPI DUP1 PUSH4 0xC228460C EQ PUSH2 0x120 JUMPI DUP1 PUSH4 0xE8B5E51F EQ PUSH2 0x137 JUMPI DUP1 PUSH4 0xEAD0C019 EQ PUSH2 0x141 JUMPI PUSH2 0x70 JUMP JUMPDEST DUP1 PUSH4 0x5CFB5FF5 EQ PUSH2 0x75 JUMPI DUP1 PUSH4 0x64D58439 EQ PUSH2 0xA0 JUMPI DUP1 PUSH4 0x8A6B607A EQ PUSH2 0xCC JUMPI JUMPDEST PUSH1 0x0 DUP1 REVERT JUMPDEST CALLVALUE DUP1 ISZERO PUSH2 0x81 JUMPI PUSH1 0x0 DUP1 REVERT JUMPDEST POP PUSH2 0x8A PUSH2 0x158 JUMP JUMPDEST PUSH1 0x40 MLOAD PUSH2 0x97 SWAP2 SWAP1 PUSH2 0x8EB JUMP JUMPDEST PUSH1 0x40 MLOAD DUP1 SWAP2 SUB SWAP1 RETURN JUMPDEST CALLVALUE DUP1 ISZERO PUSH2 0xAC JUMPI PUSH1 0x0 DUP1 REVERT JUMPDEST POP PUSH2 0xB5 PUSH2 0x162 JUMP JUMPDEST PUSH1 0x40 MLOAD PUSH2 0xC3 SWAP3 SWAP2 SWAP1 PUSH2 0xAB4 JUMP JUMPDEST PUSH1 0x40 MLOAD DUP1 SWAP2 SUB SWAP1 RETURN JUMPDEST CALLVALUE DUP1 ISZERO PUSH2 0xD8 JUMPI PUSH1 0x0 DUP1 REVERT JUMPDEST POP PUSH2 0xE1 PUSH2 0x30C JUMP JUMPDEST PUSH1 0x40 MLOAD PUSH2 0xEE SWAP2 SWAP1 PUSH2 0x8EB JUMP JUMPDEST PUSH1 0x40 MLOAD DUP1 SWAP2 SUB SWAP1 RETURN JUMPDEST CALLVALUE DUP1 ISZERO PUSH2 0x103 JUMPI PUSH1 0x0 DUP1 REVERT JUMPDEST POP PUSH2 0x11E PUSH1 0x4 DUP1 CALLDATASIZE SUB DUP2 ADD SWAP1 PUSH2 0x119 SWAP2 SWAP1 PUSH2 0xB1C JUMP JUMPDEST PUSH2 0x314 JUMP JUMPDEST STOP JUMPDEST CALLVALUE DUP1 ISZERO PUSH2 0x12C JUMPI PUSH1 0x0 DUP1 REVERT JUMPDEST POP PUSH2 0x135 PUSH2 0x4E2 JUMP JUMPDEST STOP JUMPDEST PUSH2 0x13F PUSH2 0x606 JUMP JUMPDEST STOP JUMPDEST CALLVALUE DUP1 ISZERO PUSH2 0x14D JUMPI PUSH1 0x0 DUP1 REVERT JUMPDEST POP PUSH2 0x156 PUSH2 0x729 JUMP JUMPDEST STOP JUMPDEST PUSH1 0x0 PUSH1 0x5 SLOAD SWAP1 POP SWAP1 JUMP JUMPDEST PUSH1 0x60 DUP1 PUSH1 0x0 PUSH1 0x8 DUP1 SLOAD SWAP1 POP PUSH8 0xFFFFFFFFFFFFFFFF DUP2 GT ISZERO PUSH2 0x186 JUMPI PUSH2 0x185 PUSH2 0xB5C JUMP JUMPDEST JUMPDEST PUSH1 0x40 MLOAD SWAP1 DUP1 DUP3 MSTORE DUP1 PUSH1 0x20 MUL PUSH1 0x20 ADD DUP3 ADD PUSH1 0x40 MSTORE DUP1 ISZERO PUSH2 0x1B4 JUMPI DUP2 PUSH1 0x20 ADD PUSH1 0x20 DUP3 MUL DUP1 CALLDATASIZE DUP4 CALLDATACOPY DUP1 DUP3 ADD SWAP2 POP POP SWAP1 POP JUMPDEST POP SWAP1 POP PUSH1 0x0 JUMPDEST PUSH1 0x8 DUP1 SLOAD SWAP1 POP DUP2 LT ISZERO PUSH2 0x277 JUMPI PUSH1 0x1 PUSH1 0x0 PUSH1 0x8 DUP4 DUP2 SLOAD DUP2 LT PUSH2 0x1DF JUMPI PUSH2 0x1DE PUSH2 0xB8B JUMP JUMPDEST JUMPDEST SWAP1 PUSH1 0x0 MSTORE PUSH1 0x20 PUSH1 0x0 KECCAK256 ADD PUSH1 0x0 SWAP1 SLOAD SWAP1 PUSH2 0x100 EXP SWAP1 DIV PUSH20 0xFFFFFFFFFFFFFFFFFFFFFFFFFFFFFFFFFFFFFFFF AND PUSH20 0xFFFFFFFFFFFFFFFFFFFFFFFFFFFFFFFFFFFFFFFF AND PUSH20 0xFFFFFFFFFFFFFFFFFFFFFFFFFFFFFFFFFFFFFFFF AND DUP2 MSTORE PUSH1 0x20 ADD SWAP1 DUP2 MSTORE PUSH1 0x20 ADD PUSH1 0x0 KECCAK256 SLOAD DUP3 DUP3 DUP2 MLOAD DUP2 LT PUSH2 0x258 JUMPI PUSH2 0x257 PUSH2 0xB8B JUMP JUMPDEST JUMPDEST PUSH1 0x20 MUL PUSH1 0x20 ADD ADD DUP2 DUP2 MSTORE POP POP DUP1 DUP1 PUSH2 0x26F SWAP1 PUSH2 0xBE9 JUMP JUMPDEST SWAP2 POP POP PUSH2 0x1BA JUMP JUMPDEST POP PUSH1 0x8 DUP2 DUP2 DUP1 SLOAD DUP1 PUSH1 0x20 MUL PUSH1 0x20 ADD PUSH1 0x40 MLOAD SWAP1 DUP2 ADD PUSH1 0x40 MSTORE DUP1 SWAP3 SWAP2 SWAP1 DUP2 DUP2 MSTORE PUSH1 0x20 ADD DUP3 DUP1 SLOAD DUP1 ISZERO PUSH2 0x2FC JUMPI PUSH1 0x20 MUL DUP3 ADD SWAP2 SWAP1 PUSH1 0x0 MSTORE PUSH1 0x20 PUSH1 0x0 KECCAK256 SWAP1 JUMPDEST DUP2 PUSH1 0x0 SWAP1 SLOAD SWAP1 PUSH2 0x100 EXP SWAP1 DIV PUSH20 0xFFFFFFFFFFFFFFFFFFFFFFFFFFFFFFFFFFFFFFFF AND PUSH20 0xFFFFFFFFFFFFFFFFFFFFFFFFFFFFFFFFFFFFFFFF AND DUP2 MSTORE PUSH1 0x20 ADD SWAP1 PUSH1 0x1 ADD SWAP1 DUP1 DUP4 GT PUSH2 0x2B2 JUMPI JUMPDEST POP POP POP POP POP SWAP2 POP SWAP3 POP SWAP3 POP POP SWAP1 SWAP2 JUMP JUMPDEST PUSH1 0x0 TIMESTAMP SWAP1 POP SWAP1 JUMP JUMPDEST TIMESTAMP PUSH1 0x4 SLOAD GT ISZERO PUSH2 0x359 JUMPI PUSH1 0x40 MLOAD PUSH32 0x8C379A000000000000000000000000000000000000000000000000000000000 DUP2 MSTORE PUSH1 0x4 ADD PUSH2 0x350 SWAP1 PUSH2 0xC8E JUMP JUMPDEST PUSH1 0x40 MLOAD DUP1 SWAP2 SUB SWAP1 REVERT JUMPDEST PUSH1 0x6 SLOAD PUSH1 0x5 SLOAD LT ISZERO PUSH2 0x4CC JUMPI PUSH1 0x0 JUMPDEST PUSH1 0x8 DUP1 SLOAD SWAP1 POP DUP2 LT ISZERO PUSH2 0x490 JUMPI PUSH1 0x0 PUSH1 0x1 PUSH1 0x0 PUSH1 0x8 DUP5 DUP2 SLOAD DUP2 LT PUSH2 0x38F JUMPI PUSH2 0x38E PUSH2 0xB8B JUMP JUMPDEST JUMPDEST SWAP1 PUSH1 0x0 MSTORE PUSH1 0x20 PUSH1 0x0 KECCAK256 ADD PUSH1 0x0 SWAP1 SLOAD SWAP1 PUSH2 0x100 EXP SWAP1 DIV PUSH20 0xFFFFFFFFFFFFFFFFFFFFFFFFFFFFFFFFFFFFFFFF AND PUSH20 0xFFFFFFFFFFFFFFFFFFFFFFFFFFFFFFFFFFFFFFFF AND PUSH20 0xFFFFFFFFFFFFFFFFFFFFFFFFFFFFFFFFFFFFFFFF AND DUP2 MSTORE PUSH1 0x20 ADD SWAP1 DUP2 MSTORE PUSH1 0x20 ADD PUSH1 0x0 KECCAK256 SLOAD SWAP1 POP PUSH1 0x8 DUP3 DUP2 SLOAD DUP2 LT PUSH2 0x40B JUMPI PUSH2 0x40A PUSH2 0xB8B JUMP JUMPDEST JUMPDEST SWAP1 PUSH1 0x0 MSTORE PUSH1 0x20 PUSH1 0x0 KECCAK256 ADD PUSH1 0x0 SWAP1 SLOAD SWAP1 PUSH2 0x100 EXP SWAP1 DIV PUSH20 0xFFFFFFFFFFFFFFFFFFFFFFFFFFFFFFFFFFFFFFFF AND PUSH20 0xFFFFFFFFFFFFFFFFFFFFFFFFFFFFFFFFFFFFFFFF AND PUSH2 0x8FC DUP3 SWAP1 DUP2 ISZERO MUL SWAP1 PUSH1 0x40 MLOAD PUSH1 0x0 PUSH1 0x40 MLOAD DUP1 DUP4 SUB DUP2 DUP6 DUP9 DUP9 CALL SWAP4 POP POP POP POP ISZERO DUP1 ISZERO PUSH2 0x47B JUMPI RETURNDATASIZE PUSH1 0x0 DUP1 RETURNDATACOPY RETURNDATASIZE PUSH1 0x0 REVERT JUMPDEST POP POP DUP1 DUP1 PUSH2 0x488 SWAP1 PUSH2 0xBE9 JUMP JUMPDEST SWAP2 POP POP PUSH2 0x368 JUMP JUMPDEST POP PUSH1 0x40 MLOAD PUSH32 0x8C379A000000000000000000000000000000000000000000000000000000000 DUP2 MSTORE PUSH1 0x4 ADD PUSH2 0x4C3 SWAP1 PUSH2 0xCFA JUMP JUMPDEST PUSH1 0x40 MLOAD DUP1 SWAP2 SUB SWAP1 REVERT JUMPDEST PUSH2 0x4D5 DUP2 PUSH2 0x774 JUMP JUMPDEST PUSH2 0x4DE DUP3 PUSH2 0x868 JUMP JUMPDEST POP POP JUMP JUMPDEST PUSH1 0x0 CALLER SWAP1 POP PUSH1 0x6 SLOAD PUSH1 0x5 SLOAD LT PUSH2 0x5C8 JUMPI PUSH1 0x0 PUSH1 0x1 PUSH1 0x0 DUP4 PUSH20 0xFFFFFFFFFFFFFFFFFFFFFFFFFFFFFFFFFFFFFFFF AND PUSH20 0xFFFFFFFFFFFFFFFFFFFFFFFFFFFFFFFFFFFFFFFF AND DUP2 MSTORE PUSH1 0x20 ADD SWAP1 DUP2 MSTORE PUSH1 0x20 ADD PUSH1 0x0 KECCAK256 SLOAD SWAP1 POP PUSH1 0x0 PUSH1 0x1 PUSH1 0x0 DUP5 PUSH20 0xFFFFFFFFFFFFFFFFFFFFFFFFFFFFFFFFFFFFFFFF AND PUSH20 0xFFFFFFFFFFFFFFFFFFFFFFFFFFFFFFFFFFFFFFFF AND DUP2 MSTORE PUSH1 0x20 ADD SWAP1 DUP2 MSTORE PUSH1 0x20 ADD PUSH1 0x0 KECCAK256 DUP2 SWAP1 SSTORE POP DUP2 PUSH20 0xFFFFFFFFFFFFFFFFFFFFFFFFFFFFFFFFFFFFFFFF AND PUSH2 0x8FC DUP3 SWAP1 DUP2 ISZERO MUL SWAP1 PUSH1 0x40 MLOAD PUSH1 0x0 PUSH1 0x40 MLOAD DUP1 DUP4 SUB DUP2 DUP6 DUP9 DUP9 CALL SWAP4 POP POP POP POP ISZERO DUP1 ISZERO PUSH2 0x5C1 JUMPI RETURNDATASIZE PUSH1 0x0 DUP1 RETURNDATACOPY RETURNDATASIZE PUSH1 0x0 REVERT JUMPDEST POP POP PUSH2 0x603 JUMP JUMPDEST PUSH1 0x40 MLOAD PUSH32 0x8C379A000000000000000000000000000000000000000000000000000000000 DUP2 MSTORE PUSH1 0x4 ADD PUSH2 0x5FA SWAP1 PUSH2 0xD66 JUMP JUMPDEST PUSH1 0x40 MLOAD DUP1 SWAP2 SUB SWAP1 REVERT JUMPDEST POP JUMP JUMPDEST PUSH1 0x0 CALLVALUE SWAP1 POP PUSH1 0x0 DUP2 SUB PUSH2 0x64E JUMPI PUSH1 0x40 MLOAD PUSH32 0x8C379A000000000000000000000000000000000000000000000000000000000 DUP2 MSTORE PUSH1 0x4 ADD PUSH2 0x645 SWAP1 PUSH2 0xDD2 JUMP JUMPDEST PUSH1 0x40 MLOAD DUP1 SWAP2 SUB SWAP1 REVERT JUMPDEST PUSH1 0x0 CALLER SWAP1 POP PUSH1 0x8 DUP2 SWAP1 DUP1 PUSH1 0x1 DUP2 SLOAD ADD DUP1 DUP3 SSTORE DUP1 SWAP2 POP POP PUSH1 0x1 SWAP1 SUB SWAP1 PUSH1 0x0 MSTORE PUSH1 0x20 PUSH1 0x0 KECCAK256 ADD PUSH1 0x0 SWAP1 SWAP2 SWAP1 SWAP2 SWAP1 SWAP2 PUSH2 0x100 EXP DUP2 SLOAD DUP2 PUSH20 0xFFFFFFFFFFFFFFFFFFFFFFFFFFFFFFFFFFFFFFFF MUL NOT AND SWAP1 DUP4 PUSH20 0xFFFFFFFFFFFFFFFFFFFFFFFFFFFFFFFFFFFFFFFF AND MUL OR SWAP1 SSTORE POP DUP2 PUSH1 0x1 PUSH1 0x0 DUP4 PUSH20 0xFFFFFFFFFFFFFFFFFFFFFFFFFFFFFFFFFFFFFFFF AND PUSH20 0xFFFFFFFFFFFFFFFFFFFFFFFFFFFFFFFFFFFFFFFF AND DUP2 MSTORE PUSH1 0x20 ADD SWAP1 DUP2 MSTORE PUSH1 0x20 ADD PUSH1 0x0 KECCAK256 PUSH1 0x0 DUP3 DUP3 SLOAD PUSH2 0x705 SWAP2 SWAP1 PUSH2 0xDF2 JUMP JUMPDEST SWAP3 POP POP DUP2 SWAP1 SSTORE POP DUP2 PUSH1 0x5 PUSH1 0x0 DUP3 DUP3 SLOAD PUSH2 0x71E SWAP2 SWAP1 PUSH2 0xDF2 JUMP JUMPDEST SWAP3 POP POP DUP2 SWAP1 SSTORE POP POP POP JUMP JUMPDEST CALLER PUSH20 0xFFFFFFFFFFFFFFFFFFFFFFFFFFFFFFFFFFFFFFFF AND PUSH2 0x8FC PUSH1 0x5 SLOAD SWAP1 DUP2 ISZERO MUL SWAP1 PUSH1 0x40 MLOAD PUSH1 0x0 PUSH1 0x40 MLOAD DUP1 DUP4 SUB DUP2 DUP6 DUP9 DUP9 CALL SWAP4 POP POP POP POP ISZERO DUP1 ISZERO PUSH2 0x771 JUMPI RETURNDATASIZE PUSH1 0x0 DUP1 RETURNDATACOPY RETURNDATASIZE PUSH1 0x0 REVERT JUMPDEST POP JUMP JUMPDEST PUSH1 0x0 CALLER SWAP1 POP PUSH1 0x6 SLOAD PUSH1 0x5 SLOAD LT ISZERO DUP1 ISZERO PUSH2 0x7D8 JUMPI POP DUP1 PUSH20 0xFFFFFFFFFFFFFFFFFFFFFFFFFFFFFFFFFFFFFFFF AND PUSH1 0x0 DUP1 SLOAD SWAP1 PUSH2 0x100 EXP SWAP1 DIV PUSH20 0xFFFFFFFFFFFFFFFFFFFFFFFFFFFFFFFFFFFFFFFF AND PUSH20 0xFFFFFFFFFFFFFFFFFFFFFFFFFFFFFFFFFFFFFFFF AND EQ JUMPDEST ISZERO PUSH2 0x829 JUMPI DUP1 PUSH20 0xFFFFFFFFFFFFFFFFFFFFFFFFFFFFFFFFFFFFFFFF AND PUSH2 0x8FC DUP4 SWAP1 DUP2 ISZERO MUL SWAP1 PUSH1 0x40 MLOAD PUSH1 0x0 PUSH1 0x40 MLOAD DUP1 DUP4 SUB DUP2 DUP6 DUP9 DUP9 CALL SWAP4 POP POP POP POP ISZERO DUP1 ISZERO PUSH2 0x823 JUMPI RETURNDATASIZE PUSH1 0x0 DUP1 RETURNDATACOPY RETURNDATASIZE PUSH1 0x0 REVERT JUMPDEST POP PUSH2 0x864 JUMP JUMPDEST PUSH1 0x40 MLOAD PUSH32 0x8C379A000000000000000000000000000000000000000000000000000000000 DUP2 MSTORE PUSH1 0x4 ADD PUSH2 0x85B SWAP1 PUSH2 0xD66 JUMP JUMPDEST PUSH1 0x40 MLOAD DUP1 SWAP2 SUB SWAP1 REVERT JUMPDEST POP POP JUMP JUMPDEST PUSH32 0x0 PUSH20 0xFFFFFFFFFFFFFFFFFFFFFFFFFFFFFFFFFFFFFFFF AND PUSH2 0x8FC DUP3 SWAP1 DUP2 ISZERO MUL SWAP1 PUSH1 0x40 MLOAD PUSH1 0x0 PUSH1 0x40 MLOAD DUP1 DUP4 SUB DUP2 DUP6 DUP9 DUP9 CALL SWAP4 POP POP POP POP ISZERO DUP1 ISZERO PUSH2 0x8CE JUMPI RETURNDATASIZE PUSH1 0x0 DUP1 RETURNDATACOPY RETURNDATASIZE PUSH1 0x0 REVERT JUMPDEST POP POP JUMP JUMPDEST PUSH1 0x0 DUP2 SWAP1 POP SWAP2 SWAP1 POP JUMP JUMPDEST PUSH2 0x8E5 DUP2 PUSH2 0x8D2 JUMP JUMPDEST DUP3 MSTORE POP POP JUMP JUMPDEST PUSH1 0x0 PUSH1 0x20 DUP3 ADD SWAP1 POP PUSH2 0x900 PUSH1 0x0 DUP4 ADD DUP5 PUSH2 0x8DC JUMP JUMPDEST SWAP3 SWAP2 POP POP JUMP JUMPDEST PUSH1 0x0 DUP2 MLOAD SWAP1 POP SWAP2 SWAP1 POP JUMP JUMPDEST PUSH1 0x0 DUP3 DUP3 MSTORE PUSH1 0x20 DUP3 ADD SWAP1 POP SWAP3 SWAP2 POP POP JUMP JUMPDEST PUSH1 0x0 DUP2 SWAP1 POP PUSH1 0x20 DUP3 ADD SWAP1 POP SWAP2 SWAP1 POP JUMP JUMPDEST PUSH1 0x0 PUSH20 0xFFFFFFFFFFFFFFFFFFFFFFFFFFFFFFFFFFFFFFFF DUP3 AND SWAP1 POP SWAP2 SWAP1 POP JUMP JUMPDEST PUSH1 0x0 PUSH2 0x95D DUP3 PUSH2 0x932 JUMP JUMPDEST SWAP1 POP SWAP2 SWAP1 POP JUMP JUMPDEST PUSH2 0x96D DUP2 PUSH2 0x952 JUMP JUMPDEST DUP3 MSTORE POP POP JUMP JUMPDEST PUSH1 0x0 PUSH2 0x97F DUP4 DUP4 PUSH2 0x964 JUMP JUMPDEST PUSH1 0x20 DUP4 ADD SWAP1 POP SWAP3 SWAP2 POP POP JUMP JUMPDEST PUSH1 0x0 PUSH1 0x20 DUP3 ADD SWAP1 POP SWAP2 SWAP1 POP JUMP JUMPDEST PUSH1 0x0 PUSH2 0x9A3 DUP3 PUSH2 0x906 JUMP JUMPDEST PUSH2 0x9AD DUP2 DUP6 PUSH2 0x911 JUMP JUMPDEST SWAP4 POP PUSH2 0x9B8 DUP4 PUSH2 0x922 JUMP JUMPDEST DUP1 PUSH1 0x0 JUMPDEST DUP4 DUP2 LT ISZERO PUSH2 0x9E9 JUMPI DUP2 MLOAD PUSH2 0x9D0 DUP9 DUP3 PUSH2 0x973 JUMP JUMPDEST SWAP8 POP PUSH2 0x9DB DUP4 PUSH2 0x98B JUMP JUMPDEST SWAP3 POP POP PUSH1 0x1 DUP2 ADD SWAP1 POP PUSH2 0x9BC JUMP JUMPDEST POP DUP6 SWAP4 POP POP POP POP SWAP3 SWAP2 POP POP JUMP JUMPDEST PUSH1 0x0 DUP2 MLOAD SWAP1 POP SWAP2 SWAP1 POP JUMP JUMPDEST PUSH1 0x0 DUP3 DUP3 MSTORE PUSH1 0x20 DUP3 ADD SWAP1 POP SWAP3 SWAP2 POP POP JUMP JUMPDEST PUSH1 0x0 DUP2 SWAP1 POP PUSH1 0x20 DUP3 ADD SWAP1 POP SWAP2 SWAP1 POP JUMP JUMPDEST PUSH2 0xA2B DUP2 PUSH2 0x8D2 JUMP JUMPDEST DUP3 MSTORE POP POP JUMP JUMPDEST PUSH1 0x0 PUSH2 0xA3D DUP4 DUP4 PUSH2 0xA22 JUMP JUMPDEST PUSH1 0x20 DUP4 ADD SWAP1 POP SWAP3 SWAP2 POP POP JUMP JUMPDEST PUSH1 0x0 PUSH1 0x20 DUP3 ADD SWAP1 POP SWAP2 SWAP1 POP JUMP JUMPDEST PUSH1 0x0 PUSH2 0xA61 DUP3 PUSH2 0x9F6 JUMP JUMPDEST PUSH2 0xA6B DUP2 DUP6 PUSH2 0xA01 JUMP JUMPDEST SWAP4 POP PUSH2 0xA76 DUP4 PUSH2 0xA12 JUMP JUMPDEST DUP1 PUSH1 0x0 JUMPDEST DUP4 DUP2 LT ISZERO PUSH2 0xAA7 JUMPI DUP2 MLOAD PUSH2 0xA8E DUP9 DUP3 PUSH2 0xA31 JUMP JUMPDEST SWAP8 POP PUSH2 0xA99 DUP4 PUSH2 0xA49 JUMP JUMPDEST SWAP3 POP POP PUSH1 0x1 DUP2 ADD SWAP1 POP PUSH2 0xA7A JUMP JUMPDEST POP DUP6 SWAP4 POP POP POP POP SWAP3 SWAP2 POP POP JUMP JUMPDEST PUSH1 0x0 PUSH1 0x40 DUP3 ADD SWAP1 POP DUP2 DUP2 SUB PUSH1 0x0 DUP4 ADD MSTORE PUSH2 0xACE DUP2 DUP6 PUSH2 0x998 JUMP JUMPDEST SWAP1 POP DUP2 DUP2 SUB PUSH1 0x20 DUP4 ADD MSTORE PUSH2 0xAE2 DUP2 DUP5 PUSH2 0xA56 JUMP JUMPDEST SWAP1 POP SWAP4 SWAP3 POP POP POP JUMP JUMPDEST PUSH1 0x0 DUP1 REVERT JUMPDEST PUSH2 0xAF9 DUP2 PUSH2 0x8D2 JUMP JUMPDEST DUP2 EQ PUSH2 0xB04 JUMPI PUSH1 0x0 DUP1 REVERT JUMPDEST POP JUMP JUMPDEST PUSH1 0x0 DUP2 CALLDATALOAD SWAP1 POP PUSH2 0xB16 DUP2 PUSH2 0xAF0 JUMP JUMPDEST SWAP3 SWAP2 POP POP JUMP JUMPDEST PUSH1 0x0 DUP1 PUSH1 0x40 DUP4 DUP6 SUB SLT ISZERO PUSH2 0xB33 JUMPI PUSH2 0xB32 PUSH2 0xAEB JUMP JUMPDEST JUMPDEST PUSH1 0x0 PUSH2 0xB41 DUP6 DUP3 DUP7 ADD PUSH2 0xB07 JUMP JUMPDEST SWAP3 POP POP PUSH1 0x20 PUSH2 0xB52 DUP6 DUP3 DUP7 ADD PUSH2 0xB07 JUMP JUMPDEST SWAP2 POP POP SWAP3 POP SWAP3 SWAP1 POP JUMP JUMPDEST PUSH32 0x4E487B7100000000000000000000000000000000000000000000000000000000 PUSH1 0x0 MSTORE PUSH1 0x41 PUSH1 0x4 MSTORE PUSH1 0x24 PUSH1 0x0 REVERT JUMPDEST PUSH32 0x4E487B7100000000000000000000000000000000000000000000000000000000 PUSH1 0x0 MSTORE PUSH1 0x32 PUSH1 0x4 MSTORE PUSH1 0x24 PUSH1 0x0 REVERT JUMPDEST PUSH32 0x4E487B7100000000000000000000000000000000000000000000000000000000 PUSH1 0x0 MSTORE PUSH1 0x11 PUSH1 0x4 MSTORE PUSH1 0x24 PUSH1 0x0 REVERT JUMPDEST PUSH1 0x0 PUSH2 0xBF4 DUP3 PUSH2 0x8D2 JUMP JUMPDEST SWAP2 POP PUSH32 0xFFFFFFFFFFFFFFFFFFFFFFFFFFFFFFFFFFFFFFFFFFFFFFFFFFFFFFFFFFFFFFFF DUP3 SUB PUSH2 0xC26 JUMPI PUSH2 0xC25 PUSH2 0xBBA JUMP JUMPDEST JUMPDEST PUSH1 0x1 DUP3 ADD SWAP1 POP SWAP2 SWAP1 POP JUMP JUMPDEST PUSH1 0x0 DUP3 DUP3 MSTORE PUSH1 0x20 DUP3 ADD SWAP1 POP SWAP3 SWAP2 POP POP JUMP JUMPDEST PUSH32 0x43414D504149474E205354494C4C2052554E4E494E4700000000000000000000 PUSH1 0x0 DUP3 ADD MSTORE POP JUMP JUMPDEST PUSH1 0x0 PUSH2 0xC78 PUSH1 0x16 DUP4 PUSH2 0xC31 JUMP JUMPDEST SWAP2 POP PUSH2 0xC83 DUP3 PUSH2 0xC42 JUMP JUMPDEST PUSH1 0x20 DUP3 ADD SWAP1 POP SWAP2 SWAP1 POP JUMP JUMPDEST PUSH1 0x0 PUSH1 0x20 DUP3 ADD SWAP1 POP DUP2 DUP2 SUB PUSH1 0x0 DUP4 ADD MSTORE PUSH2 0xCA7 DUP2 PUSH2 0xC6B JUMP JUMPDEST SWAP1 POP SWAP2 SWAP1 POP JUMP JUMPDEST PUSH32 0x43414D504149474E204641494C45440000000000000000000000000000000000 PUSH1 0x0 DUP3 ADD MSTORE POP JUMP JUMPDEST PUSH1 0x0 PUSH2 0xCE4 PUSH1 0xF DUP4 PUSH2 0xC31 JUMP JUMPDEST SWAP2 POP PUSH2 0xCEF DUP3 PUSH2 0xCAE JUMP JUMPDEST PUSH1 0x20 DUP3 ADD SWAP1 POP SWAP2 SWAP1 POP JUMP JUMPDEST PUSH1 0x0 PUSH1 0x20 DUP3 ADD SWAP1 POP DUP2 DUP2 SUB PUSH1 0x0 DUP4 ADD MSTORE PUSH2 0xD13 DUP2 PUSH2 0xCD7 JUMP JUMPDEST SWAP1 POP SWAP2 SWAP1 POP JUMP JUMPDEST PUSH32 0x4E4F5420454E4F5547482046554E445320544F20574954484452415700000000 PUSH1 0x0 DUP3 ADD MSTORE POP JUMP JUMPDEST PUSH1 0x0 PUSH2 0xD50 PUSH1 0x1C DUP4 PUSH2 0xC31 JUMP JUMPDEST SWAP2 POP PUSH2 0xD5B DUP3 PUSH2 0xD1A JUMP JUMPDEST PUSH1 0x20 DUP3 ADD SWAP1 POP SWAP2 SWAP1 POP JUMP JUMPDEST PUSH1 0x0 PUSH1 0x20 DUP3 ADD SWAP1 POP DUP2 DUP2 SUB PUSH1 0x0 DUP4 ADD MSTORE PUSH2 0xD7F DUP2 PUSH2 0xD43 JUMP JUMPDEST SWAP1 POP SWAP2 SWAP1 POP JUMP JUMPDEST PUSH32 0x4E4F2046554E4453204154544143484544000000000000000000000000000000 PUSH1 0x0 DUP3 ADD MSTORE POP JUMP JUMPDEST PUSH1 0x0 PUSH2 0xDBC PUSH1 0x11 DUP4 PUSH2 0xC31 JUMP JUMPDEST SWAP2 POP PUSH2 0xDC7 DUP3 PUSH2 0xD86 JUMP JUMPDEST PUSH1 0x20 DUP3 ADD SWAP1 POP SWAP2 SWAP1 POP JUMP JUMPDEST PUSH1 0x0 PUSH1 0x20 DUP3 ADD SWAP1 POP DUP2 DUP2 SUB PUSH1 0x0 DUP4 ADD MSTORE PUSH2 0xDEB DUP2 PUSH2 0xDAF JUMP JUMPDEST SWAP1 POP SWAP2 SWAP1 POP JUMP JUMPDEST PUSH1 0x0 PUSH2 0xDFD DUP3 PUSH2 0x8D2 JUMP JUMPDEST SWAP2 POP PUSH2 0xE08 DUP4 PUSH2 0x8D2 JUMP JUMPDEST SWAP3 POP DUP3 DUP3 ADD SWAP1 POP DUP1 DUP3 GT ISZERO PUSH2 0xE20 JUMPI PUSH2 0xE1F PUSH2 0xBBA JUMP JUMPDEST JUMPDEST SWAP3 SWAP2 POP POP JUMP INVALID LOG2 PUSH5 0x6970667358 0x22 SLT KECCAK256 PUSH10 0x553BD79F44910F31AC75 PC LOG1 DUP2 SHR MLOAD PUSH4 0x9235808C PUSH30 0xEDA2EAD5D4E5E470BC8164736F6C63430008120033000000000000000000 "
	},
	"Assembly": ".code\n  PUSH A0\t\t\tcontract InvestmentSmartContra...\n  PUSH 40\t\t\tcontract InvestmentSmartContra...\n  MSTORE \t\t\tcontract InvestmentSmartContra...\n  PUSH 5E4B7C08D32810282E1CB539E8B15173FB5E38C4\t\t\t0x5E4B7C08D32810282E1cB539e8b1...\n  PUSH FFFFFFFFFFFFFFFFFFFFFFFFFFFFFFFFFFFFFFFF\t\t\taddress immutable contractOwne...\n  AND \t\t\taddress immutable contractOwne...\n  PUSH 80\t\t\taddress immutable contractOwne...\n  SWAP1 \t\t\taddress immutable contractOwne...\n  PUSH FFFFFFFFFFFFFFFFFFFFFFFFFFFFFFFFFFFFFFFF\t\t\taddress immutable contractOwne...\n  AND \t\t\taddress immutable contractOwne...\n  DUP2 \t\t\taddress immutable contractOwne...\n  MSTORE \t\t\taddress immutable contractOwne...\n  POP \t\t\taddress immutable contractOwne...\n  CALLVALUE \t\t\tconstructor(uint256 _investmen...\n  DUP1 \t\t\tconstructor(uint256 _investmen...\n  ISZERO \t\t\tconstructor(uint256 _investmen...\n  PUSH [tag] 1\t\t\tconstructor(uint256 _investmen...\n  JUMPI \t\t\tconstructor(uint256 _investmen...\n  PUSH 0\t\t\tconstructor(uint256 _investmen...\n  DUP1 \t\t\tconstructor(uint256 _investmen...\n  REVERT \t\t\tconstructor(uint256 _investmen...\ntag 1\t\t\tconstructor(uint256 _investmen...\n  JUMPDEST \t\t\tconstructor(uint256 _investmen...\n  POP \t\t\tconstructor(uint256 _investmen...\n  PUSH 40\t\t\tconstructor(uint256 _investmen...\n  MLOAD \t\t\tconstructor(uint256 _investmen...\n  PUSHSIZE \t\t\tconstructor(uint256 _investmen...\n  CODESIZE \t\t\tconstructor(uint256 _investmen...\n  SUB \t\t\tconstructor(uint256 _investmen...\n  DUP1 \t\t\tconstructor(uint256 _investmen...\n  PUSHSIZE \t\t\tconstructor(uint256 _investmen...\n  DUP4 \t\t\tconstructor(uint256 _investmen...\n  CODECOPY \t\t\tconstructor(uint256 _investmen...\n  DUP2 \t\t\tconstructor(uint256 _investmen...\n  DUP2 \t\t\tconstructor(uint256 _investmen...\n  ADD \t\t\tconstructor(uint256 _investmen...\n  PUSH 40\t\t\tconstructor(uint256 _investmen...\n  MSTORE \t\t\tconstructor(uint256 _investmen...\n  DUP2 \t\t\tconstructor(uint256 _investmen...\n  ADD \t\t\tconstructor(uint256 _investmen...\n  SWAP1 \t\t\tconstructor(uint256 _investmen...\n  PUSH [tag] 2\t\t\tconstructor(uint256 _investmen...\n  SWAP2 \t\t\tconstructor(uint256 _investmen...\n  SWAP1 \t\t\tconstructor(uint256 _investmen...\n  PUSH [tag] 3\t\t\tconstructor(uint256 _investmen...\n  JUMP \t\t\tconstructor(uint256 _investmen...\ntag 2\t\t\tconstructor(uint256 _investmen...\n  JUMPDEST \t\t\tconstructor(uint256 _investmen...\n  CALLER \t\t\tmsg.sender\n  PUSH 0\t\t\tstartupOwner\n  DUP1 \t\t\tstartupOwner\n  PUSH 100\t\t\tstartupOwner = msg.sender\n  EXP \t\t\tstartupOwner = msg.sender\n  DUP2 \t\t\tstartupOwner = msg.sender\n  SLOAD \t\t\tstartupOwner = msg.sender\n  DUP2 \t\t\tstartupOwner = msg.sender\n  PUSH FFFFFFFFFFFFFFFFFFFFFFFFFFFFFFFFFFFFFFFF\t\t\tstartupOwner = msg.sender\n  MUL \t\t\tstartupOwner = msg.sender\n  NOT \t\t\tstartupOwner = msg.sender\n  AND \t\t\tstartupOwner = msg.sender\n  SWAP1 \t\t\tstartupOwner = msg.sender\n  DUP4 \t\t\tstartupOwner = msg.sender\n  PUSH FFFFFFFFFFFFFFFFFFFFFFFFFFFFFFFFFFFFFFFF\t\t\tstartupOwner = msg.sender\n  AND \t\t\tstartupOwner = msg.sender\n  MUL \t\t\tstartupOwner = msg.sender\n  OR \t\t\tstartupOwner = msg.sender\n  SWAP1 \t\t\tstartupOwner = msg.sender\n  SSTORE \t\t\tstartupOwner = msg.sender\n  POP \t\t\tstartupOwner = msg.sender\n  DUP3 \t\t\t_investmentGoal\n  PUSH 6\t\t\tinvestmentGoal\n  DUP2 \t\t\tinvestmentGoal = _investmentGo...\n  SWAP1 \t\t\tinvestmentGoal = _investmentGo...\n  SSTORE \t\t\tinvestmentGoal = _investmentGo...\n  POP \t\t\tinvestmentGoal = _investmentGo...\n  DUP2 \t\t\t_sharePercentage\n  PUSH 7\t\t\tsharePercentage\n  DUP2 \t\t\tsharePercentage = _sharePercen...\n  SWAP1 \t\t\tsharePercentage = _sharePercen...\n  SSTORE \t\t\tsharePercentage = _sharePercen...\n  POP \t\t\tsharePercentage = _sharePercen...\n  TIMESTAMP \t\t\tblock.timestamp\n  PUSH 3\t\t\tstartTime\n  DUP2 \t\t\tstartTime = block.timestamp\n  SWAP1 \t\t\tstartTime = block.timestamp\n  SSTORE \t\t\tstartTime = block.timestamp\n  POP \t\t\tstartTime = block.timestamp\n  DUP1 \t\t\t_endTime\n  PUSH 4\t\t\tendTime\n  DUP2 \t\t\tendTime = _endTime\n  SWAP1 \t\t\tendTime = _endTime\n  SSTORE \t\t\tendTime = _endTime\n  POP \t\t\tendTime = _endTime\n  POP \t\t\tconstructor(uint256 _investmen...\n  POP \t\t\tconstructor(uint256 _investmen...\n  POP \t\t\tconstructor(uint256 _investmen...\n  PUSH [tag] 6\t\t\tcontract InvestmentSmartContra...\n  JUMP \t\t\tcontract InvestmentSmartContra...\ntag 8\t\t\tt {\\n    struct Investor {\\n  ...\n  JUMPDEST \t\t\tt {\\n    struct Investor {\\n  ...\n  PUSH 0\t\t\to\n  DUP1 \t\t\te\n  REVERT \t\t\tmmutable con\ntag 10\t\t\tstorsBalances;\\n    mapping(ad...\n  JUMPDEST \t\t\tstorsBalances;\\n    mapping(ad...\n  PUSH 0\t\t\t uint25\n  DUP2 \t\t\trcent\n  SWAP1 \t\t\tinvestorsPercent\n  POP \t\t\tinvestorsPercent\n  SWAP2 \t\t\tstorsBalances;\\n    mapping(ad...\n  SWAP1 \t\t\tstorsBalances;\\n    mapping(ad...\n  POP \t\t\tstorsBalances;\\n    mapping(ad...\n  JUMP \t\t\tstorsBalances;\\n    mapping(ad...\ntag 11\t\t\tnt256 private startTime;\\n    ...\n  JUMPDEST \t\t\tnt256 private startTime;\\n    ...\n  PUSH [tag] 19\t\t\t tokensCollected;\\n    ui\n  DUP2 \t\t\t    u\n  PUSH [tag] 10\t\t\t tokensCollected;\\n    ui\n  JUMP \t\t\t tokensCollected;\\n    ui\ntag 19\t\t\t tokensCollected;\\n    ui\n  JUMPDEST \t\t\t tokensCollected;\\n    ui\n  DUP2 \t\t\tpriva\n  EQ \t\t\t56 private tokensCollected;\\n ...\n  PUSH [tag] 20\t\t\t\\n    uint256 private tokensCo...\n  JUMPI \t\t\t\\n    uint256 private tokensCo...\n  PUSH 0\t\t\tn\n  DUP1 \t\t\te\n  REVERT \t\t\t private inv\ntag 20\t\t\t\\n    uint256 private tokensCo...\n  JUMPDEST \t\t\t\\n    uint256 private tokensCo...\n  POP \t\t\tnt256 private startTime;\\n    ...\n  JUMP \t\t\tnt256 private startTime;\\n    ...\ntag 12\t\t\t   uint256 private sharePercen...\n  JUMPDEST \t\t\t   uint256 private sharePercen...\n  PUSH 0\t\t\t inve\n  DUP2 \t\t\tr(uint\n  MLOAD \t\t\ttructor(uint2\n  SWAP1 \t\t\t\\n    constructor(uint2\n  POP \t\t\t\\n    constructor(uint2\n  PUSH [tag] 22\t\t\ttmentGoal, uint256 _sharePerce...\n  DUP2 \t\t\trcent\n  PUSH [tag] 11\t\t\ttmentGoal, uint256 _sharePerce...\n  JUMP \t\t\ttmentGoal, uint256 _sharePerce...\ntag 22\t\t\ttmentGoal, uint256 _sharePerce...\n  JUMPDEST \t\t\ttmentGoal, uint256 _sharePerce...\n  SWAP3 \t\t\t   uint256 private sharePercen...\n  SWAP2 \t\t\t   uint256 private sharePercen...\n  POP \t\t\t   uint256 private sharePercen...\n  POP \t\t\t   uint256 private sharePercen...\n  JUMP \t\t\t   uint256 private sharePercen...\ntag 3\t\t\t_endTime) {\\n        startupOw...\n  JUMPDEST \t\t\t_endTime) {\\n        startupOw...\n  PUSH 0\t\t\t\\n     \n  DUP1 \t\t\t share\n  PUSH 0\t\t\trcenta\n  PUSH 60\t\t\tbl\n  DUP5 \t\t\tstartTime\n  DUP7 \t\t\t\\n      \n  SUB \t\t\tage;\\n        startTime \n  SLT \t\t\tcentage;\\n        startTime = ...\n  ISZERO \t\t\tPercentage;\\n        startTime...\n  PUSH [tag] 24\t\t\tPercentage;\\n        startTime...\n  JUMPI \t\t\tPercentage;\\n        startTime...\n  PUSH [tag] 25\t\t\ttimestamp;\\n        endTime = ...\n  PUSH [tag] 8\t\t\ttimestamp;\\n        endTime = ...\n  JUMP \t\t\ttimestamp;\\n        endTime = ...\ntag 25\t\t\ttimestamp;\\n        endTime = ...\n  JUMPDEST \t\t\ttimestamp;\\n        endTime = ...\ntag 24\t\t\tPercentage;\\n        startTime...\n  JUMPDEST \t\t\tPercentage;\\n        startTime...\n  PUSH 0\t\t\t=\n  PUSH [tag] 26\t\t\tinvestmentAmount == 0) {\\n    ...\n  DUP7 \t\t\tTACHED\"\n  DUP3 \t\t\t FUNDS\n  DUP8 \t\t\t revert(\"\n  ADD \t\t\t     revert(\"NO FUNDS \n  PUSH [tag] 12\t\t\tinvestmentAmount == 0) {\\n    ...\n  JUMP \t\t\tinvestmentAmount == 0) {\\n    ...\ntag 26\t\t\tinvestmentAmount == 0) {\\n    ...\n  JUMPDEST \t\t\tinvestmentAmount == 0) {\\n    ...\n  SWAP4 \t\t\t      if (investmentAmount == ...\n  POP \t\t\t      if (investmentAmount == ...\n  POP \t\t\t    uint256 investmentAmount =...\n  PUSH 20\t\t\t m\n  PUSH [tag] 27\t\t\tnvestorsList.push(investor);\\n...\n  DUP7 \t\t\tes[inve\n  DUP3 \t\t\torsBal\n  DUP8 \t\t\t     inve\n  ADD \t\t\t         investorsBala\n  PUSH [tag] 12\t\t\tnvestorsList.push(investor);\\n...\n  JUMP \t\t\tnvestorsList.push(investor);\\n...\ntag 27\t\t\tnvestorsList.push(investor);\\n...\n  JUMPDEST \t\t\tnvestorsList.push(investor);\\n...\n  SWAP3 \t\t\t         investorsList.push(in...\n  POP \t\t\t         investorsList.push(in...\n  POP \t\t\t           address investor = ...\n  PUSH 40\t\t\tct\n  PUSH [tag] 28\t\t\t        }\\n    }\\n\\n    functi...\n  DUP7 \t\t\t finalA\n  DUP3 \t\t\tr(uint\n  DUP8 \t\t\tawStartup\n  ADD \t\t\tthdrawStartupper(uint2\n  PUSH [tag] 12\t\t\t        }\\n    }\\n\\n    functi...\n  JUMP \t\t\t        }\\n    }\\n\\n    functi...\ntag 28\t\t\t        }\\n    }\\n\\n    functi...\n  JUMPDEST \t\t\t        }\\n    }\\n\\n    functi...\n  SWAP2 \t\t\tntAmount;\\n        }\\n    }\\n\\...\n  POP \t\t\tntAmount;\\n        }\\n    }\\n\\...\n  POP \t\t\tount;\\n            tokensColle...\n  SWAP3 \t\t\t_endTime) {\\n        startupOw...\n  POP \t\t\t_endTime) {\\n        startupOw...\n  SWAP3 \t\t\t_endTime) {\\n        startupOw...\n  POP \t\t\t_endTime) {\\n        startupOw...\n  SWAP3 \t\t\t_endTime) {\\n        startupOw...\n  JUMP \t\t\t_endTime) {\\n        startupOw...\ntag 6\t\t\tcontract InvestmentSmartContra...\n  JUMPDEST \t\t\tcontract InvestmentSmartContra...\n  PUSH 80\t\t\tcontract InvestmentSmartContra...\n  MLOAD \t\t\tcontract InvestmentSmartContra...\n  PUSH #[$] 0000000000000000000000000000000000000000000000000000000000000000\t\t\tcontract InvestmentSmartContra...\n  PUSH [$] 0000000000000000000000000000000000000000000000000000000000000000\t\t\tcontract InvestmentSmartContra...\n  PUSH 0\t\t\tcontract InvestmentSmartContra...\n  CODECOPY \t\t\tcontract InvestmentSmartContra...\n  PUSH 0\t\t\tcontract InvestmentSmartContra...\n  ASSIGNIMMUTABLE 9\t\t\tcontract InvestmentSmartContra...\n  PUSH #[$] 0000000000000000000000000000000000000000000000000000000000000000\t\t\tcontract InvestmentSmartContra...\n  PUSH 0\t\t\tcontract InvestmentSmartContra...\n  RETURN \t\t\tcontract InvestmentSmartContra...\n.data\n  0:\n    .code\n      PUSH 80\t\t\tcontract InvestmentSmartContra...\n      PUSH 40\t\t\tcontract InvestmentSmartContra...\n      MSTORE \t\t\tcontract InvestmentSmartContra...\n      PUSH 4\t\t\tcontract InvestmentSmartContra...\n      CALLDATASIZE \t\t\tcontract InvestmentSmartContra...\n      LT \t\t\tcontract InvestmentSmartContra...\n      PUSH [tag] 1\t\t\tcontract InvestmentSmartContra...\n      JUMPI \t\t\tcontract InvestmentSmartContra...\n      PUSH 0\t\t\tcontract InvestmentSmartContra...\n      CALLDATALOAD \t\t\tcontract InvestmentSmartContra...\n      PUSH E0\t\t\tcontract InvestmentSmartContra...\n      SHR \t\t\tcontract InvestmentSmartContra...\n      DUP1 \t\t\tcontract InvestmentSmartContra...\n      PUSH B9ECB28A\t\t\tcontract InvestmentSmartContra...\n      GT \t\t\tcontract InvestmentSmartContra...\n      PUSH [tag] 9\t\t\tcontract InvestmentSmartContra...\n      JUMPI \t\t\tcontract InvestmentSmartContra...\n      DUP1 \t\t\tcontract InvestmentSmartContra...\n      PUSH B9ECB28A\t\t\tcontract InvestmentSmartContra...\n      EQ \t\t\tcontract InvestmentSmartContra...\n      PUSH [tag] 5\t\t\tcontract InvestmentSmartContra...\n      JUMPI \t\t\tcontract InvestmentSmartContra...\n      DUP1 \t\t\tcontract InvestmentSmartContra...\n      PUSH C228460C\t\t\tcontract InvestmentSmartContra...\n      EQ \t\t\tcontract InvestmentSmartContra...\n      PUSH [tag] 6\t\t\tcontract InvestmentSmartContra...\n      JUMPI \t\t\tcontract InvestmentSmartContra...\n      DUP1 \t\t\tcontract InvestmentSmartContra...\n      PUSH E8B5E51F\t\t\tcontract InvestmentSmartContra...\n      EQ \t\t\tcontract InvestmentSmartContra...\n      PUSH [tag] 7\t\t\tcontract InvestmentSmartContra...\n      JUMPI \t\t\tcontract InvestmentSmartContra...\n      DUP1 \t\t\tcontract InvestmentSmartContra...\n      PUSH EAD0C019\t\t\tcontract InvestmentSmartContra...\n      EQ \t\t\tcontract InvestmentSmartContra...\n      PUSH [tag] 8\t\t\tcontract InvestmentSmartContra...\n      JUMPI \t\t\tcontract InvestmentSmartContra...\n      PUSH [tag] 1\t\t\tcontract InvestmentSmartContra...\n      JUMP \t\t\tcontract InvestmentSmartContra...\n    tag 9\t\t\tcontract InvestmentSmartContra...\n      JUMPDEST \t\t\tcontract InvestmentSmartContra...\n      DUP1 \t\t\tcontract InvestmentSmartContra...\n      PUSH 5CFB5FF5\t\t\tcontract InvestmentSmartContra...\n      EQ \t\t\tcontract InvestmentSmartContra...\n      PUSH [tag] 2\t\t\tcontract InvestmentSmartContra...\n      JUMPI \t\t\tcontract InvestmentSmartContra...\n      DUP1 \t\t\tcontract InvestmentSmartContra...\n      PUSH 64D58439\t\t\tcontract InvestmentSmartContra...\n      EQ \t\t\tcontract InvestmentSmartContra...\n      PUSH [tag] 3\t\t\tcontract InvestmentSmartContra...\n      JUMPI \t\t\tcontract InvestmentSmartContra...\n      DUP1 \t\t\tcontract InvestmentSmartContra...\n      PUSH 8A6B607A\t\t\tcontract InvestmentSmartContra...\n      EQ \t\t\tcontract InvestmentSmartContra...\n      PUSH [tag] 4\t\t\tcontract InvestmentSmartContra...\n      JUMPI \t\t\tcontract InvestmentSmartContra...\n    tag 1\t\t\tcontract InvestmentSmartContra...\n      JUMPDEST \t\t\tcontract InvestmentSmartContra...\n      PUSH 0\t\t\tcontract InvestmentSmartContra...\n      DUP1 \t\t\tcontract InvestmentSmartContra...\n      REVERT \t\t\tcontract InvestmentSmartContra...\n    tag 2\t\t\tfunction showAmount() external...\n      JUMPDEST \t\t\tfunction showAmount() external...\n      CALLVALUE \t\t\tfunction showAmount() external...\n      DUP1 \t\t\tfunction showAmount() external...\n      ISZERO \t\t\tfunction showAmount() external...\n      PUSH [tag] 10\t\t\tfunction showAmount() external...\n      JUMPI \t\t\tfunction showAmount() external...\n      PUSH 0\t\t\tfunction showAmount() external...\n      DUP1 \t\t\tfunction showAmount() external...\n      REVERT \t\t\tfunction showAmount() external...\n    tag 10\t\t\tfunction showAmount() external...\n      JUMPDEST \t\t\tfunction showAmount() external...\n      POP \t\t\tfunction showAmount() external...\n      PUSH [tag] 11\t\t\tfunction showAmount() external...\n      PUSH [tag] 12\t\t\tfunction showAmount() external...\n      JUMP \t\t\tfunction showAmount() external...\n    tag 11\t\t\tfunction showAmount() external...\n      JUMPDEST \t\t\tfunction showAmount() external...\n      PUSH 40\t\t\tfunction showAmount() external...\n      MLOAD \t\t\tfunction showAmount() external...\n      PUSH [tag] 13\t\t\tfunction showAmount() external...\n      SWAP2 \t\t\tfunction showAmount() external...\n      SWAP1 \t\t\tfunction showAmount() external...\n      PUSH [tag] 14\t\t\tfunction showAmount() external...\n      JUMP \t\t\tfunction showAmount() external...\n    tag 13\t\t\tfunction showAmount() external...\n      JUMPDEST \t\t\tfunction showAmount() external...\n      PUSH 40\t\t\tfunction showAmount() external...\n      MLOAD \t\t\tfunction showAmount() external...\n      DUP1 \t\t\tfunction showAmount() external...\n      SWAP2 \t\t\tfunction showAmount() external...\n      SUB \t\t\tfunction showAmount() external...\n      SWAP1 \t\t\tfunction showAmount() external...\n      RETURN \t\t\tfunction showAmount() external...\n    tag 3\t\t\tfunction showInvestors() exter...\n      JUMPDEST \t\t\tfunction showInvestors() exter...\n      CALLVALUE \t\t\tfunction showInvestors() exter...\n      DUP1 \t\t\tfunction showInvestors() exter...\n      ISZERO \t\t\tfunction showInvestors() exter...\n      PUSH [tag] 15\t\t\tfunction showInvestors() exter...\n      JUMPI \t\t\tfunction showInvestors() exter...\n      PUSH 0\t\t\tfunction showInvestors() exter...\n      DUP1 \t\t\tfunction showInvestors() exter...\n      REVERT \t\t\tfunction showInvestors() exter...\n    tag 15\t\t\tfunction showInvestors() exter...\n      JUMPDEST \t\t\tfunction showInvestors() exter...\n      POP \t\t\tfunction showInvestors() exter...\n      PUSH [tag] 16\t\t\tfunction showInvestors() exter...\n      PUSH [tag] 17\t\t\tfunction showInvestors() exter...\n      JUMP \t\t\tfunction showInvestors() exter...\n    tag 16\t\t\tfunction showInvestors() exter...\n      JUMPDEST \t\t\tfunction showInvestors() exter...\n      PUSH 40\t\t\tfunction showInvestors() exter...\n      MLOAD \t\t\tfunction showInvestors() exter...\n      PUSH [tag] 18\t\t\tfunction showInvestors() exter...\n      SWAP3 \t\t\tfunction showInvestors() exter...\n      SWAP2 \t\t\tfunction showInvestors() exter...\n      SWAP1 \t\t\tfunction showInvestors() exter...\n      PUSH [tag] 19\t\t\tfunction showInvestors() exter...\n      JUMP \t\t\tfunction showInvestors() exter...\n    tag 18\t\t\tfunction showInvestors() exter...\n      JUMPDEST \t\t\tfunction showInvestors() exter...\n      PUSH 40\t\t\tfunction showInvestors() exter...\n      MLOAD \t\t\tfunction showInvestors() exter...\n      DUP1 \t\t\tfunction showInvestors() exter...\n      SWAP2 \t\t\tfunction showInvestors() exter...\n      SUB \t\t\tfunction showInvestors() exter...\n      SWAP1 \t\t\tfunction showInvestors() exter...\n      RETURN \t\t\tfunction showInvestors() exter...\n    tag 4\t\t\tfunction showTime() external v...\n      JUMPDEST \t\t\tfunction showTime() external v...\n      CALLVALUE \t\t\tfunction showTime() external v...\n      DUP1 \t\t\tfunction showTime() external v...\n      ISZERO \t\t\tfunction showTime() external v...\n      PUSH [tag] 20\t\t\tfunction showTime() external v...\n      JUMPI \t\t\tfunction showTime() external v...\n      PUSH 0\t\t\tfunction showTime() external v...\n      DUP1 \t\t\tfunction showTime() external v...\n      REVERT \t\t\tfunction showTime() external v...\n    tag 20\t\t\tfunction showTime() external v...\n      JUMPDEST \t\t\tfunction showTime() external v...\n      POP \t\t\tfunction showTime() external v...\n      PUSH [tag] 21\t\t\tfunction showTime() external v...\n      PUSH [tag] 22\t\t\tfunction showTime() external v...\n      JUMP \t\t\tfunction showTime() external v...\n    tag 21\t\t\tfunction showTime() external v...\n      JUMPDEST \t\t\tfunction showTime() external v...\n      PUSH 40\t\t\tfunction showTime() external v...\n      MLOAD \t\t\tfunction showTime() external v...\n      PUSH [tag] 23\t\t\tfunction showTime() external v...\n      SWAP2 \t\t\tfunction showTime() external v...\n      SWAP1 \t\t\tfunction showTime() external v...\n      PUSH [tag] 14\t\t\tfunction showTime() external v...\n      JUMP \t\t\tfunction showTime() external v...\n    tag 23\t\t\tfunction showTime() external v...\n      JUMPDEST \t\t\tfunction showTime() external v...\n      PUSH 40\t\t\tfunction showTime() external v...\n      MLOAD \t\t\tfunction showTime() external v...\n      DUP1 \t\t\tfunction showTime() external v...\n      SWAP2 \t\t\tfunction showTime() external v...\n      SUB \t\t\tfunction showTime() external v...\n      SWAP1 \t\t\tfunction showTime() external v...\n      RETURN \t\t\tfunction showTime() external v...\n    tag 5\t\t\tfunction finishStartup(uint256...\n      JUMPDEST \t\t\tfunction finishStartup(uint256...\n      CALLVALUE \t\t\tfunction finishStartup(uint256...\n      DUP1 \t\t\tfunction finishStartup(uint256...\n      ISZERO \t\t\tfunction finishStartup(uint256...\n      PUSH [tag] 24\t\t\tfunction finishStartup(uint256...\n      JUMPI \t\t\tfunction finishStartup(uint256...\n      PUSH 0\t\t\tfunction finishStartup(uint256...\n      DUP1 \t\t\tfunction finishStartup(uint256...\n      REVERT \t\t\tfunction finishStartup(uint256...\n    tag 24\t\t\tfunction finishStartup(uint256...\n      JUMPDEST \t\t\tfunction finishStartup(uint256...\n      POP \t\t\tfunction finishStartup(uint256...\n      PUSH [tag] 25\t\t\tfunction finishStartup(uint256...\n      PUSH 4\t\t\tfunction finishStartup(uint256...\n      DUP1 \t\t\tfunction finishStartup(uint256...\n      CALLDATASIZE \t\t\tfunction finishStartup(uint256...\n      SUB \t\t\tfunction finishStartup(uint256...\n      DUP2 \t\t\tfunction finishStartup(uint256...\n      ADD \t\t\tfunction finishStartup(uint256...\n      SWAP1 \t\t\tfunction finishStartup(uint256...\n      PUSH [tag] 26\t\t\tfunction finishStartup(uint256...\n      SWAP2 \t\t\tfunction finishStartup(uint256...\n      SWAP1 \t\t\tfunction finishStartup(uint256...\n      PUSH [tag] 27\t\t\tfunction finishStartup(uint256...\n      JUMP \t\t\tfunction finishStartup(uint256...\n    tag 26\t\t\tfunction finishStartup(uint256...\n      JUMPDEST \t\t\tfunction finishStartup(uint256...\n      PUSH [tag] 28\t\t\tfunction finishStartup(uint256...\n      JUMP \t\t\tfunction finishStartup(uint256...\n    tag 25\t\t\tfunction finishStartup(uint256...\n      JUMPDEST \t\t\tfunction finishStartup(uint256...\n      STOP \t\t\tfunction finishStartup(uint256...\n    tag 6\t\t\tfunction withdrawInvestor() ex...\n      JUMPDEST \t\t\tfunction withdrawInvestor() ex...\n      CALLVALUE \t\t\tfunction withdrawInvestor() ex...\n      DUP1 \t\t\tfunction withdrawInvestor() ex...\n      ISZERO \t\t\tfunction withdrawInvestor() ex...\n      PUSH [tag] 29\t\t\tfunction withdrawInvestor() ex...\n      JUMPI \t\t\tfunction withdrawInvestor() ex...\n      PUSH 0\t\t\tfunction withdrawInvestor() ex...\n      DUP1 \t\t\tfunction withdrawInvestor() ex...\n      REVERT \t\t\tfunction withdrawInvestor() ex...\n    tag 29\t\t\tfunction withdrawInvestor() ex...\n      JUMPDEST \t\t\tfunction withdrawInvestor() ex...\n      POP \t\t\tfunction withdrawInvestor() ex...\n      PUSH [tag] 30\t\t\tfunction withdrawInvestor() ex...\n      PUSH [tag] 31\t\t\tfunction withdrawInvestor() ex...\n      JUMP \t\t\tfunction withdrawInvestor() ex...\n    tag 30\t\t\tfunction withdrawInvestor() ex...\n      JUMPDEST \t\t\tfunction withdrawInvestor() ex...\n      STOP \t\t\tfunction withdrawInvestor() ex...\n    tag 7\t\t\tfunction invest() external pay...\n      JUMPDEST \t\t\tfunction invest() external pay...\n      PUSH [tag] 32\t\t\tfunction invest() external pay...\n      PUSH [tag] 33\t\t\tfunction invest() external pay...\n      JUMP \t\t\tfunction invest() external pay...\n    tag 32\t\t\tfunction invest() external pay...\n      JUMPDEST \t\t\tfunction invest() external pay...\n      STOP \t\t\tfunction invest() external pay...\n    tag 8\t\t\tfunction withdrawTest() extern...\n      JUMPDEST \t\t\tfunction withdrawTest() extern...\n      CALLVALUE \t\t\tfunction withdrawTest() extern...\n      DUP1 \t\t\tfunction withdrawTest() extern...\n      ISZERO \t\t\tfunction withdrawTest() extern...\n      PUSH [tag] 34\t\t\tfunction withdrawTest() extern...\n      JUMPI \t\t\tfunction withdrawTest() extern...\n      PUSH 0\t\t\tfunction withdrawTest() extern...\n      DUP1 \t\t\tfunction withdrawTest() extern...\n      REVERT \t\t\tfunction withdrawTest() extern...\n    tag 34\t\t\tfunction withdrawTest() extern...\n      JUMPDEST \t\t\tfunction withdrawTest() extern...\n      POP \t\t\tfunction withdrawTest() extern...\n      PUSH [tag] 35\t\t\tfunction withdrawTest() extern...\n      PUSH [tag] 36\t\t\tfunction withdrawTest() extern...\n      JUMP \t\t\tfunction withdrawTest() extern...\n    tag 35\t\t\tfunction withdrawTest() extern...\n      JUMPDEST \t\t\tfunction withdrawTest() extern...\n      STOP \t\t\tfunction withdrawTest() extern...\n    tag 12\t\t\tfunction showAmount() external...\n      JUMPDEST \t\t\tfunction showAmount() external...\n      PUSH 0\t\t\tuint256\n      PUSH 5\t\t\ttokensCollected\n      SLOAD \t\t\ttokensCollected\n      SWAP1 \t\t\treturn tokensCollected\n      POP \t\t\treturn tokensCollected\n      SWAP1 \t\t\tfunction showAmount() external...\n      JUMP \t\t\tfunction showAmount() external...\n    tag 17\t\t\tfunction showInvestors() exter...\n      JUMPDEST \t\t\tfunction showInvestors() exter...\n      PUSH 60\t\t\taddress[] memory\n      DUP1 \t\t\tuint256[] memory\n      PUSH 0\t\t\tuint256[] memory balances\n      PUSH 8\t\t\tinvestorsList\n      DUP1 \t\t\tinvestorsList.length\n      SLOAD \t\t\tinvestorsList.length\n      SWAP1 \t\t\tinvestorsList.length\n      POP \t\t\tinvestorsList.length\n      PUSH FFFFFFFFFFFFFFFF\t\t\tnew uint256[](investorsList.le...\n      DUP2 \t\t\tnew uint256[](investorsList.le...\n      GT \t\t\tnew uint256[](investorsList.le...\n      ISZERO \t\t\tnew uint256[](investorsList.le...\n      PUSH [tag] 39\t\t\tnew uint256[](investorsList.le...\n      JUMPI \t\t\tnew uint256[](investorsList.le...\n      PUSH [tag] 40\t\t\tnew uint256[](investorsList.le...\n      PUSH [tag] 41\t\t\tnew uint256[](investorsList.le...\n      JUMP \t\t\tnew uint256[](investorsList.le...\n    tag 40\t\t\tnew uint256[](investorsList.le...\n      JUMPDEST \t\t\tnew uint256[](investorsList.le...\n    tag 39\t\t\tnew uint256[](investorsList.le...\n      JUMPDEST \t\t\tnew uint256[](investorsList.le...\n      PUSH 40\t\t\tnew uint256[](investorsList.le...\n      MLOAD \t\t\tnew uint256[](investorsList.le...\n      SWAP1 \t\t\tnew uint256[](investorsList.le...\n      DUP1 \t\t\tnew uint256[](investorsList.le...\n      DUP3 \t\t\tnew uint256[](investorsList.le...\n      MSTORE \t\t\tnew uint256[](investorsList.le...\n      DUP1 \t\t\tnew uint256[](investorsList.le...\n      PUSH 20\t\t\tnew uint256[](investorsList.le...\n      MUL \t\t\tnew uint256[](investorsList.le...\n      PUSH 20\t\t\tnew uint256[](investorsList.le...\n      ADD \t\t\tnew uint256[](investorsList.le...\n      DUP3 \t\t\tnew uint256[](investorsList.le...\n      ADD \t\t\tnew uint256[](investorsList.le...\n      PUSH 40\t\t\tnew uint256[](investorsList.le...\n      MSTORE \t\t\tnew uint256[](investorsList.le...\n      DUP1 \t\t\tnew uint256[](investorsList.le...\n      ISZERO \t\t\tnew uint256[](investorsList.le...\n      PUSH [tag] 42\t\t\tnew uint256[](investorsList.le...\n      JUMPI \t\t\tnew uint256[](investorsList.le...\n      DUP2 \t\t\tnew uint256[](investorsList.le...\n      PUSH 20\t\t\tnew uint256[](investorsList.le...\n      ADD \t\t\tnew uint256[](investorsList.le...\n      PUSH 20\t\t\tnew uint256[](investorsList.le...\n      DUP3 \t\t\tnew uint256[](investorsList.le...\n      MUL \t\t\tnew uint256[](investorsList.le...\n      DUP1 \t\t\tnew uint256[](investorsList.le...\n      CALLDATASIZE \t\t\tnew uint256[](investorsList.le...\n      DUP4 \t\t\tnew uint256[](investorsList.le...\n      CALLDATACOPY \t\t\tnew uint256[](investorsList.le...\n      DUP1 \t\t\tnew uint256[](investorsList.le...\n      DUP3 \t\t\tnew uint256[](investorsList.le...\n      ADD \t\t\tnew uint256[](investorsList.le...\n      SWAP2 \t\t\tnew uint256[](investorsList.le...\n      POP \t\t\tnew uint256[](investorsList.le...\n      POP \t\t\tnew uint256[](investorsList.le...\n      SWAP1 \t\t\tnew uint256[](investorsList.le...\n      POP \t\t\tnew uint256[](investorsList.le...\n    tag 42\t\t\tnew uint256[](investorsList.le...\n      JUMPDEST \t\t\tnew uint256[](investorsList.le...\n      POP \t\t\tnew uint256[](investorsList.le...\n      SWAP1 \t\t\tuint256[] memory balances = ne...\n      POP \t\t\tuint256[] memory balances = ne...\n      PUSH 0\t\t\tuint256 i\n    tag 43\t\t\tfor (uint256 i = 0; i < invest...\n      JUMPDEST \t\t\tfor (uint256 i = 0; i < invest...\n      PUSH 8\t\t\tinvestorsList\n      DUP1 \t\t\tinvestorsList.length\n      SLOAD \t\t\tinvestorsList.length\n      SWAP1 \t\t\tinvestorsList.length\n      POP \t\t\tinvestorsList.length\n      DUP2 \t\t\ti\n      LT \t\t\ti < investorsList.length\n      ISZERO \t\t\tfor (uint256 i = 0; i < invest...\n      PUSH [tag] 44\t\t\tfor (uint256 i = 0; i < invest...\n      JUMPI \t\t\tfor (uint256 i = 0; i < invest...\n      PUSH 1\t\t\tinvestorsBalances\n      PUSH 0\t\t\tinvestorsBalances[investorsLis...\n      PUSH 8\t\t\tinvestorsList\n      DUP4 \t\t\ti\n      DUP2 \t\t\tinvestorsList[i]\n      SLOAD \t\t\tinvestorsList[i]\n      DUP2 \t\t\tinvestorsList[i]\n      LT \t\t\tinvestorsList[i]\n      PUSH [tag] 46\t\t\tinvestorsList[i]\n      JUMPI \t\t\tinvestorsList[i]\n      PUSH [tag] 47\t\t\tinvestorsList[i]\n      PUSH [tag] 48\t\t\tinvestorsList[i]\n      JUMP \t\t\tinvestorsList[i]\n    tag 47\t\t\tinvestorsList[i]\n      JUMPDEST \t\t\tinvestorsList[i]\n    tag 46\t\t\tinvestorsList[i]\n      JUMPDEST \t\t\tinvestorsList[i]\n      SWAP1 \t\t\tinvestorsList[i]\n      PUSH 0\t\t\tinvestorsList[i]\n      MSTORE \t\t\tinvestorsList[i]\n      PUSH 20\t\t\tinvestorsList[i]\n      PUSH 0\t\t\tinvestorsList[i]\n      KECCAK256 \t\t\tinvestorsList[i]\n      ADD \t\t\tinvestorsList[i]\n      PUSH 0\t\t\tinvestorsList[i]\n      SWAP1 \t\t\tinvestorsList[i]\n      SLOAD \t\t\tinvestorsList[i]\n      SWAP1 \t\t\tinvestorsList[i]\n      PUSH 100\t\t\tinvestorsList[i]\n      EXP \t\t\tinvestorsList[i]\n      SWAP1 \t\t\tinvestorsList[i]\n      DIV \t\t\tinvestorsList[i]\n      PUSH FFFFFFFFFFFFFFFFFFFFFFFFFFFFFFFFFFFFFFFF\t\t\tinvestorsList[i]\n      AND \t\t\tinvestorsList[i]\n      PUSH FFFFFFFFFFFFFFFFFFFFFFFFFFFFFFFFFFFFFFFF\t\t\tinvestorsBalances[investorsLis...\n      AND \t\t\tinvestorsBalances[investorsLis...\n      PUSH FFFFFFFFFFFFFFFFFFFFFFFFFFFFFFFFFFFFFFFF\t\t\tinvestorsBalances[investorsLis...\n      AND \t\t\tinvestorsBalances[investorsLis...\n      DUP2 \t\t\tinvestorsBalances[investorsLis...\n      MSTORE \t\t\tinvestorsBalances[investorsLis...\n      PUSH 20\t\t\tinvestorsBalances[investorsLis...\n      ADD \t\t\tinvestorsBalances[investorsLis...\n      SWAP1 \t\t\tinvestorsBalances[investorsLis...\n      DUP2 \t\t\tinvestorsBalances[investorsLis...\n      MSTORE \t\t\tinvestorsBalances[investorsLis...\n      PUSH 20\t\t\tinvestorsBalances[investorsLis...\n      ADD \t\t\tinvestorsBalances[investorsLis...\n      PUSH 0\t\t\tinvestorsBalances[investorsLis...\n      KECCAK256 \t\t\tinvestorsBalances[investorsLis...\n      SLOAD \t\t\tinvestorsBalances[investorsLis...\n      DUP3 \t\t\tbalances\n      DUP3 \t\t\ti\n      DUP2 \t\t\tbalances[i]\n      MLOAD \t\t\tbalances[i]\n      DUP2 \t\t\tbalances[i]\n      LT \t\t\tbalances[i]\n      PUSH [tag] 50\t\t\tbalances[i]\n      JUMPI \t\t\tbalances[i]\n      PUSH [tag] 51\t\t\tbalances[i]\n      PUSH [tag] 48\t\t\tbalances[i]\n      JUMP \t\t\tbalances[i]\n    tag 51\t\t\tbalances[i]\n      JUMPDEST \t\t\tbalances[i]\n    tag 50\t\t\tbalances[i]\n      JUMPDEST \t\t\tbalances[i]\n      PUSH 20\t\t\tbalances[i]\n      MUL \t\t\tbalances[i]\n      PUSH 20\t\t\tbalances[i]\n      ADD \t\t\tbalances[i]\n      ADD \t\t\tbalances[i]\n      DUP2 \t\t\tbalances[i] = investorsBalance...\n      DUP2 \t\t\tbalances[i] = investorsBalance...\n      MSTORE \t\t\tbalances[i] = investorsBalance...\n      POP \t\t\tbalances[i] = investorsBalance...\n      POP \t\t\tbalances[i] = investorsBalance...\n      DUP1 \t\t\ti++\n      DUP1 \t\t\ti++\n      PUSH [tag] 52\t\t\ti++\n      SWAP1 \t\t\ti++\n      PUSH [tag] 53\t\t\ti++\n      JUMP \t\t\ti++\n    tag 52\t\t\ti++\n      JUMPDEST \t\t\ti++\n      SWAP2 \t\t\ti++\n      POP \t\t\ti++\n      POP \t\t\ti++\n      PUSH [tag] 43\t\t\tfor (uint256 i = 0; i < invest...\n      JUMP \t\t\tfor (uint256 i = 0; i < invest...\n    tag 44\t\t\tfor (uint256 i = 0; i < invest...\n      JUMPDEST \t\t\tfor (uint256 i = 0; i < invest...\n      POP \t\t\tfor (uint256 i = 0; i < invest...\n      PUSH 8\t\t\tinvestorsList\n      DUP2 \t\t\tbalances\n      DUP2 \t\t\treturn (investorsList, balance...\n      DUP1 \t\t\treturn (investorsList, balance...\n      SLOAD \t\t\treturn (investorsList, balance...\n      DUP1 \t\t\treturn (investorsList, balance...\n      PUSH 20\t\t\treturn (investorsList, balance...\n      MUL \t\t\treturn (investorsList, balance...\n      PUSH 20\t\t\treturn (investorsList, balance...\n      ADD \t\t\treturn (investorsList, balance...\n      PUSH 40\t\t\treturn (investorsList, balance...\n      MLOAD \t\t\treturn (investorsList, balance...\n      SWAP1 \t\t\treturn (investorsList, balance...\n      DUP2 \t\t\treturn (investorsList, balance...\n      ADD \t\t\treturn (investorsList, balance...\n      PUSH 40\t\t\treturn (investorsList, balance...\n      MSTORE \t\t\treturn (investorsList, balance...\n      DUP1 \t\t\treturn (investorsList, balance...\n      SWAP3 \t\t\treturn (investorsList, balance...\n      SWAP2 \t\t\treturn (investorsList, balance...\n      SWAP1 \t\t\treturn (investorsList, balance...\n      DUP2 \t\t\treturn (investorsList, balance...\n      DUP2 \t\t\treturn (investorsList, balance...\n      MSTORE \t\t\treturn (investorsList, balance...\n      PUSH 20\t\t\treturn (investorsList, balance...\n      ADD \t\t\treturn (investorsList, balance...\n      DUP3 \t\t\treturn (investorsList, balance...\n      DUP1 \t\t\treturn (investorsList, balance...\n      SLOAD \t\t\treturn (investorsList, balance...\n      DUP1 \t\t\treturn (investorsList, balance...\n      ISZERO \t\t\treturn (investorsList, balance...\n      PUSH [tag] 54\t\t\treturn (investorsList, balance...\n      JUMPI \t\t\treturn (investorsList, balance...\n      PUSH 20\t\t\treturn (investorsList, balance...\n      MUL \t\t\treturn (investorsList, balance...\n      DUP3 \t\t\treturn (investorsList, balance...\n      ADD \t\t\treturn (investorsList, balance...\n      SWAP2 \t\t\treturn (investorsList, balance...\n      SWAP1 \t\t\treturn (investorsList, balance...\n      PUSH 0\t\t\treturn (investorsList, balance...\n      MSTORE \t\t\treturn (investorsList, balance...\n      PUSH 20\t\t\treturn (investorsList, balance...\n      PUSH 0\t\t\treturn (investorsList, balance...\n      KECCAK256 \t\t\treturn (investorsList, balance...\n      SWAP1 \t\t\treturn (investorsList, balance...\n    tag 55\t\t\treturn (investorsList, balance...\n      JUMPDEST \t\t\treturn (investorsList, balance...\n      DUP2 \t\t\treturn (investorsList, balance...\n      PUSH 0\t\t\treturn (investorsList, balance...\n      SWAP1 \t\t\treturn (investorsList, balance...\n      SLOAD \t\t\treturn (investorsList, balance...\n      SWAP1 \t\t\treturn (investorsList, balance...\n      PUSH 100\t\t\treturn (investorsList, balance...\n      EXP \t\t\treturn (investorsList, balance...\n      SWAP1 \t\t\treturn (investorsList, balance...\n      DIV \t\t\treturn (investorsList, balance...\n      PUSH FFFFFFFFFFFFFFFFFFFFFFFFFFFFFFFFFFFFFFFF\t\t\treturn (investorsList, balance...\n      AND \t\t\treturn (investorsList, balance...\n      PUSH FFFFFFFFFFFFFFFFFFFFFFFFFFFFFFFFFFFFFFFF\t\t\treturn (investorsList, balance...\n      AND \t\t\treturn (investorsList, balance...\n      DUP2 \t\t\treturn (investorsList, balance...\n      MSTORE \t\t\treturn (investorsList, balance...\n      PUSH 20\t\t\treturn (investorsList, balance...\n      ADD \t\t\treturn (investorsList, balance...\n      SWAP1 \t\t\treturn (investorsList, balance...\n      PUSH 1\t\t\treturn (investorsList, balance...\n      ADD \t\t\treturn (investorsList, balance...\n      SWAP1 \t\t\treturn (investorsList, balance...\n      DUP1 \t\t\treturn (investorsList, balance...\n      DUP4 \t\t\treturn (investorsList, balance...\n      GT \t\t\treturn (investorsList, balance...\n      PUSH [tag] 55\t\t\treturn (investorsList, balance...\n      JUMPI \t\t\treturn (investorsList, balance...\n    tag 54\t\t\treturn (investorsList, balance...\n      JUMPDEST \t\t\treturn (investorsList, balance...\n      POP \t\t\treturn (investorsList, balance...\n      POP \t\t\treturn (investorsList, balance...\n      POP \t\t\treturn (investorsList, balance...\n      POP \t\t\treturn (investorsList, balance...\n      POP \t\t\treturn (investorsList, balance...\n      SWAP2 \t\t\treturn (investorsList, balance...\n      POP \t\t\treturn (investorsList, balance...\n      SWAP3 \t\t\treturn (investorsList, balance...\n      POP \t\t\treturn (investorsList, balance...\n      SWAP3 \t\t\treturn (investorsList, balance...\n      POP \t\t\treturn (investorsList, balance...\n      POP \t\t\treturn (investorsList, balance...\n      SWAP1 \t\t\tfunction showInvestors() exter...\n      SWAP2 \t\t\tfunction showInvestors() exter...\n      JUMP \t\t\tfunction showInvestors() exter...\n    tag 22\t\t\tfunction showTime() external v...\n      JUMPDEST \t\t\tfunction showTime() external v...\n      PUSH 0\t\t\tuint256\n      TIMESTAMP \t\t\tblock.timestamp\n      SWAP1 \t\t\treturn block.timestamp\n      POP \t\t\treturn block.timestamp\n      SWAP1 \t\t\tfunction showTime() external v...\n      JUMP \t\t\tfunction showTime() external v...\n    tag 28\t\t\tfunction finishStartup(uint256...\n      JUMPDEST \t\t\tfunction finishStartup(uint256...\n      TIMESTAMP \t\t\tblock.timestamp\n      PUSH 4\t\t\tendTime\n      SLOAD \t\t\tendTime\n      GT \t\t\tendTime > block.timestamp\n      ISZERO \t\t\tif (endTime > block.timestamp)...\n      PUSH [tag] 58\t\t\tif (endTime > block.timestamp)...\n      JUMPI \t\t\tif (endTime > block.timestamp)...\n      PUSH 40\t\t\trevert(\"CAMPAIGN STILL RUNNING...\n      MLOAD \t\t\trevert(\"CAMPAIGN STILL RUNNING...\n      PUSH 8C379A000000000000000000000000000000000000000000000000000000000\t\t\trevert(\"CAMPAIGN STILL RUNNING...\n      DUP2 \t\t\trevert(\"CAMPAIGN STILL RUNNING...\n      MSTORE \t\t\trevert(\"CAMPAIGN STILL RUNNING...\n      PUSH 4\t\t\trevert(\"CAMPAIGN STILL RUNNING...\n      ADD \t\t\trevert(\"CAMPAIGN STILL RUNNING...\n      PUSH [tag] 59\t\t\trevert(\"CAMPAIGN STILL RUNNING...\n      SWAP1 \t\t\trevert(\"CAMPAIGN STILL RUNNING...\n      PUSH [tag] 60\t\t\trevert(\"CAMPAIGN STILL RUNNING...\n      JUMP \t\t\trevert(\"CAMPAIGN STILL RUNNING...\n    tag 59\t\t\trevert(\"CAMPAIGN STILL RUNNING...\n      JUMPDEST \t\t\trevert(\"CAMPAIGN STILL RUNNING...\n      PUSH 40\t\t\trevert(\"CAMPAIGN STILL RUNNING...\n      MLOAD \t\t\trevert(\"CAMPAIGN STILL RUNNING...\n      DUP1 \t\t\trevert(\"CAMPAIGN STILL RUNNING...\n      SWAP2 \t\t\trevert(\"CAMPAIGN STILL RUNNING...\n      SUB \t\t\trevert(\"CAMPAIGN STILL RUNNING...\n      SWAP1 \t\t\trevert(\"CAMPAIGN STILL RUNNING...\n      REVERT \t\t\trevert(\"CAMPAIGN STILL RUNNING...\n    tag 58\t\t\tif (endTime > block.timestamp)...\n      JUMPDEST \t\t\tif (endTime > block.timestamp)...\n      PUSH 6\t\t\tinvestmentGoal\n      SLOAD \t\t\tinvestmentGoal\n      PUSH 5\t\t\ttokensCollected\n      SLOAD \t\t\ttokensCollected\n      LT \t\t\ttokensCollected < investmentGo...\n      ISZERO \t\t\tif (tokensCollected < investme...\n      PUSH [tag] 62\t\t\tif (tokensCollected < investme...\n      JUMPI \t\t\tif (tokensCollected < investme...\n      PUSH 0\t\t\tuint256 investorIndex\n    tag 63\t\t\tfor (uint256 investorIndex = 0...\n      JUMPDEST \t\t\tfor (uint256 investorIndex = 0...\n      PUSH 8\t\t\tinvestorsList\n      DUP1 \t\t\tinvestorsList.length\n      SLOAD \t\t\tinvestorsList.length\n      SWAP1 \t\t\tinvestorsList.length\n      POP \t\t\tinvestorsList.length\n      DUP2 \t\t\tinvestorIndex\n      LT \t\t\tinvestorIndex < investorsList....\n      ISZERO \t\t\tfor (uint256 investorIndex = 0...\n      PUSH [tag] 64\t\t\tfor (uint256 investorIndex = 0...\n      JUMPI \t\t\tfor (uint256 investorIndex = 0...\n      PUSH 0\t\t\tuint256 refundAmount\n      PUSH 1\t\t\tinvestorsBalances\n      PUSH 0\t\t\tinvestorsBalances[investorsLis...\n      PUSH 8\t\t\tinvestorsList\n      DUP5 \t\t\tinvestorIndex\n      DUP2 \t\t\tinvestorsList[investorIndex]\n      SLOAD \t\t\tinvestorsList[investorIndex]\n      DUP2 \t\t\tinvestorsList[investorIndex]\n      LT \t\t\tinvestorsList[investorIndex]\n      PUSH [tag] 66\t\t\tinvestorsList[investorIndex]\n      JUMPI \t\t\tinvestorsList[investorIndex]\n      PUSH [tag] 67\t\t\tinvestorsList[investorIndex]\n      PUSH [tag] 48\t\t\tinvestorsList[investorIndex]\n      JUMP \t\t\tinvestorsList[investorIndex]\n    tag 67\t\t\tinvestorsList[investorIndex]\n      JUMPDEST \t\t\tinvestorsList[investorIndex]\n    tag 66\t\t\tinvestorsList[investorIndex]\n      JUMPDEST \t\t\tinvestorsList[investorIndex]\n      SWAP1 \t\t\tinvestorsList[investorIndex]\n      PUSH 0\t\t\tinvestorsList[investorIndex]\n      MSTORE \t\t\tinvestorsList[investorIndex]\n      PUSH 20\t\t\tinvestorsList[investorIndex]\n      PUSH 0\t\t\tinvestorsList[investorIndex]\n      KECCAK256 \t\t\tinvestorsList[investorIndex]\n      ADD \t\t\tinvestorsList[investorIndex]\n      PUSH 0\t\t\tinvestorsList[investorIndex]\n      SWAP1 \t\t\tinvestorsList[investorIndex]\n      SLOAD \t\t\tinvestorsList[investorIndex]\n      SWAP1 \t\t\tinvestorsList[investorIndex]\n      PUSH 100\t\t\tinvestorsList[investorIndex]\n      EXP \t\t\tinvestorsList[investorIndex]\n      SWAP1 \t\t\tinvestorsList[investorIndex]\n      DIV \t\t\tinvestorsList[investorIndex]\n      PUSH FFFFFFFFFFFFFFFFFFFFFFFFFFFFFFFFFFFFFFFF\t\t\tinvestorsList[investorIndex]\n      AND \t\t\tinvestorsList[investorIndex]\n      PUSH FFFFFFFFFFFFFFFFFFFFFFFFFFFFFFFFFFFFFFFF\t\t\tinvestorsBalances[investorsLis...\n      AND \t\t\tinvestorsBalances[investorsLis...\n      PUSH FFFFFFFFFFFFFFFFFFFFFFFFFFFFFFFFFFFFFFFF\t\t\tinvestorsBalances[investorsLis...\n      AND \t\t\tinvestorsBalances[investorsLis...\n      DUP2 \t\t\tinvestorsBalances[investorsLis...\n      MSTORE \t\t\tinvestorsBalances[investorsLis...\n      PUSH 20\t\t\tinvestorsBalances[investorsLis...\n      ADD \t\t\tinvestorsBalances[investorsLis...\n      SWAP1 \t\t\tinvestorsBalances[investorsLis...\n      DUP2 \t\t\tinvestorsBalances[investorsLis...\n      MSTORE \t\t\tinvestorsBalances[investorsLis...\n      PUSH 20\t\t\tinvestorsBalances[investorsLis...\n      ADD \t\t\tinvestorsBalances[investorsLis...\n      PUSH 0\t\t\tinvestorsBalances[investorsLis...\n      KECCAK256 \t\t\tinvestorsBalances[investorsLis...\n      SLOAD \t\t\tinvestorsBalances[investorsLis...\n      SWAP1 \t\t\tuint256 refundAmount = investo...\n      POP \t\t\tuint256 refundAmount = investo...\n      PUSH 8\t\t\tinvestorsList\n      DUP3 \t\t\tinvestorIndex\n      DUP2 \t\t\tinvestorsList[investorIndex]\n      SLOAD \t\t\tinvestorsList[investorIndex]\n      DUP2 \t\t\tinvestorsList[investorIndex]\n      LT \t\t\tinvestorsList[investorIndex]\n      PUSH [tag] 69\t\t\tinvestorsList[investorIndex]\n      JUMPI \t\t\tinvestorsList[investorIndex]\n      PUSH [tag] 70\t\t\tinvestorsList[investorIndex]\n      PUSH [tag] 48\t\t\tinvestorsList[investorIndex]\n      JUMP \t\t\tinvestorsList[investorIndex]\n    tag 70\t\t\tinvestorsList[investorIndex]\n      JUMPDEST \t\t\tinvestorsList[investorIndex]\n    tag 69\t\t\tinvestorsList[investorIndex]\n      JUMPDEST \t\t\tinvestorsList[investorIndex]\n      SWAP1 \t\t\tinvestorsList[investorIndex]\n      PUSH 0\t\t\tinvestorsList[investorIndex]\n      MSTORE \t\t\tinvestorsList[investorIndex]\n      PUSH 20\t\t\tinvestorsList[investorIndex]\n      PUSH 0\t\t\tinvestorsList[investorIndex]\n      KECCAK256 \t\t\tinvestorsList[investorIndex]\n      ADD \t\t\tinvestorsList[investorIndex]\n      PUSH 0\t\t\tinvestorsList[investorIndex]\n      SWAP1 \t\t\tinvestorsList[investorIndex]\n      SLOAD \t\t\tinvestorsList[investorIndex]\n      SWAP1 \t\t\tinvestorsList[investorIndex]\n      PUSH 100\t\t\tinvestorsList[investorIndex]\n      EXP \t\t\tinvestorsList[investorIndex]\n      SWAP1 \t\t\tinvestorsList[investorIndex]\n      DIV \t\t\tinvestorsList[investorIndex]\n      PUSH FFFFFFFFFFFFFFFFFFFFFFFFFFFFFFFFFFFFFFFF\t\t\tinvestorsList[investorIndex]\n      AND \t\t\tinvestorsList[investorIndex]\n      PUSH FFFFFFFFFFFFFFFFFFFFFFFFFFFFFFFFFFFFFFFF\t\t\tpayable(investorsList[investor...\n      AND \t\t\tpayable(investorsList[investor...\n      PUSH 8FC\t\t\tpayable(investorsList[investor...\n      DUP3 \t\t\trefundAmount\n      SWAP1 \t\t\tpayable(investorsList[investor...\n      DUP2 \t\t\tpayable(investorsList[investor...\n      ISZERO \t\t\tpayable(investorsList[investor...\n      MUL \t\t\tpayable(investorsList[investor...\n      SWAP1 \t\t\tpayable(investorsList[investor...\n      PUSH 40\t\t\tpayable(investorsList[investor...\n      MLOAD \t\t\tpayable(investorsList[investor...\n      PUSH 0\t\t\tpayable(investorsList[investor...\n      PUSH 40\t\t\tpayable(investorsList[investor...\n      MLOAD \t\t\tpayable(investorsList[investor...\n      DUP1 \t\t\tpayable(investorsList[investor...\n      DUP4 \t\t\tpayable(investorsList[investor...\n      SUB \t\t\tpayable(investorsList[investor...\n      DUP2 \t\t\tpayable(investorsList[investor...\n      DUP6 \t\t\tpayable(investorsList[investor...\n      DUP9 \t\t\tpayable(investorsList[investor...\n      DUP9 \t\t\tpayable(investorsList[investor...\n      CALL \t\t\tpayable(investorsList[investor...\n      SWAP4 \t\t\tpayable(investorsList[investor...\n      POP \t\t\tpayable(investorsList[investor...\n      POP \t\t\tpayable(investorsList[investor...\n      POP \t\t\tpayable(investorsList[investor...\n      POP \t\t\tpayable(investorsList[investor...\n      ISZERO \t\t\tpayable(investorsList[investor...\n      DUP1 \t\t\tpayable(investorsList[investor...\n      ISZERO \t\t\tpayable(investorsList[investor...\n      PUSH [tag] 73\t\t\tpayable(investorsList[investor...\n      JUMPI \t\t\tpayable(investorsList[investor...\n      RETURNDATASIZE \t\t\tpayable(investorsList[investor...\n      PUSH 0\t\t\tpayable(investorsList[investor...\n      DUP1 \t\t\tpayable(investorsList[investor...\n      RETURNDATACOPY \t\t\tpayable(investorsList[investor...\n      RETURNDATASIZE \t\t\tpayable(investorsList[investor...\n      PUSH 0\t\t\tpayable(investorsList[investor...\n      REVERT \t\t\tpayable(investorsList[investor...\n    tag 73\t\t\tpayable(investorsList[investor...\n      JUMPDEST \t\t\tpayable(investorsList[investor...\n      POP \t\t\tpayable(investorsList[investor...\n      POP \t\t\t{\\n                    uint256...\n      DUP1 \t\t\tinvestorIndex++\n      DUP1 \t\t\tinvestorIndex++\n      PUSH [tag] 74\t\t\tinvestorIndex++\n      SWAP1 \t\t\tinvestorIndex++\n      PUSH [tag] 53\t\t\tinvestorIndex++\n      JUMP \t\t\tinvestorIndex++\n    tag 74\t\t\tinvestorIndex++\n      JUMPDEST \t\t\tinvestorIndex++\n      SWAP2 \t\t\tinvestorIndex++\n      POP \t\t\tinvestorIndex++\n      POP \t\t\tinvestorIndex++\n      PUSH [tag] 63\t\t\tfor (uint256 investorIndex = 0...\n      JUMP \t\t\tfor (uint256 investorIndex = 0...\n    tag 64\t\t\tfor (uint256 investorIndex = 0...\n      JUMPDEST \t\t\tfor (uint256 investorIndex = 0...\n      POP \t\t\tfor (uint256 investorIndex = 0...\n      PUSH 40\t\t\trevert(\"CAMPAIGN FAILED\")\n      MLOAD \t\t\trevert(\"CAMPAIGN FAILED\")\n      PUSH 8C379A000000000000000000000000000000000000000000000000000000000\t\t\trevert(\"CAMPAIGN FAILED\")\n      DUP2 \t\t\trevert(\"CAMPAIGN FAILED\")\n      MSTORE \t\t\trevert(\"CAMPAIGN FAILED\")\n      PUSH 4\t\t\trevert(\"CAMPAIGN FAILED\")\n      ADD \t\t\trevert(\"CAMPAIGN FAILED\")\n      PUSH [tag] 75\t\t\trevert(\"CAMPAIGN FAILED\")\n      SWAP1 \t\t\trevert(\"CAMPAIGN FAILED\")\n      PUSH [tag] 76\t\t\trevert(\"CAMPAIGN FAILED\")\n      JUMP \t\t\trevert(\"CAMPAIGN FAILED\")\n    tag 75\t\t\trevert(\"CAMPAIGN FAILED\")\n      JUMPDEST \t\t\trevert(\"CAMPAIGN FAILED\")\n      PUSH 40\t\t\trevert(\"CAMPAIGN FAILED\")\n      MLOAD \t\t\trevert(\"CAMPAIGN FAILED\")\n      DUP1 \t\t\trevert(\"CAMPAIGN FAILED\")\n      SWAP2 \t\t\trevert(\"CAMPAIGN FAILED\")\n      SUB \t\t\trevert(\"CAMPAIGN FAILED\")\n      SWAP1 \t\t\trevert(\"CAMPAIGN FAILED\")\n      REVERT \t\t\trevert(\"CAMPAIGN FAILED\")\n    tag 62\t\t\tif (tokensCollected < investme...\n      JUMPDEST \t\t\tif (tokensCollected < investme...\n      PUSH [tag] 78\t\t\twithdrawStartupper(finalAmount...\n      DUP2 \t\t\tfinalAmount\n      PUSH [tag] 79\t\t\twithdrawStartupper\n      JUMP \t\t\twithdrawStartupper(finalAmount...\n    tag 78\t\t\twithdrawStartupper(finalAmount...\n      JUMPDEST \t\t\twithdrawStartupper(finalAmount...\n      PUSH [tag] 80\t\t\twithdrawTokenvest(commission)\n      DUP3 \t\t\tcommission\n      PUSH [tag] 81\t\t\twithdrawTokenvest\n      JUMP \t\t\twithdrawTokenvest(commission)\n    tag 80\t\t\twithdrawTokenvest(commission)\n      JUMPDEST \t\t\twithdrawTokenvest(commission)\n      POP \t\t\tfunction finishStartup(uint256...\n      POP \t\t\tfunction finishStartup(uint256...\n      JUMP \t\t\tfunction finishStartup(uint256...\n    tag 31\t\t\tfunction withdrawInvestor() ex...\n      JUMPDEST \t\t\tfunction withdrawInvestor() ex...\n      PUSH 0\t\t\taddress caller\n      CALLER \t\t\tmsg.sender\n      SWAP1 \t\t\taddress caller = msg.sender\n      POP \t\t\taddress caller = msg.sender\n      PUSH 6\t\t\tinvestmentGoal\n      SLOAD \t\t\tinvestmentGoal\n      PUSH 5\t\t\ttokensCollected\n      SLOAD \t\t\ttokensCollected\n      LT \t\t\ttokensCollected >= investmentG...\n      PUSH [tag] 83\t\t\tif (tokensCollected >= investm...\n      JUMPI \t\t\tif (tokensCollected >= investm...\n      PUSH 0\t\t\tuint256 amount\n      PUSH 1\t\t\tinvestorsBalances\n      PUSH 0\t\t\tinvestorsBalances[caller]\n      DUP4 \t\t\tcaller\n      PUSH FFFFFFFFFFFFFFFFFFFFFFFFFFFFFFFFFFFFFFFF\t\t\tinvestorsBalances[caller]\n      AND \t\t\tinvestorsBalances[caller]\n      PUSH FFFFFFFFFFFFFFFFFFFFFFFFFFFFFFFFFFFFFFFF\t\t\tinvestorsBalances[caller]\n      AND \t\t\tinvestorsBalances[caller]\n      DUP2 \t\t\tinvestorsBalances[caller]\n      MSTORE \t\t\tinvestorsBalances[caller]\n      PUSH 20\t\t\tinvestorsBalances[caller]\n      ADD \t\t\tinvestorsBalances[caller]\n      SWAP1 \t\t\tinvestorsBalances[caller]\n      DUP2 \t\t\tinvestorsBalances[caller]\n      MSTORE \t\t\tinvestorsBalances[caller]\n      PUSH 20\t\t\tinvestorsBalances[caller]\n      ADD \t\t\tinvestorsBalances[caller]\n      PUSH 0\t\t\tinvestorsBalances[caller]\n      KECCAK256 \t\t\tinvestorsBalances[caller]\n      SLOAD \t\t\tinvestorsBalances[caller]\n      SWAP1 \t\t\tuint256 amount = investorsBala...\n      POP \t\t\tuint256 amount = investorsBala...\n      PUSH 0\t\t\t0\n      PUSH 1\t\t\tinvestorsBalances\n      PUSH 0\t\t\tinvestorsBalances[caller]\n      DUP5 \t\t\tcaller\n      PUSH FFFFFFFFFFFFFFFFFFFFFFFFFFFFFFFFFFFFFFFF\t\t\tinvestorsBalances[caller]\n      AND \t\t\tinvestorsBalances[caller]\n      PUSH FFFFFFFFFFFFFFFFFFFFFFFFFFFFFFFFFFFFFFFF\t\t\tinvestorsBalances[caller]\n      AND \t\t\tinvestorsBalances[caller]\n      DUP2 \t\t\tinvestorsBalances[caller]\n      MSTORE \t\t\tinvestorsBalances[caller]\n      PUSH 20\t\t\tinvestorsBalances[caller]\n      ADD \t\t\tinvestorsBalances[caller]\n      SWAP1 \t\t\tinvestorsBalances[caller]\n      DUP2 \t\t\tinvestorsBalances[caller]\n      MSTORE \t\t\tinvestorsBalances[caller]\n      PUSH 20\t\t\tinvestorsBalances[caller]\n      ADD \t\t\tinvestorsBalances[caller]\n      PUSH 0\t\t\tinvestorsBalances[caller]\n      KECCAK256 \t\t\tinvestorsBalances[caller]\n      DUP2 \t\t\tinvestorsBalances[caller] = 0\n      SWAP1 \t\t\tinvestorsBalances[caller] = 0\n      SSTORE \t\t\tinvestorsBalances[caller] = 0\n      POP \t\t\tinvestorsBalances[caller] = 0\n      DUP2 \t\t\tcaller\n      PUSH FFFFFFFFFFFFFFFFFFFFFFFFFFFFFFFFFFFFFFFF\t\t\tpayable(caller).transfer\n      AND \t\t\tpayable(caller).transfer\n      PUSH 8FC\t\t\tpayable(caller).transfer(amoun...\n      DUP3 \t\t\tamount\n      SWAP1 \t\t\tpayable(caller).transfer(amoun...\n      DUP2 \t\t\tpayable(caller).transfer(amoun...\n      ISZERO \t\t\tpayable(caller).transfer(amoun...\n      MUL \t\t\tpayable(caller).transfer(amoun...\n      SWAP1 \t\t\tpayable(caller).transfer(amoun...\n      PUSH 40\t\t\tpayable(caller).transfer(amoun...\n      MLOAD \t\t\tpayable(caller).transfer(amoun...\n      PUSH 0\t\t\tpayable(caller).transfer(amoun...\n      PUSH 40\t\t\tpayable(caller).transfer(amoun...\n      MLOAD \t\t\tpayable(caller).transfer(amoun...\n      DUP1 \t\t\tpayable(caller).transfer(amoun...\n      DUP4 \t\t\tpayable(caller).transfer(amoun...\n      SUB \t\t\tpayable(caller).transfer(amoun...\n      DUP2 \t\t\tpayable(caller).transfer(amoun...\n      DUP6 \t\t\tpayable(caller).transfer(amoun...\n      DUP9 \t\t\tpayable(caller).transfer(amoun...\n      DUP9 \t\t\tpayable(caller).transfer(amoun...\n      CALL \t\t\tpayable(caller).transfer(amoun...\n      SWAP4 \t\t\tpayable(caller).transfer(amoun...\n      POP \t\t\tpayable(caller).transfer(amoun...\n      POP \t\t\tpayable(caller).transfer(amoun...\n      POP \t\t\tpayable(caller).transfer(amoun...\n      POP \t\t\tpayable(caller).transfer(amoun...\n      ISZERO \t\t\tpayable(caller).transfer(amoun...\n      DUP1 \t\t\tpayable(caller).transfer(amoun...\n      ISZERO \t\t\tpayable(caller).transfer(amoun...\n      PUSH [tag] 85\t\t\tpayable(caller).transfer(amoun...\n      JUMPI \t\t\tpayable(caller).transfer(amoun...\n      RETURNDATASIZE \t\t\tpayable(caller).transfer(amoun...\n      PUSH 0\t\t\tpayable(caller).transfer(amoun...\n      DUP1 \t\t\tpayable(caller).transfer(amoun...\n      RETURNDATACOPY \t\t\tpayable(caller).transfer(amoun...\n      RETURNDATASIZE \t\t\tpayable(caller).transfer(amoun...\n      PUSH 0\t\t\tpayable(caller).transfer(amoun...\n      REVERT \t\t\tpayable(caller).transfer(amoun...\n    tag 85\t\t\tpayable(caller).transfer(amoun...\n      JUMPDEST \t\t\tpayable(caller).transfer(amoun...\n      POP \t\t\tpayable(caller).transfer(amoun...\n      POP \t\t\t{\\n            uint256 amount ...\n      PUSH [tag] 86\t\t\tif (tokensCollected >= investm...\n      JUMP \t\t\tif (tokensCollected >= investm...\n    tag 83\t\t\tif (tokensCollected >= investm...\n      JUMPDEST \t\t\tif (tokensCollected >= investm...\n      PUSH 40\t\t\trevert(\"NOT ENOUGH FUNDS TO WI...\n      MLOAD \t\t\trevert(\"NOT ENOUGH FUNDS TO WI...\n      PUSH 8C379A000000000000000000000000000000000000000000000000000000000\t\t\trevert(\"NOT ENOUGH FUNDS TO WI...\n      DUP2 \t\t\trevert(\"NOT ENOUGH FUNDS TO WI...\n      MSTORE \t\t\trevert(\"NOT ENOUGH FUNDS TO WI...\n      PUSH 4\t\t\trevert(\"NOT ENOUGH FUNDS TO WI...\n      ADD \t\t\trevert(\"NOT ENOUGH FUNDS TO WI...\n      PUSH [tag] 87\t\t\trevert(\"NOT ENOUGH FUNDS TO WI...\n      SWAP1 \t\t\trevert(\"NOT ENOUGH FUNDS TO WI...\n      PUSH [tag] 88\t\t\trevert(\"NOT ENOUGH FUNDS TO WI...\n      JUMP \t\t\trevert(\"NOT ENOUGH FUNDS TO WI...\n    tag 87\t\t\trevert(\"NOT ENOUGH FUNDS TO WI...\n      JUMPDEST \t\t\trevert(\"NOT ENOUGH FUNDS TO WI...\n      PUSH 40\t\t\trevert(\"NOT ENOUGH FUNDS TO WI...\n      MLOAD \t\t\trevert(\"NOT ENOUGH FUNDS TO WI...\n      DUP1 \t\t\trevert(\"NOT ENOUGH FUNDS TO WI...\n      SWAP2 \t\t\trevert(\"NOT ENOUGH FUNDS TO WI...\n      SUB \t\t\trevert(\"NOT ENOUGH FUNDS TO WI...\n      SWAP1 \t\t\trevert(\"NOT ENOUGH FUNDS TO WI...\n      REVERT \t\t\trevert(\"NOT ENOUGH FUNDS TO WI...\n    tag 86\t\t\tif (tokensCollected >= investm...\n      JUMPDEST \t\t\tif (tokensCollected >= investm...\n      POP \t\t\t{\\n        address caller = ms...\n      JUMP \t\t\tfunction withdrawInvestor() ex...\n    tag 33\t\t\tfunction invest() external pay...\n      JUMPDEST \t\t\tfunction invest() external pay...\n      PUSH 0\t\t\tuint256 investmentAmount\n      CALLVALUE \t\t\tmsg.value\n      SWAP1 \t\t\tuint256 investmentAmount = msg...\n      POP \t\t\tuint256 investmentAmount = msg...\n      PUSH 0\t\t\t0\n      DUP2 \t\t\tinvestmentAmount\n      SUB \t\t\tinvestmentAmount == 0\n      PUSH [tag] 90\t\t\tif (investmentAmount == 0) {\\n...\n      JUMPI \t\t\tif (investmentAmount == 0) {\\n...\n      PUSH 40\t\t\trevert(\"NO FUNDS ATTACHED\")\n      MLOAD \t\t\trevert(\"NO FUNDS ATTACHED\")\n      PUSH 8C379A000000000000000000000000000000000000000000000000000000000\t\t\trevert(\"NO FUNDS ATTACHED\")\n      DUP2 \t\t\trevert(\"NO FUNDS ATTACHED\")\n      MSTORE \t\t\trevert(\"NO FUNDS ATTACHED\")\n      PUSH 4\t\t\trevert(\"NO FUNDS ATTACHED\")\n      ADD \t\t\trevert(\"NO FUNDS ATTACHED\")\n      PUSH [tag] 91\t\t\trevert(\"NO FUNDS ATTACHED\")\n      SWAP1 \t\t\trevert(\"NO FUNDS ATTACHED\")\n      PUSH [tag] 92\t\t\trevert(\"NO FUNDS ATTACHED\")\n      JUMP \t\t\trevert(\"NO FUNDS ATTACHED\")\n    tag 91\t\t\trevert(\"NO FUNDS ATTACHED\")\n      JUMPDEST \t\t\trevert(\"NO FUNDS ATTACHED\")\n      PUSH 40\t\t\trevert(\"NO FUNDS ATTACHED\")\n      MLOAD \t\t\trevert(\"NO FUNDS ATTACHED\")\n      DUP1 \t\t\trevert(\"NO FUNDS ATTACHED\")\n      SWAP2 \t\t\trevert(\"NO FUNDS ATTACHED\")\n      SUB \t\t\trevert(\"NO FUNDS ATTACHED\")\n      SWAP1 \t\t\trevert(\"NO FUNDS ATTACHED\")\n      REVERT \t\t\trevert(\"NO FUNDS ATTACHED\")\n    tag 90\t\t\tif (investmentAmount == 0) {\\n...\n      JUMPDEST \t\t\tif (investmentAmount == 0) {\\n...\n      PUSH 0\t\t\taddress investor\n      CALLER \t\t\tmsg.sender\n      SWAP1 \t\t\taddress investor = msg.sender\n      POP \t\t\taddress investor = msg.sender\n      PUSH 8\t\t\tinvestorsList\n      DUP2 \t\t\tinvestor\n      SWAP1 \t\t\tinvestorsList.push(investor)\n      DUP1 \t\t\tinvestorsList.push(investor)\n      PUSH 1\t\t\tinvestorsList.push(investor)\n      DUP2 \t\t\tinvestorsList.push(investor)\n      SLOAD \t\t\tinvestorsList.push(investor)\n      ADD \t\t\tinvestorsList.push(investor)\n      DUP1 \t\t\tinvestorsList.push(investor)\n      DUP3 \t\t\tinvestorsList.push(investor)\n      SSTORE \t\t\tinvestorsList.push(investor)\n      DUP1 \t\t\tinvestorsList.push(investor)\n      SWAP2 \t\t\tinvestorsList.push(investor)\n      POP \t\t\tinvestorsList.push(investor)\n      POP \t\t\tinvestorsList.push(investor)\n      PUSH 1\t\t\tinvestorsList.push(investor)\n      SWAP1 \t\t\tinvestorsList.push(investor)\n      SUB \t\t\tinvestorsList.push(investor)\n      SWAP1 \t\t\tinvestorsList.push(investor)\n      PUSH 0\t\t\tinvestorsList.push(investor)\n      MSTORE \t\t\tinvestorsList.push(investor)\n      PUSH 20\t\t\tinvestorsList.push(investor)\n      PUSH 0\t\t\tinvestorsList.push(investor)\n      KECCAK256 \t\t\tinvestorsList.push(investor)\n      ADD \t\t\tinvestorsList.push(investor)\n      PUSH 0\t\t\tinvestorsList.push(investor)\n      SWAP1 \t\t\tinvestorsList.push(investor)\n      SWAP2 \t\t\tinvestorsList.push(investor)\n      SWAP1 \t\t\tinvestorsList.push(investor)\n      SWAP2 \t\t\tinvestorsList.push(investor)\n      SWAP1 \t\t\tinvestorsList.push(investor)\n      SWAP2 \t\t\tinvestorsList.push(investor)\n      PUSH 100\t\t\tinvestorsList.push(investor)\n      EXP \t\t\tinvestorsList.push(investor)\n      DUP2 \t\t\tinvestorsList.push(investor)\n      SLOAD \t\t\tinvestorsList.push(investor)\n      DUP2 \t\t\tinvestorsList.push(investor)\n      PUSH FFFFFFFFFFFFFFFFFFFFFFFFFFFFFFFFFFFFFFFF\t\t\tinvestorsList.push(investor)\n      MUL \t\t\tinvestorsList.push(investor)\n      NOT \t\t\tinvestorsList.push(investor)\n      AND \t\t\tinvestorsList.push(investor)\n      SWAP1 \t\t\tinvestorsList.push(investor)\n      DUP4 \t\t\tinvestorsList.push(investor)\n      PUSH FFFFFFFFFFFFFFFFFFFFFFFFFFFFFFFFFFFFFFFF\t\t\tinvestorsList.push(investor)\n      AND \t\t\tinvestorsList.push(investor)\n      MUL \t\t\tinvestorsList.push(investor)\n      OR \t\t\tinvestorsList.push(investor)\n      SWAP1 \t\t\tinvestorsList.push(investor)\n      SSTORE \t\t\tinvestorsList.push(investor)\n      POP \t\t\tinvestorsList.push(investor)\n      DUP2 \t\t\tinvestmentAmount\n      PUSH 1\t\t\tinvestorsBalances\n      PUSH 0\t\t\tinvestorsBalances[investor]\n      DUP4 \t\t\tinvestor\n      PUSH FFFFFFFFFFFFFFFFFFFFFFFFFFFFFFFFFFFFFFFF\t\t\tinvestorsBalances[investor]\n      AND \t\t\tinvestorsBalances[investor]\n      PUSH FFFFFFFFFFFFFFFFFFFFFFFFFFFFFFFFFFFFFFFF\t\t\tinvestorsBalances[investor]\n      AND \t\t\tinvestorsBalances[investor]\n      DUP2 \t\t\tinvestorsBalances[investor]\n      MSTORE \t\t\tinvestorsBalances[investor]\n      PUSH 20\t\t\tinvestorsBalances[investor]\n      ADD \t\t\tinvestorsBalances[investor]\n      SWAP1 \t\t\tinvestorsBalances[investor]\n      DUP2 \t\t\tinvestorsBalances[investor]\n      MSTORE \t\t\tinvestorsBalances[investor]\n      PUSH 20\t\t\tinvestorsBalances[investor]\n      ADD \t\t\tinvestorsBalances[investor]\n      PUSH 0\t\t\tinvestorsBalances[investor]\n      KECCAK256 \t\t\tinvestorsBalances[investor]\n      PUSH 0\t\t\tinvestorsBalances[investor]\n      DUP3 \t\t\tinvestorsBalances[investor] +=...\n      DUP3 \t\t\tinvestorsBalances[investor] +=...\n      SLOAD \t\t\tinvestorsBalances[investor] +=...\n      PUSH [tag] 95\t\t\tinvestorsBalances[investor] +=...\n      SWAP2 \t\t\tinvestorsBalances[investor] +=...\n      SWAP1 \t\t\tinvestorsBalances[investor] +=...\n      PUSH [tag] 96\t\t\tinvestorsBalances[investor] +=...\n      JUMP \t\t\tinvestorsBalances[investor] +=...\n    tag 95\t\t\tinvestorsBalances[investor] +=...\n      JUMPDEST \t\t\tinvestorsBalances[investor] +=...\n      SWAP3 \t\t\tinvestorsBalances[investor] +=...\n      POP \t\t\tinvestorsBalances[investor] +=...\n      POP \t\t\tinvestorsBalances[investor] +=...\n      DUP2 \t\t\tinvestorsBalances[investor] +=...\n      SWAP1 \t\t\tinvestorsBalances[investor] +=...\n      SSTORE \t\t\tinvestorsBalances[investor] +=...\n      POP \t\t\tinvestorsBalances[investor] +=...\n      DUP2 \t\t\tinvestmentAmount\n      PUSH 5\t\t\ttokensCollected\n      PUSH 0\t\t\ttokensCollected\n      DUP3 \t\t\ttokensCollected += investmentA...\n      DUP3 \t\t\ttokensCollected += investmentA...\n      SLOAD \t\t\ttokensCollected += investmentA...\n      PUSH [tag] 97\t\t\ttokensCollected += investmentA...\n      SWAP2 \t\t\ttokensCollected += investmentA...\n      SWAP1 \t\t\ttokensCollected += investmentA...\n      PUSH [tag] 96\t\t\ttokensCollected += investmentA...\n      JUMP \t\t\ttokensCollected += investmentA...\n    tag 97\t\t\ttokensCollected += investmentA...\n      JUMPDEST \t\t\ttokensCollected += investmentA...\n      SWAP3 \t\t\ttokensCollected += investmentA...\n      POP \t\t\ttokensCollected += investmentA...\n      POP \t\t\ttokensCollected += investmentA...\n      DUP2 \t\t\ttokensCollected += investmentA...\n      SWAP1 \t\t\ttokensCollected += investmentA...\n      SSTORE \t\t\ttokensCollected += investmentA...\n      POP \t\t\ttokensCollected += investmentA...\n      POP \t\t\t{\\n            address investo...\n      POP \t\t\t{\\n        uint256 investmentA...\n      JUMP \t\t\tfunction invest() external pay...\n    tag 36\t\t\tfunction withdrawTest() extern...\n      JUMPDEST \t\t\tfunction withdrawTest() extern...\n      CALLER \t\t\tmsg.sender\n      PUSH FFFFFFFFFFFFFFFFFFFFFFFFFFFFFFFFFFFFFFFF\t\t\tpayable(msg.sender).transfer\n      AND \t\t\tpayable(msg.sender).transfer\n      PUSH 8FC\t\t\tpayable(msg.sender).transfer(t...\n      PUSH 5\t\t\ttokensCollected\n      SLOAD \t\t\ttokensCollected\n      SWAP1 \t\t\tpayable(msg.sender).transfer(t...\n      DUP2 \t\t\tpayable(msg.sender).transfer(t...\n      ISZERO \t\t\tpayable(msg.sender).transfer(t...\n      MUL \t\t\tpayable(msg.sender).transfer(t...\n      SWAP1 \t\t\tpayable(msg.sender).transfer(t...\n      PUSH 40\t\t\tpayable(msg.sender).transfer(t...\n      MLOAD \t\t\tpayable(msg.sender).transfer(t...\n      PUSH 0\t\t\tpayable(msg.sender).transfer(t...\n      PUSH 40\t\t\tpayable(msg.sender).transfer(t...\n      MLOAD \t\t\tpayable(msg.sender).transfer(t...\n      DUP1 \t\t\tpayable(msg.sender).transfer(t...\n      DUP4 \t\t\tpayable(msg.sender).transfer(t...\n      SUB \t\t\tpayable(msg.sender).transfer(t...\n      DUP2 \t\t\tpayable(msg.sender).transfer(t...\n      DUP6 \t\t\tpayable(msg.sender).transfer(t...\n      DUP9 \t\t\tpayable(msg.sender).transfer(t...\n      DUP9 \t\t\tpayable(msg.sender).transfer(t...\n      CALL \t\t\tpayable(msg.sender).transfer(t...\n      SWAP4 \t\t\tpayable(msg.sender).transfer(t...\n      POP \t\t\tpayable(msg.sender).transfer(t...\n      POP \t\t\tpayable(msg.sender).transfer(t...\n      POP \t\t\tpayable(msg.sender).transfer(t...\n      POP \t\t\tpayable(msg.sender).transfer(t...\n      ISZERO \t\t\tpayable(msg.sender).transfer(t...\n      DUP1 \t\t\tpayable(msg.sender).transfer(t...\n      ISZERO \t\t\tpayable(msg.sender).transfer(t...\n      PUSH [tag] 100\t\t\tpayable(msg.sender).transfer(t...\n      JUMPI \t\t\tpayable(msg.sender).transfer(t...\n      RETURNDATASIZE \t\t\tpayable(msg.sender).transfer(t...\n      PUSH 0\t\t\tpayable(msg.sender).transfer(t...\n      DUP1 \t\t\tpayable(msg.sender).transfer(t...\n      RETURNDATACOPY \t\t\tpayable(msg.sender).transfer(t...\n      RETURNDATASIZE \t\t\tpayable(msg.sender).transfer(t...\n      PUSH 0\t\t\tpayable(msg.sender).transfer(t...\n      REVERT \t\t\tpayable(msg.sender).transfer(t...\n    tag 100\t\t\tpayable(msg.sender).transfer(t...\n      JUMPDEST \t\t\tpayable(msg.sender).transfer(t...\n      POP \t\t\tpayable(msg.sender).transfer(t...\n      JUMP \t\t\tfunction withdrawTest() extern...\n    tag 79\t\t\tfunction withdrawStartupper(ui...\n      JUMPDEST \t\t\tfunction withdrawStartupper(ui...\n      PUSH 0\t\t\taddress caller\n      CALLER \t\t\tmsg.sender\n      SWAP1 \t\t\taddress caller = msg.sender\n      POP \t\t\taddress caller = msg.sender\n      PUSH 6\t\t\tinvestmentGoal\n      SLOAD \t\t\tinvestmentGoal\n      PUSH 5\t\t\ttokensCollected\n      SLOAD \t\t\ttokensCollected\n      LT \t\t\ttokensCollected >= investmentG...\n      ISZERO \t\t\ttokensCollected >= investmentG...\n      DUP1 \t\t\ttokensCollected >= investmentG...\n      ISZERO \t\t\ttokensCollected >= investmentG...\n      PUSH [tag] 102\t\t\ttokensCollected >= investmentG...\n      JUMPI \t\t\ttokensCollected >= investmentG...\n      POP \t\t\ttokensCollected >= investmentG...\n      DUP1 \t\t\tcaller\n      PUSH FFFFFFFFFFFFFFFFFFFFFFFFFFFFFFFFFFFFFFFF\t\t\tstartupOwner == caller\n      AND \t\t\tstartupOwner == caller\n      PUSH 0\t\t\tstartupOwner\n      DUP1 \t\t\tstartupOwner\n      SLOAD \t\t\tstartupOwner\n      SWAP1 \t\t\tstartupOwner\n      PUSH 100\t\t\tstartupOwner\n      EXP \t\t\tstartupOwner\n      SWAP1 \t\t\tstartupOwner\n      DIV \t\t\tstartupOwner\n      PUSH FFFFFFFFFFFFFFFFFFFFFFFFFFFFFFFFFFFFFFFF\t\t\tstartupOwner\n      AND \t\t\tstartupOwner\n      PUSH FFFFFFFFFFFFFFFFFFFFFFFFFFFFFFFFFFFFFFFF\t\t\tstartupOwner == caller\n      AND \t\t\tstartupOwner == caller\n      EQ \t\t\tstartupOwner == caller\n    tag 102\t\t\ttokensCollected >= investmentG...\n      JUMPDEST \t\t\ttokensCollected >= investmentG...\n      ISZERO \t\t\tif (tokensCollected >= investm...\n      PUSH [tag] 103\t\t\tif (tokensCollected >= investm...\n      JUMPI \t\t\tif (tokensCollected >= investm...\n      DUP1 \t\t\tcaller\n      PUSH FFFFFFFFFFFFFFFFFFFFFFFFFFFFFFFFFFFFFFFF\t\t\tpayable(caller).transfer\n      AND \t\t\tpayable(caller).transfer\n      PUSH 8FC\t\t\tpayable(caller).transfer(final...\n      DUP4 \t\t\tfinalAmount\n      SWAP1 \t\t\tpayable(caller).transfer(final...\n      DUP2 \t\t\tpayable(caller).transfer(final...\n      ISZERO \t\t\tpayable(caller).transfer(final...\n      MUL \t\t\tpayable(caller).transfer(final...\n      SWAP1 \t\t\tpayable(caller).transfer(final...\n      PUSH 40\t\t\tpayable(caller).transfer(final...\n      MLOAD \t\t\tpayable(caller).transfer(final...\n      PUSH 0\t\t\tpayable(caller).transfer(final...\n      PUSH 40\t\t\tpayable(caller).transfer(final...\n      MLOAD \t\t\tpayable(caller).transfer(final...\n      DUP1 \t\t\tpayable(caller).transfer(final...\n      DUP4 \t\t\tpayable(caller).transfer(final...\n      SUB \t\t\tpayable(caller).transfer(final...\n      DUP2 \t\t\tpayable(caller).transfer(final...\n      DUP6 \t\t\tpayable(caller).transfer(final...\n      DUP9 \t\t\tpayable(caller).transfer(final...\n      DUP9 \t\t\tpayable(caller).transfer(final...\n      CALL \t\t\tpayable(caller).transfer(final...\n      SWAP4 \t\t\tpayable(caller).transfer(final...\n      POP \t\t\tpayable(caller).transfer(final...\n      POP \t\t\tpayable(caller).transfer(final...\n      POP \t\t\tpayable(caller).transfer(final...\n      POP \t\t\tpayable(caller).transfer(final...\n      ISZERO \t\t\tpayable(caller).transfer(final...\n      DUP1 \t\t\tpayable(caller).transfer(final...\n      ISZERO \t\t\tpayable(caller).transfer(final...\n      PUSH [tag] 105\t\t\tpayable(caller).transfer(final...\n      JUMPI \t\t\tpayable(caller).transfer(final...\n      RETURNDATASIZE \t\t\tpayable(caller).transfer(final...\n      PUSH 0\t\t\tpayable(caller).transfer(final...\n      DUP1 \t\t\tpayable(caller).transfer(final...\n      RETURNDATACOPY \t\t\tpayable(caller).transfer(final...\n      RETURNDATASIZE \t\t\tpayable(caller).transfer(final...\n      PUSH 0\t\t\tpayable(caller).transfer(final...\n      REVERT \t\t\tpayable(caller).transfer(final...\n    tag 105\t\t\tpayable(caller).transfer(final...\n      JUMPDEST \t\t\tpayable(caller).transfer(final...\n      POP \t\t\tpayable(caller).transfer(final...\n      PUSH [tag] 106\t\t\tif (tokensCollected >= investm...\n      JUMP \t\t\tif (tokensCollected >= investm...\n    tag 103\t\t\tif (tokensCollected >= investm...\n      JUMPDEST \t\t\tif (tokensCollected >= investm...\n      PUSH 40\t\t\trevert(\"NOT ENOUGH FUNDS TO WI...\n      MLOAD \t\t\trevert(\"NOT ENOUGH FUNDS TO WI...\n      PUSH 8C379A000000000000000000000000000000000000000000000000000000000\t\t\trevert(\"NOT ENOUGH FUNDS TO WI...\n      DUP2 \t\t\trevert(\"NOT ENOUGH FUNDS TO WI...\n      MSTORE \t\t\trevert(\"NOT ENOUGH FUNDS TO WI...\n      PUSH 4\t\t\trevert(\"NOT ENOUGH FUNDS TO WI...\n      ADD \t\t\trevert(\"NOT ENOUGH FUNDS TO WI...\n      PUSH [tag] 107\t\t\trevert(\"NOT ENOUGH FUNDS TO WI...\n      SWAP1 \t\t\trevert(\"NOT ENOUGH FUNDS TO WI...\n      PUSH [tag] 88\t\t\trevert(\"NOT ENOUGH FUNDS TO WI...\n      JUMP \t\t\trevert(\"NOT ENOUGH FUNDS TO WI...\n    tag 107\t\t\trevert(\"NOT ENOUGH FUNDS TO WI...\n      JUMPDEST \t\t\trevert(\"NOT ENOUGH FUNDS TO WI...\n      PUSH 40\t\t\trevert(\"NOT ENOUGH FUNDS TO WI...\n      MLOAD \t\t\trevert(\"NOT ENOUGH FUNDS TO WI...\n      DUP1 \t\t\trevert(\"NOT ENOUGH FUNDS TO WI...\n      SWAP2 \t\t\trevert(\"NOT ENOUGH FUNDS TO WI...\n      SUB \t\t\trevert(\"NOT ENOUGH FUNDS TO WI...\n      SWAP1 \t\t\trevert(\"NOT ENOUGH FUNDS TO WI...\n      REVERT \t\t\trevert(\"NOT ENOUGH FUNDS TO WI...\n    tag 106\t\t\tif (tokensCollected >= investm...\n      JUMPDEST \t\t\tif (tokensCollected >= investm...\n      POP \t\t\t{\\n        address caller = ms...\n      POP \t\t\tfunction withdrawStartupper(ui...\n      JUMP \t\t\tfunction withdrawStartupper(ui...\n    tag 81\t\t\tfunction withdrawTokenvest(uin...\n      JUMPDEST \t\t\tfunction withdrawTokenvest(uin...\n      PUSHIMMUTABLE 9\t\t\tcontractOwner\n      PUSH FFFFFFFFFFFFFFFFFFFFFFFFFFFFFFFFFFFFFFFF\t\t\tpayable(contractOwner).transfe...\n      AND \t\t\tpayable(contractOwner).transfe...\n      PUSH 8FC\t\t\tpayable(contractOwner).transfe...\n      DUP3 \t\t\tcommission\n      SWAP1 \t\t\tpayable(contractOwner).transfe...\n      DUP2 \t\t\tpayable(contractOwner).transfe...\n      ISZERO \t\t\tpayable(contractOwner).transfe...\n      MUL \t\t\tpayable(contractOwner).transfe...\n      SWAP1 \t\t\tpayable(contractOwner).transfe...\n      PUSH 40\t\t\tpayable(contractOwner).transfe...\n      MLOAD \t\t\tpayable(contractOwner).transfe...\n      PUSH 0\t\t\tpayable(contractOwner).transfe...\n      PUSH 40\t\t\tpayable(contractOwner).transfe...\n      MLOAD \t\t\tpayable(contractOwner).transfe...\n      DUP1 \t\t\tpayable(contractOwner).transfe...\n      DUP4 \t\t\tpayable(contractOwner).transfe...\n      SUB \t\t\tpayable(contractOwner).transfe...\n      DUP2 \t\t\tpayable(contractOwner).transfe...\n      DUP6 \t\t\tpayable(contractOwner).transfe...\n      DUP9 \t\t\tpayable(contractOwner).transfe...\n      DUP9 \t\t\tpayable(contractOwner).transfe...\n      CALL \t\t\tpayable(contractOwner).transfe...\n      SWAP4 \t\t\tpayable(contractOwner).transfe...\n      POP \t\t\tpayable(contractOwner).transfe...\n      POP \t\t\tpayable(contractOwner).transfe...\n      POP \t\t\tpayable(contractOwner).transfe...\n      POP \t\t\tpayable(contractOwner).transfe...\n      ISZERO \t\t\tpayable(contractOwner).transfe...\n      DUP1 \t\t\tpayable(contractOwner).transfe...\n      ISZERO \t\t\tpayable(contractOwner).transfe...\n      PUSH [tag] 110\t\t\tpayable(contractOwner).transfe...\n      JUMPI \t\t\tpayable(contractOwner).transfe...\n      RETURNDATASIZE \t\t\tpayable(contractOwner).transfe...\n      PUSH 0\t\t\tpayable(contractOwner).transfe...\n      DUP1 \t\t\tpayable(contractOwner).transfe...\n      RETURNDATACOPY \t\t\tpayable(contractOwner).transfe...\n      RETURNDATASIZE \t\t\tpayable(contractOwner).transfe...\n      PUSH 0\t\t\tpayable(contractOwner).transfe...\n      REVERT \t\t\tpayable(contractOwner).transfe...\n    tag 110\t\t\tpayable(contractOwner).transfe...\n      JUMPDEST \t\t\tpayable(contractOwner).transfe...\n      POP \t\t\tpayable(contractOwner).transfe...\n      POP \t\t\tfunction withdrawTokenvest(uin...\n      JUMP \t\t\tfunction withdrawTokenvest(uin...\n    tag 111\t\t\t-License-Identifier: MIT\\nprag...\n      JUMPDEST \t\t\t-License-Identifier: MIT\\nprag...\n      PUSH 0\t\t\tity ^0.\n      DUP2 \t\t\tentSm\n      SWAP1 \t\t\tact InvestmentSm\n      POP \t\t\tact InvestmentSm\n      SWAP2 \t\t\t-License-Identifier: MIT\\nprag...\n      SWAP1 \t\t\t-License-Identifier: MIT\\nprag...\n      POP \t\t\t-License-Identifier: MIT\\nprag...\n      JUMP \t\t\t-License-Identifier: MIT\\nprag...\n    tag 112\t\t\t{\\n    struct Investor {\\n    ...\n      JUMPDEST \t\t\t{\\n    struct Investor {\\n    ...\n      PUSH [tag] 147\t\t\t address immutable contr\n      DUP2 \t\t\t cont\n      PUSH [tag] 111\t\t\t address immutable contr\n      JUMP \t\t\t address immutable contr\n    tag 147\t\t\t address immutable contr\n      JUMPDEST \t\t\t address immutable contr\n      DUP3 \t\t\t\\n\\n \n      MSTORE \t\t\t;\\n    }\\n\\n    address immuta...\n      POP \t\t\t{\\n    struct Investor {\\n    ...\n      POP \t\t\t{\\n    struct Investor {\\n    ...\n      JUMP \t\t\t{\\n    struct Investor {\\n    ...\n    tag 14\t\t\t5E4B7C08D32810282E1cB539e8b151...\n      JUMPDEST \t\t\t5E4B7C08D32810282E1cB539e8b151...\n      PUSH 0\t\t\tss =\n      PUSH 20\t\t\tes\n      DUP3 \t\t\tstorsBala\n      ADD \t\t\tinvestorsBalances;\n      SWAP1 \t\t\tprivate investorsBalances;\n      POP \t\t\tprivate investorsBalances;\n      PUSH [tag] 149\t\t\tng(address => uint256) private...\n      PUSH 0\t\t\tv\n      DUP4 \t\t\tuint256 p\n      ADD \t\t\t    uint256 priva\n      DUP5 \t\t\tentage\n      PUSH [tag] 112\t\t\tng(address => uint256) private...\n      JUMP \t\t\tng(address => uint256) private...\n    tag 149\t\t\tng(address => uint256) private...\n      JUMPDEST \t\t\tng(address => uint256) private...\n      SWAP3 \t\t\t5E4B7C08D32810282E1cB539e8b151...\n      SWAP2 \t\t\t5E4B7C08D32810282E1cB539e8b151...\n      POP \t\t\t5E4B7C08D32810282E1cB539e8b151...\n      POP \t\t\t5E4B7C08D32810282E1cB539e8b151...\n      JUMP \t\t\t5E4B7C08D32810282E1cB539e8b151...\n    tag 113\t\t\t    uint256 private endTime;\\n...\n      JUMPDEST \t\t\t    uint256 private endTime;\\n...\n      PUSH 0\t\t\t   uin\n      DUP2 \t\t\t\\n    \n      MLOAD \t\t\ttGoal;\\n    u\n      SWAP1 \t\t\t investmentGoal;\\n    u\n      POP \t\t\t investmentGoal;\\n    u\n      SWAP2 \t\t\t    uint256 private endTime;\\n...\n      SWAP1 \t\t\t    uint256 private endTime;\\n...\n      POP \t\t\t    uint256 private endTime;\\n...\n      JUMP \t\t\t    uint256 private endTime;\\n...\n    tag 114\t\t\te sharePercentage;\\n    addres...\n      JUMPDEST \t\t\te sharePercentage;\\n    addres...\n      PUSH 0\t\t\tint256 _sha\n      DUP3 \t\t\tendTim\n      DUP3 \t\t\t256\n      MSTORE \t\t\te, uint256 _endTime\n      PUSH 20\t\t\tnder\n      DUP3 \t\t\tsg.\n      ADD \t\t\t = msg.sender;\n      SWAP1 \t\t\t   startupOwner = msg.sender;\n      POP \t\t\t   startupOwner = msg.sender;\n      SWAP3 \t\t\te sharePercentage;\\n    addres...\n      SWAP2 \t\t\te sharePercentage;\\n    addres...\n      POP \t\t\te sharePercentage;\\n    addres...\n      POP \t\t\te sharePercentage;\\n    addres...\n      JUMP \t\t\te sharePercentage;\\n    addres...\n    tag 115\t\t\testmentGoal = _investmentGoal;...\n      JUMPDEST \t\t\testmentGoal = _investmentGoal;...\n      PUSH 0\t\t\tenta\n      DUP2 \t\t\tme \n      SWAP1 \t\t\t startTime \n      POP \t\t\t startTime \n      PUSH 20\t\t\tendT\n      DUP3 \t\t\t   \n      ADD \t\t\t\\n        endTi\n      SWAP1 \t\t\tmestamp;\\n        endTi\n      POP \t\t\tmestamp;\\n        endTi\n      SWAP2 \t\t\testmentGoal = _investmentGoal;...\n      SWAP1 \t\t\testmentGoal = _investmentGoal;...\n      POP \t\t\testmentGoal = _investmentGoal;...\n      JUMP \t\t\testmentGoal = _investmentGoal;...\n    tag 116\t\t\t;\\n    }\\n\\n    function inves...\n      JUMPDEST \t\t\t;\\n    }\\n\\n    function inves...\n      PUSH 0\t\t\tal paya\n      PUSH FFFFFFFFFFFFFFFFFFFFFFFFFFFFFFFFFFFFFFFF\t\t\tmount = msg.value;\\n        if...\n      DUP3 \t\t\tstmen\n      AND \t\t\tinvestmentAmount = msg.value;\\...\n      SWAP1 \t\t\t   uint256 investmentAmount = ...\n      POP \t\t\t   uint256 investmentAmount = ...\n      SWAP2 \t\t\t;\\n    }\\n\\n    function inves...\n      SWAP1 \t\t\t;\\n    }\\n\\n    function inves...\n      POP \t\t\t;\\n    }\\n\\n    function inves...\n      JUMP \t\t\t;\\n    }\\n\\n    function inves...\n    tag 117\t\t\t\\n            revert(\"NO FUNDS...\n      JUMPDEST \t\t\t\\n            revert(\"NO FUNDS...\n      PUSH 0\t\t\tD\");\\n  \n      PUSH [tag] 155\t\t\t     address investor = \n      DUP3 \t\t\ttor =\n      PUSH [tag] 116\t\t\t     address investor = \n      JUMP \t\t\t     address investor = \n    tag 155\t\t\t     address investor = \n      JUMPDEST \t\t\t     address investor = \n      SWAP1 \t\t\te {\\n            address inves...\n      POP \t\t\te {\\n            address inves...\n      SWAP2 \t\t\t\\n            revert(\"NO FUNDS...\n      SWAP1 \t\t\t\\n            revert(\"NO FUNDS...\n      POP \t\t\t\\n            revert(\"NO FUNDS...\n      JUMP \t\t\t\\n            revert(\"NO FUNDS...\n    tag 118\t\t\t            investorsList.push...\n      JUMPDEST \t\t\t            investorsList.push...\n      PUSH [tag] 157\t\t\ttor] += investmentAmount\n      DUP2 \t\t\tAmoun\n      PUSH [tag] 117\t\t\ttor] += investmentAmount\n      JUMP \t\t\ttor] += investmentAmount\n    tag 157\t\t\ttor] += investmentAmount\n      JUMPDEST \t\t\ttor] += investmentAmount\n      DUP3 \t\t\tinv\n      MSTORE \t\t\tlances[investor] += investment...\n      POP \t\t\t            investorsList.push...\n      POP \t\t\t            investorsList.push...\n      JUMP \t\t\t            investorsList.push...\n    tag 119\t\t\t tokensCollected += investment...\n      JUMPDEST \t\t\t tokensCollected += investment...\n      PUSH 0\t\t\tithdrawSta\n      PUSH [tag] 159\t\t\tt256 finalAmount) internal {\\n...\n      DUP4 \t\t\tss \n      DUP4 \t\t\t   add\n      PUSH [tag] 118\t\t\tt256 finalAmount) internal {\\n...\n      JUMP \t\t\tt256 finalAmount) internal {\\n...\n    tag 159\t\t\tt256 finalAmount) internal {\\n...\n      JUMPDEST \t\t\tt256 finalAmount) internal {\\n...\n      PUSH 20\t\t\ttoke\n      DUP4 \t\t\t if\n      ADD \t\t\t     if (token\n      SWAP1 \t\t\tsg.sender;\\n        if (token\n      POP \t\t\tsg.sender;\\n        if (token\n      SWAP3 \t\t\t tokensCollected += investment...\n      SWAP2 \t\t\t tokensCollected += investment...\n      POP \t\t\t tokensCollected += investment...\n      POP \t\t\t tokensCollected += investment...\n      JUMP \t\t\t tokensCollected += investment...\n    tag 120\t\t\t= investmentGoal && startupOwn...\n      JUMPDEST \t\t\t= investmentGoal && startupOwn...\n      PUSH 0\t\t\ter).\n      PUSH 20\t\t\t   }\n      DUP3 \t\t\t   \n      ADD \t\t\tt);\\n        } \n      SWAP1 \t\t\tnalAmount);\\n        } \n      POP \t\t\tnalAmount);\\n        } \n      SWAP2 \t\t\t= investmentGoal && startupOwn...\n      SWAP1 \t\t\t= investmentGoal && startupOwn...\n      POP \t\t\t= investmentGoal && startupOwn...\n      JUMP \t\t\t= investmentGoal && startupOwn...\n    tag 121\t\t\tS TO WITHDRAW\");\\n        }\\n ...\n      JUMPDEST \t\t\tS TO WITHDRAW\");\\n        }\\n ...\n      PUSH 0\t\t\tlec\n      PUSH [tag] 162\t\t\twithdrawInvestor() external {\\...\n      DUP3 \t\t\tller \n      PUSH [tag] 113\t\t\twithdrawInvestor() external {\\...\n      JUMP \t\t\twithdrawInvestor() external {\\...\n    tag 162\t\t\twithdrawInvestor() external {\\...\n      JUMPDEST \t\t\twithdrawInvestor() external {\\...\n      PUSH [tag] 163\t\t\t     if (tokensCollected >= in...\n      DUP2 \t\t\tstorsB\n      DUP6 \t\t\t in\n      PUSH [tag] 114\t\t\t     if (tokensCollected >= in...\n      JUMP \t\t\t     if (tokensCollected >= in...\n    tag 163\t\t\t     if (tokensCollected >= in...\n      JUMPDEST \t\t\t     if (tokensCollected >= in...\n      SWAP4 \t\t\ter;\\n        if (tokensCollect...\n      POP \t\t\ter;\\n        if (tokensCollect...\n      PUSH [tag] 164\t\t\t    investorsBalances[caller] ...\n      DUP4 \t\t\table(\n      PUSH [tag] 115\t\t\t    investorsBalances[caller] ...\n      JUMP \t\t\t    investorsBalances[caller] ...\n    tag 164\t\t\t    investorsBalances[caller] ...\n      JUMPDEST \t\t\t    investorsBalances[caller] ...\n      DUP1 \t\t\t;\\n     \n      PUSH 0\t\t\tr\n    tag 165\t\t\t {\\n            revert(\"NOT EN...\n      JUMPDEST \t\t\t {\\n            revert(\"NOT EN...\n      DUP4 \t\t\tT ENOU\n      DUP2 \t\t\t\"\n      LT \t\t\trt(\"NOT ENOUG\n      ISZERO \t\t\t {\\n            revert(\"NOT EN...\n      PUSH [tag] 167\t\t\t {\\n            revert(\"NOT EN...\n      JUMPI \t\t\t {\\n            revert(\"NOT EN...\n      DUP2 \t\t\tt(uint\n      MLOAD \t\t\tkenvest(uint2\n      PUSH [tag] 168\t\t\tnal {\\n        payable(contrac...\n      DUP9 \t\t\t   \n      DUP3 \t\t\tr(commission)\n      PUSH [tag] 119\t\t\tnal {\\n        payable(contrac...\n      JUMP \t\t\tnal {\\n        payable(contrac...\n    tag 168\t\t\tnal {\\n        payable(contrac...\n      JUMPDEST \t\t\tnal {\\n        payable(contrac...\n      SWAP8 \t\t\t) internal {\\n        payable(...\n      POP \t\t\t) internal {\\n        payable(...\n      PUSH [tag] 169\t\t\tunt() external view returns (u...\n      DUP4 \t\t\tn toke\n      PUSH [tag] 120\t\t\tunt() external view returns (u...\n      JUMP \t\t\tunt() external view returns (u...\n    tag 169\t\t\tunt() external view returns (u...\n      JUMPDEST \t\t\tunt() external view returns (u...\n      SWAP3 \t\t\ton showAmount() external view ...\n      POP \t\t\ton showAmount() external view ...\n      POP \t\t\t   }\\n    }\\n\\n    function wi...\n      PUSH 1\t\t\tD\n      DUP2 \t\t\tI\n      ADD \t\t\tTO WITHDR\n      SWAP1 \t\t\tUNDS TO WITHDR\n      POP \t\t\tUNDS TO WITHDR\n      PUSH [tag] 165\t\t\t {\\n            revert(\"NOT EN...\n      JUMP \t\t\t {\\n            revert(\"NOT EN...\n    tag 167\t\t\t {\\n            revert(\"NOT EN...\n      JUMPDEST \t\t\t {\\n            revert(\"NOT EN...\n      POP \t\t\t           rev\n      DUP6 \t\t\tcti\n      SWAP4 \t\t\t    functi\n      POP \t\t\t    functi\n      POP \t\t\td);\\n    }\\n\\n    function wit...\n      POP \t\t\td);\\n    }\\n\\n    function wit...\n      POP \t\t\td);\\n    }\\n\\n    function wit...\n      SWAP3 \t\t\tS TO WITHDRAW\");\\n        }\\n ...\n      SWAP2 \t\t\tS TO WITHDRAW\");\\n        }\\n ...\n      POP \t\t\tS TO WITHDRAW\");\\n        }\\n ...\n      POP \t\t\tS TO WITHDRAW\");\\n        }\\n ...\n      JUMP \t\t\tS TO WITHDRAW\");\\n        }\\n ...\n    tag 122\t\t\t) external view returns (uint2...\n      JUMPDEST \t\t\t) external view returns (uint2...\n      PUSH 0\t\t\t\\n    }\n      DUP2 \t\t\t(uint\n      MLOAD \t\t\ttartup(uint2\n      SWAP1 \t\t\ton finishStartup(uint2\n      POP \t\t\ton finishStartup(uint2\n      SWAP2 \t\t\t) external view returns (uint2...\n      SWAP1 \t\t\t) external view returns (uint2...\n      POP \t\t\t) external view returns (uint2...\n      JUMP \t\t\t) external view returns (uint2...\n    tag 123\t\t\t, uint256 finalAmount) externa...\n      JUMPDEST \t\t\t, uint256 finalAmount) externa...\n      PUSH 0\t\t\tAIGN STILL \n      DUP3 \t\t\tse {\\n \n      DUP3 \t\t\t } \n      MSTORE \t\t\t        } else {\\n  \n      PUSH 20\t\t\tnves\n      DUP3 \t\t\td <\n      ADD \t\t\tected < invest\n      SWAP1 \t\t\t if (tokensCollected < invest\n      POP \t\t\t if (tokensCollected < invest\n      SWAP3 \t\t\t, uint256 finalAmount) externa...\n      SWAP2 \t\t\t, uint256 finalAmount) externa...\n      POP \t\t\t, uint256 finalAmount) externa...\n      POP \t\t\t, uint256 finalAmount) externa...\n      JUMP \t\t\t, uint256 finalAmount) externa...\n    tag 124\t\t\t                for (uint256 i...\n      JUMPDEST \t\t\t                for (uint256 i...\n      PUSH 0\t\t\testo\n      DUP2 \t\t\tsto\n      SWAP1 \t\t\tth; investo\n      POP \t\t\tth; investo\n      PUSH 20\t\t\t    \n      DUP3 \t\t\t   \n      ADD \t\t\t              \n      SWAP1 \t\t\t{\\n                    \n      POP \t\t\t{\\n                    \n      SWAP2 \t\t\t                for (uint256 i...\n      SWAP1 \t\t\t                for (uint256 i...\n      POP \t\t\t                for (uint256 i...\n      JUMP \t\t\t                for (uint256 i...\n    tag 125\t\t\tdAmount = investorsBalances[in...\n      JUMPDEST \t\t\tdAmount = investorsBalances[in...\n      PUSH [tag] 174\t\t\t  payable(investorsList[\n      DUP2 \t\t\tsList\n      PUSH [tag] 111\t\t\t  payable(investorsList[\n      JUMP \t\t\t  payable(investorsList[\n    tag 174\t\t\t  payable(investorsList[\n      JUMPDEST \t\t\t  payable(investorsList[\n      DUP3 \t\t\t   \n      MSTORE \t\t\t              payable(investor...\n      POP \t\t\tdAmount = investorsBalances[in...\n      POP \t\t\tdAmount = investorsBalances[in...\n      JUMP \t\t\tdAmount = investorsBalances[in...\n    tag 126\t\t\t]).transfer(refundAmount);\\n  ...\n      JUMPDEST \t\t\t]).transfer(refundAmount);\\n  ...\n      PUSH 0\t\t\tt(\"CAMPAIG\n      PUSH [tag] 176\t\t\t    \\n            } else {\\n  ...\n      DUP4 \t\t\twit\n      DUP4 \t\t\t      \n      PUSH [tag] 125\t\t\t    \\n            } else {\\n  ...\n      JUMP \t\t\t    \\n            } else {\\n  ...\n    tag 176\t\t\t    \\n            } else {\\n  ...\n      JUMPDEST \t\t\t    \\n            } else {\\n  ...\n      PUSH 20\t\t\t    \n      DUP4 \t\t\t;\\n \n      ADD \t\t\tunt);\\n        \n      SWAP1 \t\t\tupper(finalAmount);\\n        \n      POP \t\t\tupper(finalAmount);\\n        \n      SWAP3 \t\t\t]).transfer(refundAmount);\\n  ...\n      SWAP2 \t\t\t]).transfer(refundAmount);\\n  ...\n      POP \t\t\t]).transfer(refundAmount);\\n  ...\n      POP \t\t\t]).transfer(refundAmount);\\n  ...\n      JUMP \t\t\t]).transfer(refundAmount);\\n  ...\n    tag 127\t\t\tdrawTokenvest(commission);\\n  ...\n      JUMPDEST \t\t\tdrawTokenvest(commission);\\n  ...\n      PUSH 0\t\t\t sho\n      PUSH 20\t\t\tetur\n      DUP3 \t\t\tiew\n      ADD \t\t\tal view return\n      SWAP1 \t\t\t) external view return\n      POP \t\t\t) external view return\n      SWAP2 \t\t\tdrawTokenvest(commission);\\n  ...\n      SWAP1 \t\t\tdrawTokenvest(commission);\\n  ...\n      POP \t\t\tdrawTokenvest(commission);\\n  ...\n      JUMP \t\t\tdrawTokenvest(commission);\\n  ...\n    tag 128\t\t\t       uint256[] memory balanc...\n      JUMPDEST \t\t\t       uint256[] memory balanc...\n      PUSH 0\t\t\teng\n      PUSH [tag] 179\t\t\tances[i] = investorsBalances[i...\n      DUP3 \t\t\t     \n      PUSH [tag] 122\t\t\tances[i] = investorsBalances[i...\n      JUMP \t\t\tances[i] = investorsBalances[i...\n    tag 179\t\t\tances[i] = investorsBalances[i...\n      JUMPDEST \t\t\tances[i] = investorsBalances[i...\n      PUSH [tag] 180\t\t\trn (investorsList, balances);\\...\n      DUP2 \t\t\t\n      DUP6 \t\t\t\n      PUSH [tag] 123\t\t\trn (investorsList, balances);\\...\n      JUMP \t\t\trn (investorsList, balances);\\...\n    tag 180\t\t\trn (investorsList, balances);\\...\n      JUMPDEST \t\t\trn (investorsList, balances);\\...\n      SWAP4 \t\t\t   return (investorsList, bala...\n      POP \t\t\t   return (investorsList, bala...\n      PUSH [tag] 181\t\t\t\n      DUP4 \t\t\t\n      PUSH [tag] 124\t\t\t\n      JUMP \t\t\t\n    tag 181\t\t\t\n      JUMPDEST \t\t\t\n      DUP1 \t\t\t\n      PUSH 0\t\t\t\n    tag 182\t\t\t\n      JUMPDEST \t\t\t\n      DUP4 \t\t\t\n      DUP2 \t\t\t\n      LT \t\t\t\n      ISZERO \t\t\t\n      PUSH [tag] 184\t\t\t\n      JUMPI \t\t\t\n      DUP2 \t\t\t\n      MLOAD \t\t\t\n      PUSH [tag] 185\t\t\t\n      DUP9 \t\t\t\n      DUP3 \t\t\t\n      PUSH [tag] 126\t\t\t\n      JUMP \t\t\t\n    tag 185\t\t\t\n      JUMPDEST \t\t\t\n      SWAP8 \t\t\t\n      POP \t\t\t\n      PUSH [tag] 186\t\t\t\n      DUP4 \t\t\t\n      PUSH [tag] 127\t\t\t\n      JUMP \t\t\t\n    tag 186\t\t\t\n      JUMPDEST \t\t\t\n      SWAP3 \t\t\t\n      POP \t\t\t\n      POP \t\t\t\n      PUSH 1\t\t\t\n      DUP2 \t\t\t\n      ADD \t\t\t\n      SWAP1 \t\t\t\n      POP \t\t\t\n      PUSH [tag] 182\t\t\t\n      JUMP \t\t\t\n    tag 184\t\t\t\n      JUMPDEST \t\t\t\n      POP \t\t\t\n      DUP6 \t\t\t\n      SWAP4 \t\t\t\n      POP \t\t\t\n      POP \t\t\t; i++) {\\n            balances...\n      POP \t\t\t; i++) {\\n            balances...\n      POP \t\t\t; i++) {\\n            balances...\n      SWAP3 \t\t\t       uint256[] memory balanc...\n      SWAP2 \t\t\t       uint256[] memory balanc...\n      POP \t\t\t       uint256[] memory balanc...\n      POP \t\t\t       uint256[] memory balanc...\n      JUMP \t\t\t       uint256[] memory balanc...\n    tag 19\t\t\t\n      JUMPDEST \t\t\t\n      PUSH 0\t\t\t\n      PUSH 40\t\t\t\n      DUP3 \t\t\t\n      ADD \t\t\t\n      SWAP1 \t\t\t\n      POP \t\t\t\n      DUP2 \t\t\t\n      DUP2 \t\t\t\n      SUB \t\t\t\n      PUSH 0\t\t\t\n      DUP4 \t\t\t\n      ADD \t\t\t\n      MSTORE \t\t\t\n      PUSH [tag] 188\t\t\t\n      DUP2 \t\t\t\n      DUP6 \t\t\t\n      PUSH [tag] 121\t\t\t\n      JUMP \t\t\t\n    tag 188\t\t\t\n      JUMPDEST \t\t\t\n      SWAP1 \t\t\t\n      POP \t\t\t\n      DUP2 \t\t\t\n      DUP2 \t\t\t\n      SUB \t\t\t\n      PUSH 20\t\t\t\n      DUP4 \t\t\t\n      ADD \t\t\t\n      MSTORE \t\t\t\n      PUSH [tag] 189\t\t\t\n      DUP2 \t\t\t\n      DUP5 \t\t\t\n      PUSH [tag] 128\t\t\t\n      JUMP \t\t\t\n    tag 189\t\t\t\n      JUMPDEST \t\t\t\n      SWAP1 \t\t\t\n      POP \t\t\t\n      SWAP4 \t\t\t\n      SWAP3 \t\t\t\n      POP \t\t\t\n      POP \t\t\t\n      POP \t\t\t\n      JUMP \t\t\t\n    tag 130\t\t\t\n      JUMPDEST \t\t\t\n      PUSH 0\t\t\t\n      DUP1 \t\t\t\n      REVERT \t\t\t\n    tag 132\t\t\t\n      JUMPDEST \t\t\t\n      PUSH [tag] 194\t\t\t\n      DUP2 \t\t\t\n      PUSH [tag] 111\t\t\t\n      JUMP \t\t\t\n    tag 194\t\t\t\n      JUMPDEST \t\t\t\n      DUP2 \t\t\t\n      EQ \t\t\t\n      PUSH [tag] 195\t\t\t\n      JUMPI \t\t\t\n      PUSH 0\t\t\t\n      DUP1 \t\t\t\n      REVERT \t\t\t\n    tag 195\t\t\t\n      JUMPDEST \t\t\t\n      POP \t\t\t\n      JUMP \t\t\t\n    tag 133\t\t\t\n      JUMPDEST \t\t\t\n      PUSH 0\t\t\t\n      DUP2 \t\t\t\n      CALLDATALOAD \t\t\t\n      SWAP1 \t\t\t\n      POP \t\t\t\n      PUSH [tag] 197\t\t\t\n      DUP2 \t\t\t\n      PUSH [tag] 132\t\t\t\n      JUMP \t\t\t\n    tag 197\t\t\t\n      JUMPDEST \t\t\t\n      SWAP3 \t\t\t\n      SWAP2 \t\t\t\n      POP \t\t\t\n      POP \t\t\t\n      JUMP \t\t\t\n    tag 27\t\t\t\n      JUMPDEST \t\t\t\n      PUSH 0\t\t\t\n      DUP1 \t\t\t\n      PUSH 40\t\t\t\n      DUP4 \t\t\t\n      DUP6 \t\t\t\n      SUB \t\t\t\n      SLT \t\t\t\n      ISZERO \t\t\t\n      PUSH [tag] 199\t\t\t\n      JUMPI \t\t\t\n      PUSH [tag] 200\t\t\t\n      PUSH [tag] 130\t\t\t\n      JUMP \t\t\t\n    tag 200\t\t\t\n      JUMPDEST \t\t\t\n    tag 199\t\t\t\n      JUMPDEST \t\t\t\n      PUSH 0\t\t\t\n      PUSH [tag] 201\t\t\t\n      DUP6 \t\t\t\n      DUP3 \t\t\t\n      DUP7 \t\t\t\n      ADD \t\t\t\n      PUSH [tag] 133\t\t\t\n      JUMP \t\t\t\n    tag 201\t\t\t\n      JUMPDEST \t\t\t\n      SWAP3 \t\t\t\n      POP \t\t\t\n      POP \t\t\t\n      PUSH 20\t\t\t\n      PUSH [tag] 202\t\t\t\n      DUP6 \t\t\t\n      DUP3 \t\t\t\n      DUP7 \t\t\t\n      ADD \t\t\t\n      PUSH [tag] 133\t\t\t\n      JUMP \t\t\t\n    tag 202\t\t\t\n      JUMPDEST \t\t\t\n      SWAP2 \t\t\t\n      POP \t\t\t\n      POP \t\t\t\n      SWAP3 \t\t\t\n      POP \t\t\t\n      SWAP3 \t\t\t\n      SWAP1 \t\t\t\n      POP \t\t\t\n      JUMP \t\t\t\n    tag 41\t\t\t\n      JUMPDEST \t\t\t\n      PUSH 4E487B7100000000000000000000000000000000000000000000000000000000\t\t\t\n      PUSH 0\t\t\t\n      MSTORE \t\t\t\n      PUSH 41\t\t\t\n      PUSH 4\t\t\t\n      MSTORE \t\t\t\n      PUSH 24\t\t\t\n      PUSH 0\t\t\t\n      REVERT \t\t\t\n    tag 48\t\t\t\n      JUMPDEST \t\t\t\n      PUSH 4E487B7100000000000000000000000000000000000000000000000000000000\t\t\t\n      PUSH 0\t\t\t\n      MSTORE \t\t\t\n      PUSH 32\t\t\t\n      PUSH 4\t\t\t\n      MSTORE \t\t\t\n      PUSH 24\t\t\t\n      PUSH 0\t\t\t\n      REVERT \t\t\t\n    tag 134\t\t\t\n      JUMPDEST \t\t\t\n      PUSH 4E487B7100000000000000000000000000000000000000000000000000000000\t\t\t\n      PUSH 0\t\t\t\n      MSTORE \t\t\t\n      PUSH 11\t\t\t\n      PUSH 4\t\t\t\n      MSTORE \t\t\t\n      PUSH 24\t\t\t\n      PUSH 0\t\t\t\n      REVERT \t\t\t\n    tag 53\t\t\t\n      JUMPDEST \t\t\t\n      PUSH 0\t\t\t\n      PUSH [tag] 207\t\t\t\n      DUP3 \t\t\t\n      PUSH [tag] 111\t\t\t\n      JUMP \t\t\t\n    tag 207\t\t\t\n      JUMPDEST \t\t\t\n      SWAP2 \t\t\t\n      POP \t\t\t\n      PUSH FFFFFFFFFFFFFFFFFFFFFFFFFFFFFFFFFFFFFFFFFFFFFFFFFFFFFFFFFFFFFFFF\t\t\t\n      DUP3 \t\t\t\n      SUB \t\t\t\n      PUSH [tag] 208\t\t\t\n      JUMPI \t\t\t\n      PUSH [tag] 209\t\t\t\n      PUSH [tag] 134\t\t\t\n      JUMP \t\t\t\n    tag 209\t\t\t\n      JUMPDEST \t\t\t\n    tag 208\t\t\t\n      JUMPDEST \t\t\t\n      PUSH 1\t\t\t\n      DUP3 \t\t\t\n      ADD \t\t\t\n      SWAP1 \t\t\t\n      POP \t\t\t\n      SWAP2 \t\t\t\n      SWAP1 \t\t\t\n      POP \t\t\t\n      JUMP \t\t\t\n    tag 135\t\t\t\n      JUMPDEST \t\t\t\n      PUSH 0\t\t\t\n      DUP3 \t\t\t\n      DUP3 \t\t\t\n      MSTORE \t\t\t\n      PUSH 20\t\t\t\n      DUP3 \t\t\t\n      ADD \t\t\t\n      SWAP1 \t\t\t\n      POP \t\t\t\n      SWAP3 \t\t\t\n      SWAP2 \t\t\t\n      POP \t\t\t\n      POP \t\t\t\n      JUMP \t\t\t\n    tag 136\t\t\t\n      JUMPDEST \t\t\t\n      PUSH 43414D504149474E205354494C4C2052554E4E494E4700000000000000000000\t\t\t\n      PUSH 0\t\t\t\n      DUP3 \t\t\t\n      ADD \t\t\t\n      MSTORE \t\t\t\n      POP \t\t\t\n      JUMP \t\t\t\n    tag 137\t\t\t\n      JUMPDEST \t\t\t\n      PUSH 0\t\t\t\n      PUSH [tag] 213\t\t\t\n      PUSH 16\t\t\t\n      DUP4 \t\t\t\n      PUSH [tag] 135\t\t\t\n      JUMP \t\t\t\n    tag 213\t\t\t\n      JUMPDEST \t\t\t\n      SWAP2 \t\t\t\n      POP \t\t\t\n      PUSH [tag] 214\t\t\t\n      DUP3 \t\t\t\n      PUSH [tag] 136\t\t\t\n      JUMP \t\t\t\n    tag 214\t\t\t\n      JUMPDEST \t\t\t\n      PUSH 20\t\t\t\n      DUP3 \t\t\t\n      ADD \t\t\t\n      SWAP1 \t\t\t\n      POP \t\t\t\n      SWAP2 \t\t\t\n      SWAP1 \t\t\t\n      POP \t\t\t\n      JUMP \t\t\t\n    tag 60\t\t\t\n      JUMPDEST \t\t\t\n      PUSH 0\t\t\t\n      PUSH 20\t\t\t\n      DUP3 \t\t\t\n      ADD \t\t\t\n      SWAP1 \t\t\t\n      POP \t\t\t\n      DUP2 \t\t\t\n      DUP2 \t\t\t\n      SUB \t\t\t\n      PUSH 0\t\t\t\n      DUP4 \t\t\t\n      ADD \t\t\t\n      MSTORE \t\t\t\n      PUSH [tag] 216\t\t\t\n      DUP2 \t\t\t\n      PUSH [tag] 137\t\t\t\n      JUMP \t\t\t\n    tag 216\t\t\t\n      JUMPDEST \t\t\t\n      SWAP1 \t\t\t\n      POP \t\t\t\n      SWAP2 \t\t\t\n      SWAP1 \t\t\t\n      POP \t\t\t\n      JUMP \t\t\t\n    tag 138\t\t\t\n      JUMPDEST \t\t\t\n      PUSH 43414D504149474E204641494C45440000000000000000000000000000000000\t\t\t\n      PUSH 0\t\t\t\n      DUP3 \t\t\t\n      ADD \t\t\t\n      MSTORE \t\t\t\n      POP \t\t\t\n      JUMP \t\t\t\n    tag 139\t\t\t\n      JUMPDEST \t\t\t\n      PUSH 0\t\t\t\n      PUSH [tag] 219\t\t\t\n      PUSH F\t\t\t\n      DUP4 \t\t\t\n      PUSH [tag] 135\t\t\t\n      JUMP \t\t\t\n    tag 219\t\t\t\n      JUMPDEST \t\t\t\n      SWAP2 \t\t\t\n      POP \t\t\t\n      PUSH [tag] 220\t\t\t\n      DUP3 \t\t\t\n      PUSH [tag] 138\t\t\t\n      JUMP \t\t\t\n    tag 220\t\t\t\n      JUMPDEST \t\t\t\n      PUSH 20\t\t\t\n      DUP3 \t\t\t\n      ADD \t\t\t\n      SWAP1 \t\t\t\n      POP \t\t\t\n      SWAP2 \t\t\t\n      SWAP1 \t\t\t\n      POP \t\t\t\n      JUMP \t\t\t\n    tag 76\t\t\t\n      JUMPDEST \t\t\t\n      PUSH 0\t\t\t\n      PUSH 20\t\t\t\n      DUP3 \t\t\t\n      ADD \t\t\t\n      SWAP1 \t\t\t\n      POP \t\t\t\n      DUP2 \t\t\t\n      DUP2 \t\t\t\n      SUB \t\t\t\n      PUSH 0\t\t\t\n      DUP4 \t\t\t\n      ADD \t\t\t\n      MSTORE \t\t\t\n      PUSH [tag] 222\t\t\t\n      DUP2 \t\t\t\n      PUSH [tag] 139\t\t\t\n      JUMP \t\t\t\n    tag 222\t\t\t\n      JUMPDEST \t\t\t\n      SWAP1 \t\t\t\n      POP \t\t\t\n      SWAP2 \t\t\t\n      SWAP1 \t\t\t\n      POP \t\t\t\n      JUMP \t\t\t\n    tag 140\t\t\t\n      JUMPDEST \t\t\t\n      PUSH 4E4F5420454E4F5547482046554E445320544F20574954484452415700000000\t\t\t\n      PUSH 0\t\t\t\n      DUP3 \t\t\t\n      ADD \t\t\t\n      MSTORE \t\t\t\n      POP \t\t\t\n      JUMP \t\t\t\n    tag 141\t\t\t\n      JUMPDEST \t\t\t\n      PUSH 0\t\t\t\n      PUSH [tag] 225\t\t\t\n      PUSH 1C\t\t\t\n      DUP4 \t\t\t\n      PUSH [tag] 135\t\t\t\n      JUMP \t\t\t\n    tag 225\t\t\t\n      JUMPDEST \t\t\t\n      SWAP2 \t\t\t\n      POP \t\t\t\n      PUSH [tag] 226\t\t\t\n      DUP3 \t\t\t\n      PUSH [tag] 140\t\t\t\n      JUMP \t\t\t\n    tag 226\t\t\t\n      JUMPDEST \t\t\t\n      PUSH 20\t\t\t\n      DUP3 \t\t\t\n      ADD \t\t\t\n      SWAP1 \t\t\t\n      POP \t\t\t\n      SWAP2 \t\t\t\n      SWAP1 \t\t\t\n      POP \t\t\t\n      JUMP \t\t\t\n    tag 88\t\t\t\n      JUMPDEST \t\t\t\n      PUSH 0\t\t\t\n      PUSH 20\t\t\t\n      DUP3 \t\t\t\n      ADD \t\t\t\n      SWAP1 \t\t\t\n      POP \t\t\t\n      DUP2 \t\t\t\n      DUP2 \t\t\t\n      SUB \t\t\t\n      PUSH 0\t\t\t\n      DUP4 \t\t\t\n      ADD \t\t\t\n      MSTORE \t\t\t\n      PUSH [tag] 228\t\t\t\n      DUP2 \t\t\t\n      PUSH [tag] 141\t\t\t\n      JUMP \t\t\t\n    tag 228\t\t\t\n      JUMPDEST \t\t\t\n      SWAP1 \t\t\t\n      POP \t\t\t\n      SWAP2 \t\t\t\n      SWAP1 \t\t\t\n      POP \t\t\t\n      JUMP \t\t\t\n    tag 142\t\t\t\n      JUMPDEST \t\t\t\n      PUSH 4E4F2046554E4453204154544143484544000000000000000000000000000000\t\t\t\n      PUSH 0\t\t\t\n      DUP3 \t\t\t\n      ADD \t\t\t\n      MSTORE \t\t\t\n      POP \t\t\t\n      JUMP \t\t\t\n    tag 143\t\t\t\n      JUMPDEST \t\t\t\n      PUSH 0\t\t\t\n      PUSH [tag] 231\t\t\t\n      PUSH 11\t\t\t\n      DUP4 \t\t\t\n      PUSH [tag] 135\t\t\t\n      JUMP \t\t\t\n    tag 231\t\t\t\n      JUMPDEST \t\t\t\n      SWAP2 \t\t\t\n      POP \t\t\t\n      PUSH [tag] 232\t\t\t\n      DUP3 \t\t\t\n      PUSH [tag] 142\t\t\t\n      JUMP \t\t\t\n    tag 232\t\t\t\n      JUMPDEST \t\t\t\n      PUSH 20\t\t\t\n      DUP3 \t\t\t\n      ADD \t\t\t\n      SWAP1 \t\t\t\n      POP \t\t\t\n      SWAP2 \t\t\t\n      SWAP1 \t\t\t\n      POP \t\t\t\n      JUMP \t\t\t\n    tag 92\t\t\t\n      JUMPDEST \t\t\t\n      PUSH 0\t\t\t\n      PUSH 20\t\t\t\n      DUP3 \t\t\t\n      ADD \t\t\t\n      SWAP1 \t\t\t\n      POP \t\t\t\n      DUP2 \t\t\t\n      DUP2 \t\t\t\n      SUB \t\t\t\n      PUSH 0\t\t\t\n      DUP4 \t\t\t\n      ADD \t\t\t\n      MSTORE \t\t\t\n      PUSH [tag] 234\t\t\t\n      DUP2 \t\t\t\n      PUSH [tag] 143\t\t\t\n      JUMP \t\t\t\n    tag 234\t\t\t\n      JUMPDEST \t\t\t\n      SWAP1 \t\t\t\n      POP \t\t\t\n      SWAP2 \t\t\t\n      SWAP1 \t\t\t\n      POP \t\t\t\n      JUMP \t\t\t\n    tag 96\t\t\t\n      JUMPDEST \t\t\t\n      PUSH 0\t\t\t\n      PUSH [tag] 236\t\t\t\n      DUP3 \t\t\t\n      PUSH [tag] 111\t\t\t\n      JUMP \t\t\t\n    tag 236\t\t\t\n      JUMPDEST \t\t\t\n      SWAP2 \t\t\t\n      POP \t\t\t\n      PUSH [tag] 237\t\t\t\n      DUP4 \t\t\t\n      PUSH [tag] 111\t\t\t\n      JUMP \t\t\t\n    tag 237\t\t\t\n      JUMPDEST \t\t\t\n      SWAP3 \t\t\t\n      POP \t\t\t\n      DUP3 \t\t\t\n      DUP3 \t\t\t\n      ADD \t\t\t\n      SWAP1 \t\t\t\n      POP \t\t\t\n      DUP1 \t\t\t\n      DUP3 \t\t\t\n      GT \t\t\t\n      ISZERO \t\t\t\n      PUSH [tag] 238\t\t\t\n      JUMPI \t\t\t\n      PUSH [tag] 239\t\t\t\n      PUSH [tag] 134\t\t\t\n      JUMP \t\t\t\n    tag 239\t\t\t\n      JUMPDEST \t\t\t\n    tag 238\t\t\t\n      JUMPDEST \t\t\t\n      SWAP3 \t\t\t\n      SWAP2 \t\t\t\n      POP \t\t\t\n      POP \t\t\t\n      JUMP \t\t\t\n    .data\n"
}